{
  "contractName": "Kyc",
  "abi": [
    {
      "inputs": [],
      "payable": false,
      "stateMutability": "nonpayable",
      "type": "constructor"
    },
    {
      "constant": true,
      "inputs": [
        {
          "internalType": "uint256",
          "name": "",
          "type": "uint256"
        }
      ],
      "name": "companies",
      "outputs": [
        {
          "internalType": "string",
          "name": "",
          "type": "string"
        }
      ],
      "payable": false,
      "stateMutability": "view",
      "type": "function"
    },
    {
      "constant": true,
      "inputs": [],
      "name": "companyCount",
      "outputs": [
        {
          "internalType": "uint256",
          "name": "",
          "type": "uint256"
        }
      ],
      "payable": false,
      "stateMutability": "view",
      "type": "function"
    },
    {
      "constant": true,
      "inputs": [],
      "name": "owner",
      "outputs": [
        {
          "internalType": "address",
          "name": "",
          "type": "address"
        }
      ],
      "payable": false,
      "stateMutability": "view",
      "type": "function"
    },
    {
      "constant": true,
      "inputs": [],
      "name": "userCount",
      "outputs": [
        {
          "internalType": "uint256",
          "name": "",
          "type": "uint256"
        }
      ],
      "payable": false,
      "stateMutability": "view",
      "type": "function"
    },
    {
      "constant": true,
      "inputs": [
        {
          "internalType": "uint256",
          "name": "",
          "type": "uint256"
        }
      ],
      "name": "users",
      "outputs": [
        {
          "internalType": "string",
          "name": "",
          "type": "string"
        }
      ],
      "payable": false,
      "stateMutability": "view",
      "type": "function"
    },
    {
      "constant": false,
      "inputs": [
        {
          "internalType": "uint256",
          "name": "_id",
          "type": "uint256"
        }
      ],
      "name": "resetUser",
      "outputs": [],
      "payable": false,
      "stateMutability": "nonpayable",
      "type": "function"
    },
    {
      "constant": false,
      "inputs": [
        {
          "internalType": "uint256",
          "name": "_id",
          "type": "uint256"
        }
      ],
      "name": "resetCompany",
      "outputs": [],
      "payable": false,
      "stateMutability": "nonpayable",
      "type": "function"
    },
    {
      "constant": false,
      "inputs": [
        {
          "internalType": "uint256",
          "name": "_id",
          "type": "uint256"
        }
      ],
      "name": "burnUser",
      "outputs": [],
      "payable": false,
      "stateMutability": "nonpayable",
      "type": "function"
    },
    {
      "constant": false,
      "inputs": [
        {
          "internalType": "uint256",
          "name": "_id",
          "type": "uint256"
        }
      ],
      "name": "burnCompany",
      "outputs": [],
      "payable": false,
      "stateMutability": "nonpayable",
      "type": "function"
    },
    {
      "constant": true,
      "inputs": [
        {
          "internalType": "uint256",
          "name": "_id",
          "type": "uint256"
        }
      ],
      "name": "getUser",
      "outputs": [
        {
          "internalType": "string",
          "name": "",
          "type": "string"
        }
      ],
      "payable": false,
      "stateMutability": "view",
      "type": "function"
    },
    {
      "constant": true,
      "inputs": [
        {
          "internalType": "uint256",
          "name": "_id",
          "type": "uint256"
        }
      ],
      "name": "getCompany",
      "outputs": [
        {
          "internalType": "string",
          "name": "",
          "type": "string"
        }
      ],
      "payable": false,
      "stateMutability": "view",
      "type": "function"
    },
    {
      "constant": true,
      "inputs": [
        {
          "internalType": "uint256",
          "name": "_id",
          "type": "uint256"
        },
        {
          "internalType": "string",
          "name": "_hashHex",
          "type": "string"
        }
      ],
      "name": "verifyUser",
      "outputs": [
        {
          "internalType": "bool",
          "name": "",
          "type": "bool"
        }
      ],
      "payable": false,
      "stateMutability": "view",
      "type": "function"
    },
    {
      "constant": true,
      "inputs": [
        {
          "internalType": "uint256",
          "name": "_id",
          "type": "uint256"
        },
        {
          "internalType": "string",
          "name": "_hashHex",
          "type": "string"
        }
      ],
      "name": "verifyCompany",
      "outputs": [
        {
          "internalType": "bool",
          "name": "",
          "type": "bool"
        }
      ],
      "payable": false,
      "stateMutability": "view",
      "type": "function"
    },
    {
      "constant": true,
      "inputs": [],
      "name": "totalUserCount",
      "outputs": [
        {
          "internalType": "uint256",
          "name": "",
          "type": "uint256"
        }
      ],
      "payable": false,
      "stateMutability": "view",
      "type": "function"
    },
    {
      "constant": true,
      "inputs": [],
      "name": "totalCompanyCount",
      "outputs": [
        {
          "internalType": "uint256",
          "name": "",
          "type": "uint256"
        }
      ],
      "payable": false,
      "stateMutability": "view",
      "type": "function"
    },
    {
      "constant": true,
      "inputs": [
        {
          "internalType": "uint256[]",
          "name": "_ids",
          "type": "uint256[]"
        }
      ],
      "name": "getTotalUser",
      "outputs": [
        {
          "internalType": "string[]",
          "name": "",
          "type": "string[]"
        }
      ],
      "payable": false,
      "stateMutability": "view",
      "type": "function"
    },
    {
      "constant": true,
      "inputs": [
        {
          "internalType": "uint256[]",
          "name": "_ids",
          "type": "uint256[]"
        }
      ],
      "name": "getTotalCompany",
      "outputs": [
        {
          "internalType": "string[]",
          "name": "",
          "type": "string[]"
        }
      ],
      "payable": false,
      "stateMutability": "view",
      "type": "function"
    },
    {
      "constant": false,
      "inputs": [
        {
          "internalType": "uint256",
          "name": "_id",
          "type": "uint256"
        },
        {
          "internalType": "string",
          "name": "_hashValue",
          "type": "string"
        }
      ],
      "name": "validateUser",
      "outputs": [],
      "payable": false,
      "stateMutability": "nonpayable",
      "type": "function"
    },
    {
      "constant": false,
      "inputs": [
        {
          "internalType": "uint256",
          "name": "_id",
          "type": "uint256"
        },
        {
          "internalType": "string",
          "name": "_hashValue",
          "type": "string"
        }
      ],
      "name": "validateCompany",
      "outputs": [],
      "payable": false,
      "stateMutability": "nonpayable",
      "type": "function"
    }
  ],
  "bytecode": "0x60806040526000600255600060035534801561001a57600080fd5b5033600460006101000a81548173ffffffffffffffffffffffffffffffffffffffff021916908373ffffffffffffffffffffffffffffffffffffffff160217905550611b1c8061006b6000396000f3fe608060405234801561001057600080fd5b50600436106101215760003560e01c8063807e6c9a116100ad578063b0467deb11610071578063b0467deb1461032e578063c35e88ef1461035e578063dafc664b1461037c578063f4049b57146103ac578063fb360feb146103c857610121565b8063807e6c9a1461029e57806383bf3ff0146102ba5780638da5cb5b146102d65780638e75dd47146102f45780639d7149611461031257610121565b806342ef39a3116100f457806342ef39a3146101d45780634bb86af01461020457806357d13917146102225780635fafb3b6146102525780636f3c178e1461028257610121565b806307973ccf146101265780631112bdf2146101445780632813d19d14610174578063365b98b2146101a4575b600080fd5b61012e6103e4565b60405161013b91906118fa565b60405180910390f35b61015e600480360361015991908101906114fc565b6103ea565b60405161016b919061185b565b60405180910390f35b61018e600480360361018991908101906114d3565b610454565b60405161019b9190611876565b60405180910390f35b6101be60048036036101b991908101906114d3565b610504565b6040516101cb9190611876565b60405180910390f35b6101ee60048036036101e99190810190611492565b6105b4565b6040516101fb9190611839565b60405180910390f35b61020c6106eb565b60405161021991906118fa565b60405180910390f35b61023c600480360361023791908101906114d3565b610785565b6040516102499190611898565b60405180910390f35b61026c60048036036102679190810190611492565b6108ca565b6040516102799190611839565b60405180910390f35b61029c600480360361029791908101906114d3565b610a91565b005b6102b860048036036102b391908101906114d3565b610b81565b005b6102d460048036036102cf91908101906114d3565b610c70565b005b6102de610d5f565b6040516102eb919061181e565b60405180910390f35b6102fc610d85565b60405161030991906118fa565b60405180910390f35b61032c600480360361032791908101906114fc565b610d8b565b005b610348600480360361034391908101906114d3565b610e4e565b6040516103559190611898565b60405180910390f35b610366610f92565b60405161037391906118fa565b60405180910390f35b610396600480360361039191908101906114fc565b61102c565b6040516103a3919061185b565b60405180910390f35b6103c660048036036103c191908101906114d3565b611097565b005b6103e260048036036103dd91908101906114fc565b611187565b005b60025481565b6000816040516020016103fd91906117f0565b604051602081830303815290604052805190602001206000808581526020019081526020016000206040516020016104359190611807565b6040516020818303038152906040528051906020012014905092915050565b60016020528060005260406000206000915090508054600181600116156101000203166002900480601f0160208091040260200160405190810160405280929190818152602001828054600181600116156101000203166002900480156104fc5780601f106104d1576101008083540402835291602001916104fc565b820191906000526020600020905b8154815290600101906020018083116104df57829003601f168201915b505050505081565b60006020528060005260406000206000915090508054600181600116156101000203166002900480601f0160208091040260200160405190810160405280929190818152602001828054600181600116156101000203166002900480156105ac5780601f10610581576101008083540402835291602001916105ac565b820191906000526020600020905b81548152906001019060200180831161058f57829003601f168201915b505050505081565b60608082516040519080825280602002602001820160405280156105ec57816020015b60608152602001906001900390816105d75790505b50905060008090505b83518110156106e1576001600085838151811061060e57fe5b602002602001015181526020019081526020016000208054600181600116156101000203166002900480601f0160208091040260200160405190810160405280929190818152602001828054600181600116156101000203166002900480156106b85780601f1061068d576101008083540402835291602001916106b8565b820191906000526020600020905b81548152906001019060200180831161069b57829003601f168201915b50505050508282815181106106c957fe5b602002602001018190525080806001019150506105f5565b5080915050919050565b60003373ffffffffffffffffffffffffffffffffffffffff16600460009054906101000a900473ffffffffffffffffffffffffffffffffffffffff1673ffffffffffffffffffffffffffffffffffffffff161461077d576040517f08c379a0000000000000000000000000000000000000000000000000000000008152600401610774906118da565b60405180910390fd5b600254905090565b60603373ffffffffffffffffffffffffffffffffffffffff16600460009054906101000a900473ffffffffffffffffffffffffffffffffffffffff1673ffffffffffffffffffffffffffffffffffffffff1614610817576040517f08c379a000000000000000000000000000000000000000000000000000000000815260040161080e906118da565b60405180910390fd5b600160008381526020019081526020016000208054600181600116156101000203166002900480601f0160208091040260200160405190810160405280929190818152602001828054600181600116156101000203166002900480156108be5780601f10610893576101008083540402835291602001916108be565b820191906000526020600020905b8154815290600101906020018083116108a157829003601f168201915b50505050509050919050565b60603373ffffffffffffffffffffffffffffffffffffffff16600460009054906101000a900473ffffffffffffffffffffffffffffffffffffffff1673ffffffffffffffffffffffffffffffffffffffff161461095c576040517f08c379a0000000000000000000000000000000000000000000000000000000008152600401610953906118da565b60405180910390fd5b6060825160405190808252806020026020018201604052801561099357816020015b606081526020019060019003908161097e5790505b50905060008090505b8351811015610a87576000808583815181106109b457fe5b602002602001015181526020019081526020016000208054600181600116156101000203166002900480601f016020809104026020016040519081016040528092919081815260200182805460018160011615610100020316600290048015610a5e5780601f10610a3357610100808354040283529160200191610a5e565b820191906000526020600020905b815481529060010190602001808311610a4157829003601f168201915b5050505050828281518110610a6f57fe5b6020026020010181905250808060010191505061099c565b5080915050919050565b3373ffffffffffffffffffffffffffffffffffffffff16600460009054906101000a900473ffffffffffffffffffffffffffffffffffffffff1673ffffffffffffffffffffffffffffffffffffffff1614610b21576040517f08c379a0000000000000000000000000000000000000000000000000000000008152600401610b18906118da565b60405180910390fd5b6040518060400160405280600181526020017f3000000000000000000000000000000000000000000000000000000000000000815250600160008381526020019081526020016000209080519060200190610b7d929190611301565b5050565b3373ffffffffffffffffffffffffffffffffffffffff16600460009054906101000a900473ffffffffffffffffffffffffffffffffffffffff1673ffffffffffffffffffffffffffffffffffffffff1614610c11576040517f08c379a0000000000000000000000000000000000000000000000000000000008152600401610c08906118da565b60405180910390fd5b6040518060400160405280600181526020017f30000000000000000000000000000000000000000000000000000000000000008152506000808381526020019081526020016000209080519060200190610c6c929190611301565b5050565b3373ffffffffffffffffffffffffffffffffffffffff16600460009054906101000a900473ffffffffffffffffffffffffffffffffffffffff1673ffffffffffffffffffffffffffffffffffffffff1614610d00576040517f08c379a0000000000000000000000000000000000000000000000000000000008152600401610cf7906118da565b60405180910390fd5b6040518060400160405280600181526020017f30000000000000000000000000000000000000000000000000000000000000008152506000808381526020019081526020016000209080519060200190610d5b929190611301565b5050565b600460009054906101000a900473ffffffffffffffffffffffffffffffffffffffff1681565b60035481565b3373ffffffffffffffffffffffffffffffffffffffff16600460009054906101000a900473ffffffffffffffffffffffffffffffffffffffff1673ffffffffffffffffffffffffffffffffffffffff1614610e1b576040517f08c379a0000000000000000000000000000000000000000000000000000000008152600401610e12906118da565b60405180910390fd5b806000808481526020019081526020016000209080519060200190610e41929190611301565b50610e4a6112db565b5050565b60603373ffffffffffffffffffffffffffffffffffffffff16600460009054906101000a900473ffffffffffffffffffffffffffffffffffffffff1673ffffffffffffffffffffffffffffffffffffffff1614610ee0576040517f08c379a0000000000000000000000000000000000000000000000000000000008152600401610ed7906118da565b60405180910390fd5b6000808381526020019081526020016000208054600181600116156101000203166002900480601f016020809104026020016040519081016040528092919081815260200182805460018160011615610100020316600290048015610f865780601f10610f5b57610100808354040283529160200191610f86565b820191906000526020600020905b815481529060010190602001808311610f6957829003601f168201915b50505050509050919050565b60003373ffffffffffffffffffffffffffffffffffffffff16600460009054906101000a900473ffffffffffffffffffffffffffffffffffffffff1673ffffffffffffffffffffffffffffffffffffffff1614611024576040517f08c379a000000000000000000000000000000000000000000000000000000000815260040161101b906118da565b60405180910390fd5b600354905090565b60008160405160200161103f91906117f0565b60405160208183030381529060405280519060200120600160008581526020019081526020016000206040516020016110789190611807565b6040516020818303038152906040528051906020012014905092915050565b3373ffffffffffffffffffffffffffffffffffffffff16600460009054906101000a900473ffffffffffffffffffffffffffffffffffffffff1673ffffffffffffffffffffffffffffffffffffffff1614611127576040517f08c379a000000000000000000000000000000000000000000000000000000000815260040161111e906118da565b60405180910390fd5b6040518060400160405280600181526020017f3000000000000000000000000000000000000000000000000000000000000000815250600160008381526020019081526020016000209080519060200190611183929190611301565b5050565b3373ffffffffffffffffffffffffffffffffffffffff16600460009054906101000a900473ffffffffffffffffffffffffffffffffffffffff1673ffffffffffffffffffffffffffffffffffffffff1614611217576040517f08c379a000000000000000000000000000000000000000000000000000000000815260040161120e906118da565b60405180910390fd5b3373ffffffffffffffffffffffffffffffffffffffff16600460009054906101000a900473ffffffffffffffffffffffffffffffffffffffff1673ffffffffffffffffffffffffffffffffffffffff16146112a7576040517f08c379a000000000000000000000000000000000000000000000000000000000815260040161129e906118ba565b60405180910390fd5b806001600084815260200190815260200160002090805190602001906112ce929190611301565b506112d76112ee565b5050565b6001600260008282540192505081905550565b6001600360008282540192505081905550565b828054600181600116156101000203166002900490600052602060002090601f016020900481019282601f1061134257805160ff1916838001178555611370565b82800160010185558215611370579182015b8281111561136f578251825591602001919060010190611354565b5b50905061137d9190611381565b5090565b6113a391905b8082111561139f576000816000905550600101611387565b5090565b90565b600082601f8301126113b757600080fd5b81356113ca6113c582611942565b611915565b915081818352602084019350602081019050838560208402820111156113ef57600080fd5b60005b8381101561141f5781611405888261147d565b8452602084019350602083019250506001810190506113f2565b5050505092915050565b600082601f83011261143a57600080fd5b813561144d6114488261196a565b611915565b9150808252602083016020830185838301111561146957600080fd5b611474838284611a6f565b50505092915050565b60008135905061148c81611ac2565b92915050565b6000602082840312156114a457600080fd5b600082013567ffffffffffffffff8111156114be57600080fd5b6114ca848285016113a6565b91505092915050565b6000602082840312156114e557600080fd5b60006114f38482850161147d565b91505092915050565b6000806040838503121561150f57600080fd5b600061151d8582860161147d565b925050602083013567ffffffffffffffff81111561153a57600080fd5b61154685828601611429565b9150509250929050565b600061155c8383611661565b905092915050565b61156d81611a27565b82525050565b600061157e826119bb565b61158881856119e9565b93508360208202850161159a85611996565b8060005b858110156115d657848403895281516115b78582611550565b94506115c2836119dc565b925060208a0199505060018101905061159e565b50829750879550505050505092915050565b6115f181611a39565b82525050565b6000611602826119d1565b61160c8185611a0b565b935061161c818560208601611a7e565b61162581611ab1565b840191505092915050565b600061163b826119d1565b6116458185611a1c565b9350611655818560208601611a7e565b80840191505092915050565b600061166c826119c6565b61167681856119fa565b9350611686818560208601611a7e565b61168f81611ab1565b840191505092915050565b60006116a5826119c6565b6116af8185611a0b565b93506116bf818560208601611a7e565b6116c881611ab1565b840191505092915050565b6000815460018116600081146116f0576001811461171557611759565b607f60028304166117018187611a1c565b955060ff1983168652808601935050611759565b600282046117238187611a1c565b955061172e856119a6565b60005b8281101561175057815481890152600182019150602081019050611731565b82880195505050505b505092915050565b600061176e601783611a0b565b91507f726571756972656420636f6e7472616374206f776e65720000000000000000006000830152602082019050919050565b60006117ae601583611a0b565b91507f73656e646572206973206e6f742061206f776e657200000000000000000000006000830152602082019050919050565b6117ea81611a65565b82525050565b60006117fc8284611630565b915081905092915050565b600061181382846116d3565b915081905092915050565b60006020820190506118336000830184611564565b92915050565b600060208201905081810360008301526118538184611573565b905092915050565b600060208201905061187060008301846115e8565b92915050565b60006020820190508181036000830152611890818461169a565b905092915050565b600060208201905081810360008301526118b281846115f7565b905092915050565b600060208201905081810360008301526118d381611761565b9050919050565b600060208201905081810360008301526118f3816117a1565b9050919050565b600060208201905061190f60008301846117e1565b92915050565b6000604051905081810181811067ffffffffffffffff8211171561193857600080fd5b8060405250919050565b600067ffffffffffffffff82111561195957600080fd5b602082029050602081019050919050565b600067ffffffffffffffff82111561198157600080fd5b601f19601f8301169050602081019050919050565b6000819050602082019050919050565b60008190508160005260206000209050919050565b600081519050919050565b600081519050919050565b600081519050919050565b6000602082019050919050565b600082825260208201905092915050565b600082825260208201905092915050565b600082825260208201905092915050565b600081905092915050565b6000611a3282611a45565b9050919050565b60008115159050919050565b600073ffffffffffffffffffffffffffffffffffffffff82169050919050565b6000819050919050565b82818337600083830152505050565b60005b83811015611a9c578082015181840152602081019050611a81565b83811115611aab576000848401525b50505050565b6000601f19601f8301169050919050565b611acb81611a65565b8114611ad657600080fd5b5056fea365627a7a7231582019054d4be70c9d117ac10d5b1c29a655c50a0922511299d18c1e8044913b41126c6578706572696d656e74616cf564736f6c63430005100040",
  "source": "pragma solidity ^0.5.16;\npragma experimental ABIEncoderV2;\n\ncontract Kyc {\n    mapping(uint256 => string) public users;\n    mapping(uint256 => string) public companies;\n    uint256 public userCount = 0;\n    uint256 public companyCount = 0;\n    address public owner;\n\n    constructor() public {\n        owner = msg.sender;\n    }\n\n    modifier onlyOwner() {\n        require(owner == msg.sender, 'sender is not a owner');\n        _;\n    }\n\n    function incrementUserCount() internal {\n        userCount += 1;\n    }\n\n    function incrementCompanyCount() internal {\n        companyCount += 1;\n    }\n\n    function resetUser(uint256 _id) public onlyOwner {\n        users[_id] = '0';\n    }\n\n    function resetCompany(uint256 _id) public onlyOwner {\n        companies[_id] = '0';\n    }\n\n    function burnUser(uint256 _id) public onlyOwner {\n        users[_id] = \"0\";\n    }\n\n    function burnCompany(uint256 _id) public onlyOwner {\n        companies[_id] = \"0\";\n    }\n\n    function getUser(uint256 _id) public onlyOwner view returns (string memory) {\n        return users[_id];\n    }\n\n    function getCompany(uint256 _id) public onlyOwner view returns (string memory) {\n        return companies[_id];\n    }\n\n    function verifyUser(uint _id, string memory _hashHex) public view returns (bool) {\n       return keccak256(abi.encodePacked(users[_id])) == keccak256(abi.encodePacked(_hashHex));\n    }\n\n    function verifyCompany(uint _id, string memory _hashHex) public view returns (bool) {\n       return keccak256(abi.encodePacked(companies[_id])) == keccak256(abi.encodePacked(_hashHex));\n    }\n\n    function totalUserCount() public onlyOwner view returns (uint256) {\n        return userCount;\n    }\n\n    function totalCompanyCount() public onlyOwner view returns (uint256) {\n        return companyCount;\n    }\n\n    function getTotalUser(uint256[] memory _ids) public onlyOwner view returns (string [] memory) {\n        string [] memory _users = new string [] (_ids.length);\n        for (uint256 i = 0; i < _ids.length; i++) {\n            _users[i] = users[_ids[i]];\n        }\n        return _users;\n    }\n\n    function getTotalCompany(uint256[] memory _ids) public view returns (string[] memory) {\n        string [] memory _companies = new string [] (_ids.length);\n        for (uint256 i = 0; i < _ids.length; i++) {\n            _companies[i] = companies[_ids[i]];\n        }\n        return _companies;\n    }\n\n    function validateUser(uint256 _id, string memory _hashValue) public onlyOwner {\n        users[_id] = _hashValue;\n        incrementUserCount();\n    }\n\n    function validateCompany(uint256 _id, string memory _hashValue) public onlyOwner {\n        require(owner == msg.sender, \"required contract owner\");\n        companies[_id] = _hashValue;\n        incrementCompanyCount();\n    }\n}\n",
  "sourcePath": "/Users/timcheng/personal/fyp/smart-ticket-api/src/admin/client/src/smart-contract/contracts/Kyc.sol",
  "compiler": {
    "name": "solc",
    "version": "0.5.16+commit.9c3226ce.Emscripten.clang"
  },
  "schemaVersion": "3.3.2",
  "updatedAt": "2021-03-29T17:04:34.780Z",
  "devdoc": {
    "methods": {}
  },
  "userdoc": {
    "methods": {}
  }
}