{
  "contractName": "Kyc",
  "abi": [
    {
      "inputs": [],
      "payable": false,
      "stateMutability": "nonpayable",
      "type": "constructor"
    },
    {
      "constant": true,
      "inputs": [
        {
          "internalType": "uint256",
          "name": "",
          "type": "uint256"
        }
      ],
      "name": "companies",
      "outputs": [
        {
          "internalType": "string",
          "name": "",
          "type": "string"
        }
      ],
      "payable": false,
      "stateMutability": "view",
      "type": "function"
    },
    {
      "constant": true,
      "inputs": [],
      "name": "companyCount",
      "outputs": [
        {
          "internalType": "uint256",
          "name": "",
          "type": "uint256"
        }
      ],
      "payable": false,
      "stateMutability": "view",
      "type": "function"
    },
    {
      "constant": true,
      "inputs": [],
      "name": "owner",
      "outputs": [
        {
          "internalType": "address",
          "name": "",
          "type": "address"
        }
      ],
      "payable": false,
      "stateMutability": "view",
      "type": "function"
    },
    {
      "constant": true,
      "inputs": [],
      "name": "userCount",
      "outputs": [
        {
          "internalType": "uint256",
          "name": "",
          "type": "uint256"
        }
      ],
      "payable": false,
      "stateMutability": "view",
      "type": "function"
    },
    {
      "constant": true,
      "inputs": [
        {
          "internalType": "uint256",
          "name": "",
          "type": "uint256"
        }
      ],
      "name": "users",
      "outputs": [
        {
          "internalType": "string",
          "name": "",
          "type": "string"
        }
      ],
      "payable": false,
      "stateMutability": "view",
      "type": "function"
    },
    {
      "constant": false,
      "inputs": [
        {
          "internalType": "uint256",
          "name": "_id",
          "type": "uint256"
        },
        {
          "internalType": "string",
          "name": "_hashValue",
          "type": "string"
        }
      ],
      "name": "renewUser",
      "outputs": [],
      "payable": false,
      "stateMutability": "nonpayable",
      "type": "function"
    },
    {
      "constant": false,
      "inputs": [
        {
          "internalType": "uint256",
          "name": "_id",
          "type": "uint256"
        },
        {
          "internalType": "string",
          "name": "_hashValue",
          "type": "string"
        }
      ],
      "name": "renewCompany",
      "outputs": [],
      "payable": false,
      "stateMutability": "nonpayable",
      "type": "function"
    },
    {
      "constant": false,
      "inputs": [
        {
          "internalType": "uint256",
          "name": "_id",
          "type": "uint256"
        }
      ],
      "name": "burnUser",
      "outputs": [],
      "payable": false,
      "stateMutability": "nonpayable",
      "type": "function"
    },
    {
      "constant": false,
      "inputs": [
        {
          "internalType": "uint256",
          "name": "_id",
          "type": "uint256"
        }
      ],
      "name": "burnCompany",
      "outputs": [],
      "payable": false,
      "stateMutability": "nonpayable",
      "type": "function"
    },
    {
      "constant": true,
      "inputs": [
        {
          "internalType": "uint256",
          "name": "_id",
          "type": "uint256"
        }
      ],
      "name": "getUser",
      "outputs": [
        {
          "internalType": "string",
          "name": "",
          "type": "string"
        }
      ],
      "payable": false,
      "stateMutability": "view",
      "type": "function"
    },
    {
      "constant": true,
      "inputs": [
        {
          "internalType": "uint256",
          "name": "_id",
          "type": "uint256"
        }
      ],
      "name": "getCompany",
      "outputs": [
        {
          "internalType": "string",
          "name": "",
          "type": "string"
        }
      ],
      "payable": false,
      "stateMutability": "view",
      "type": "function"
    },
    {
      "constant": true,
      "inputs": [
        {
          "internalType": "uint256",
          "name": "_id",
          "type": "uint256"
        },
        {
          "internalType": "string",
          "name": "_hashHex",
          "type": "string"
        }
      ],
      "name": "verifyUser",
      "outputs": [
        {
          "internalType": "bool",
          "name": "",
          "type": "bool"
        }
      ],
      "payable": false,
      "stateMutability": "view",
      "type": "function"
    },
    {
      "constant": true,
      "inputs": [
        {
          "internalType": "uint256",
          "name": "_id",
          "type": "uint256"
        },
        {
          "internalType": "string",
          "name": "_hashHex",
          "type": "string"
        }
      ],
      "name": "verifyCompany",
      "outputs": [
        {
          "internalType": "bool",
          "name": "",
          "type": "bool"
        }
      ],
      "payable": false,
      "stateMutability": "view",
      "type": "function"
    },
    {
      "constant": true,
      "inputs": [],
      "name": "totalUserCount",
      "outputs": [
        {
          "internalType": "uint256",
          "name": "",
          "type": "uint256"
        }
      ],
      "payable": false,
      "stateMutability": "view",
      "type": "function"
    },
    {
      "constant": true,
      "inputs": [],
      "name": "totalCompanyCount",
      "outputs": [
        {
          "internalType": "uint256",
          "name": "",
          "type": "uint256"
        }
      ],
      "payable": false,
      "stateMutability": "view",
      "type": "function"
    },
    {
      "constant": true,
      "inputs": [
        {
          "internalType": "uint256[]",
          "name": "_ids",
          "type": "uint256[]"
        }
      ],
      "name": "getTotalUser",
      "outputs": [
        {
          "internalType": "string[]",
          "name": "",
          "type": "string[]"
        }
      ],
      "payable": false,
      "stateMutability": "view",
      "type": "function"
    },
    {
      "constant": true,
      "inputs": [
        {
          "internalType": "uint256[]",
          "name": "_ids",
          "type": "uint256[]"
        }
      ],
      "name": "getTotalCompany",
      "outputs": [
        {
          "internalType": "string[]",
          "name": "",
          "type": "string[]"
        }
      ],
      "payable": false,
      "stateMutability": "view",
      "type": "function"
    },
    {
      "constant": false,
      "inputs": [
        {
          "internalType": "uint256",
          "name": "_id",
          "type": "uint256"
        },
        {
          "internalType": "string",
          "name": "_hashValue",
          "type": "string"
        }
      ],
      "name": "validateUser",
      "outputs": [],
      "payable": false,
      "stateMutability": "nonpayable",
      "type": "function"
    },
    {
      "constant": false,
      "inputs": [
        {
          "internalType": "uint256",
          "name": "_id",
          "type": "uint256"
        },
        {
          "internalType": "string",
          "name": "_hashValue",
          "type": "string"
        }
      ],
      "name": "validateCompany",
      "outputs": [],
      "payable": false,
      "stateMutability": "nonpayable",
      "type": "function"
    }
  ],
  "bytecode": "0x60806040526000600255600060035534801561001a57600080fd5b5033600460006101000a81548173ffffffffffffffffffffffffffffffffffffffff021916908373ffffffffffffffffffffffffffffffffffffffff1602179055506119c48061006b6000396000f3fe608060405234801561001057600080fd5b50600436106101215760003560e01c80635fafb3b6116100ad5780639d714961116100715780639d7149611461032e578063b0467deb1461034a578063c35e88ef1461037a578063dafc664b14610398578063fb360feb146103c857610121565b80635fafb3b61461028a5780636f3c178e146102ba578063807e6c9a146102d65780638da5cb5b146102f25780638e75dd471461031057610121565b80632813d19d116100f45780632813d19d146101ac578063365b98b2146101dc57806342ef39a31461020c5780634bb86af01461023c57806357d139171461025a57610121565b806307973ccf146101265780631112bdf21461014457806315600af91461017457806326f9cb7f14610190575b600080fd5b61012e6103e4565b60405161013b91906117a2565b60405180910390f35b61015e60048036036101599190810190611404565b6103ea565b60405161016b9190611723565b60405180910390f35b61018e60048036036101899190810190611404565b610454565b005b6101aa60048036036101a59190810190611404565b61050f565b005b6101c660048036036101c191908101906113db565b6105cb565b6040516101d3919061173e565b60405180910390f35b6101f660048036036101f191908101906113db565b61067b565b604051610203919061173e565b60405180910390f35b6102266004803603610221919081019061139a565b61072b565b6040516102339190611701565b60405180910390f35b610244610862565b60405161025191906117a2565b60405180910390f35b610274600480360361026f91908101906113db565b6108fc565b6040516102819190611760565b60405180910390f35b6102a4600480360361029f919081019061139a565b610a41565b6040516102b19190611701565b60405180910390f35b6102d460048036036102cf91908101906113db565b610c08565b005b6102f060048036036102eb91908101906113db565b610cf8565b005b6102fa610de7565b60405161030791906116e6565b60405180910390f35b610318610e0d565b60405161032591906117a2565b60405180910390f35b61034860048036036103439190810190611404565b610e13565b005b610364600480360361035f91908101906113db565b610ed6565b6040516103719190611760565b60405180910390f35b61038261101a565b60405161038f91906117a2565b60405180910390f35b6103b260048036036103ad9190810190611404565b6110b4565b6040516103bf9190611723565b60405180910390f35b6103e260048036036103dd9190810190611404565b61111f565b005b60025481565b6000816040516020016103fd91906116b8565b6040516020818303038152906040528051906020012060008085815260200190815260200160002060405160200161043591906116cf565b6040516020818303038152906040528051906020012014905092915050565b3373ffffffffffffffffffffffffffffffffffffffff16600460009054906101000a900473ffffffffffffffffffffffffffffffffffffffff1673ffffffffffffffffffffffffffffffffffffffff16146104e4576040517f08c379a00000000000000000000000000000000000000000000000000000000081526004016104db90611782565b60405180910390fd5b80600080848152602001908152602001600020908051906020019061050a929190611209565b505050565b3373ffffffffffffffffffffffffffffffffffffffff16600460009054906101000a900473ffffffffffffffffffffffffffffffffffffffff1673ffffffffffffffffffffffffffffffffffffffff161461059f576040517f08c379a000000000000000000000000000000000000000000000000000000000815260040161059690611782565b60405180910390fd5b806001600084815260200190815260200160002090805190602001906105c6929190611209565b505050565b60016020528060005260406000206000915090508054600181600116156101000203166002900480601f0160208091040260200160405190810160405280929190818152602001828054600181600116156101000203166002900480156106735780601f1061064857610100808354040283529160200191610673565b820191906000526020600020905b81548152906001019060200180831161065657829003601f168201915b505050505081565b60006020528060005260406000206000915090508054600181600116156101000203166002900480601f0160208091040260200160405190810160405280929190818152602001828054600181600116156101000203166002900480156107235780601f106106f857610100808354040283529160200191610723565b820191906000526020600020905b81548152906001019060200180831161070657829003601f168201915b505050505081565b606080825160405190808252806020026020018201604052801561076357816020015b606081526020019060019003908161074e5790505b50905060008090505b8351811015610858576001600085838151811061078557fe5b602002602001015181526020019081526020016000208054600181600116156101000203166002900480601f01602080910402602001604051908101604052809291908181526020018280546001816001161561010002031660029004801561082f5780601f106108045761010080835404028352916020019161082f565b820191906000526020600020905b81548152906001019060200180831161081257829003601f168201915b505050505082828151811061084057fe5b6020026020010181905250808060010191505061076c565b5080915050919050565b60003373ffffffffffffffffffffffffffffffffffffffff16600460009054906101000a900473ffffffffffffffffffffffffffffffffffffffff1673ffffffffffffffffffffffffffffffffffffffff16146108f4576040517f08c379a00000000000000000000000000000000000000000000000000000000081526004016108eb90611782565b60405180910390fd5b600254905090565b60603373ffffffffffffffffffffffffffffffffffffffff16600460009054906101000a900473ffffffffffffffffffffffffffffffffffffffff1673ffffffffffffffffffffffffffffffffffffffff161461098e576040517f08c379a000000000000000000000000000000000000000000000000000000000815260040161098590611782565b60405180910390fd5b600160008381526020019081526020016000208054600181600116156101000203166002900480601f016020809104026020016040519081016040528092919081815260200182805460018160011615610100020316600290048015610a355780601f10610a0a57610100808354040283529160200191610a35565b820191906000526020600020905b815481529060010190602001808311610a1857829003601f168201915b50505050509050919050565b60603373ffffffffffffffffffffffffffffffffffffffff16600460009054906101000a900473ffffffffffffffffffffffffffffffffffffffff1673ffffffffffffffffffffffffffffffffffffffff1614610ad3576040517f08c379a0000000000000000000000000000000000000000000000000000000008152600401610aca90611782565b60405180910390fd5b60608251604051908082528060200260200182016040528015610b0a57816020015b6060815260200190600190039081610af55790505b50905060008090505b8351811015610bfe57600080858381518110610b2b57fe5b602002602001015181526020019081526020016000208054600181600116156101000203166002900480601f016020809104026020016040519081016040528092919081815260200182805460018160011615610100020316600290048015610bd55780601f10610baa57610100808354040283529160200191610bd5565b820191906000526020600020905b815481529060010190602001808311610bb857829003601f168201915b5050505050828281518110610be657fe5b60200260200101819052508080600101915050610b13565b5080915050919050565b3373ffffffffffffffffffffffffffffffffffffffff16600460009054906101000a900473ffffffffffffffffffffffffffffffffffffffff1673ffffffffffffffffffffffffffffffffffffffff1614610c98576040517f08c379a0000000000000000000000000000000000000000000000000000000008152600401610c8f90611782565b60405180910390fd5b6040518060400160405280600181526020017f3000000000000000000000000000000000000000000000000000000000000000815250600160008381526020019081526020016000209080519060200190610cf4929190611209565b5050565b3373ffffffffffffffffffffffffffffffffffffffff16600460009054906101000a900473ffffffffffffffffffffffffffffffffffffffff1673ffffffffffffffffffffffffffffffffffffffff1614610d88576040517f08c379a0000000000000000000000000000000000000000000000000000000008152600401610d7f90611782565b60405180910390fd5b6040518060400160405280600181526020017f30000000000000000000000000000000000000000000000000000000000000008152506000808381526020019081526020016000209080519060200190610de3929190611209565b5050565b600460009054906101000a900473ffffffffffffffffffffffffffffffffffffffff1681565b60035481565b3373ffffffffffffffffffffffffffffffffffffffff16600460009054906101000a900473ffffffffffffffffffffffffffffffffffffffff1673ffffffffffffffffffffffffffffffffffffffff1614610ea3576040517f08c379a0000000000000000000000000000000000000000000000000000000008152600401610e9a90611782565b60405180910390fd5b806000808481526020019081526020016000209080519060200190610ec9929190611209565b50610ed26111e3565b5050565b60603373ffffffffffffffffffffffffffffffffffffffff16600460009054906101000a900473ffffffffffffffffffffffffffffffffffffffff1673ffffffffffffffffffffffffffffffffffffffff1614610f68576040517f08c379a0000000000000000000000000000000000000000000000000000000008152600401610f5f90611782565b60405180910390fd5b6000808381526020019081526020016000208054600181600116156101000203166002900480601f01602080910402602001604051908101604052809291908181526020018280546001816001161561010002031660029004801561100e5780601f10610fe35761010080835404028352916020019161100e565b820191906000526020600020905b815481529060010190602001808311610ff157829003601f168201915b50505050509050919050565b60003373ffffffffffffffffffffffffffffffffffffffff16600460009054906101000a900473ffffffffffffffffffffffffffffffffffffffff1673ffffffffffffffffffffffffffffffffffffffff16146110ac576040517f08c379a00000000000000000000000000000000000000000000000000000000081526004016110a390611782565b60405180910390fd5b600354905090565b6000816040516020016110c791906116b8565b604051602081830303815290604052805190602001206001600085815260200190815260200160002060405160200161110091906116cf565b6040516020818303038152906040528051906020012014905092915050565b3373ffffffffffffffffffffffffffffffffffffffff16600460009054906101000a900473ffffffffffffffffffffffffffffffffffffffff1673ffffffffffffffffffffffffffffffffffffffff16146111af576040517f08c379a00000000000000000000000000000000000000000000000000000000081526004016111a690611782565b60405180910390fd5b806001600084815260200190815260200160002090805190602001906111d6929190611209565b506111df6111f6565b5050565b6001600260008282540192505081905550565b6001600360008282540192505081905550565b828054600181600116156101000203166002900490600052602060002090601f016020900481019282601f1061124a57805160ff1916838001178555611278565b82800160010185558215611278579182015b8281111561127757825182559160200191906001019061125c565b5b5090506112859190611289565b5090565b6112ab91905b808211156112a757600081600090555060010161128f565b5090565b90565b600082601f8301126112bf57600080fd5b81356112d26112cd826117ea565b6117bd565b915081818352602084019350602081019050838560208402820111156112f757600080fd5b60005b83811015611327578161130d8882611385565b8452602084019350602083019250506001810190506112fa565b5050505092915050565b600082601f83011261134257600080fd5b813561135561135082611812565b6117bd565b9150808252602083016020830185838301111561137157600080fd5b61137c838284611917565b50505092915050565b6000813590506113948161196a565b92915050565b6000602082840312156113ac57600080fd5b600082013567ffffffffffffffff8111156113c657600080fd5b6113d2848285016112ae565b91505092915050565b6000602082840312156113ed57600080fd5b60006113fb84828501611385565b91505092915050565b6000806040838503121561141757600080fd5b600061142585828601611385565b925050602083013567ffffffffffffffff81111561144257600080fd5b61144e85828601611331565b9150509250929050565b60006114648383611569565b905092915050565b611475816118cf565b82525050565b600061148682611863565b6114908185611891565b9350836020820285016114a28561183e565b8060005b858110156114de57848403895281516114bf8582611458565b94506114ca83611884565b925060208a019950506001810190506114a6565b50829750879550505050505092915050565b6114f9816118e1565b82525050565b600061150a82611879565b61151481856118b3565b9350611524818560208601611926565b61152d81611959565b840191505092915050565b600061154382611879565b61154d81856118c4565b935061155d818560208601611926565b80840191505092915050565b60006115748261186e565b61157e81856118a2565b935061158e818560208601611926565b61159781611959565b840191505092915050565b60006115ad8261186e565b6115b781856118b3565b93506115c7818560208601611926565b6115d081611959565b840191505092915050565b6000815460018116600081146115f8576001811461161d57611661565b607f600283041661160981876118c4565b955060ff1983168652808601935050611661565b6002820461162b81876118c4565b95506116368561184e565b60005b8281101561165857815481890152600182019150602081019050611639565b82880195505050505b505092915050565b60006116766015836118b3565b91507f73656e646572206973206e6f742061206f776e657200000000000000000000006000830152602082019050919050565b6116b28161190d565b82525050565b60006116c48284611538565b915081905092915050565b60006116db82846115db565b915081905092915050565b60006020820190506116fb600083018461146c565b92915050565b6000602082019050818103600083015261171b818461147b565b905092915050565b600060208201905061173860008301846114f0565b92915050565b6000602082019050818103600083015261175881846115a2565b905092915050565b6000602082019050818103600083015261177a81846114ff565b905092915050565b6000602082019050818103600083015261179b81611669565b9050919050565b60006020820190506117b760008301846116a9565b92915050565b6000604051905081810181811067ffffffffffffffff821117156117e057600080fd5b8060405250919050565b600067ffffffffffffffff82111561180157600080fd5b602082029050602081019050919050565b600067ffffffffffffffff82111561182957600080fd5b601f19601f8301169050602081019050919050565b6000819050602082019050919050565b60008190508160005260206000209050919050565b600081519050919050565b600081519050919050565b600081519050919050565b6000602082019050919050565b600082825260208201905092915050565b600082825260208201905092915050565b600082825260208201905092915050565b600081905092915050565b60006118da826118ed565b9050919050565b60008115159050919050565b600073ffffffffffffffffffffffffffffffffffffffff82169050919050565b6000819050919050565b82818337600083830152505050565b60005b83811015611944578082015181840152602081019050611929565b83811115611953576000848401525b50505050565b6000601f19601f8301169050919050565b6119738161190d565b811461197e57600080fd5b5056fea365627a7a72315820276ab15ef7b7eee92d21003b8f68850f55e93a741af3cdeea6293012c3730a336c6578706572696d656e74616cf564736f6c63430005100040",
  "source": "pragma solidity ^0.5.16;\npragma experimental ABIEncoderV2;\n\ncontract Kyc {\n    mapping(uint256 => string) public users;\n    mapping(uint256 => string) public companies;\n    uint256 public userCount = 0;\n    uint256 public companyCount = 0;\n    address public owner;\n\n    constructor() public {\n        owner = msg.sender;\n    }\n\n    modifier onlyOwner() {\n        require(owner == msg.sender, 'sender is not a owner');\n        _;\n    }\n\n    function incrementUserCount() internal {\n        userCount += 1;\n    }\n\n    function incrementCompanyCount() internal {\n        companyCount += 1;\n    }\n\n    function renewUser(uint256 _id, string memory _hashValue) public onlyOwner {\n        users[_id] = _hashValue;\n    }\n\n    function renewCompany(uint256 _id, string memory _hashValue) public onlyOwner {\n        companies[_id] = _hashValue;\n    }\n\n    function burnUser(uint256 _id) public onlyOwner {\n        users[_id] = \"0\";\n    }\n\n    function burnCompany(uint256 _id) public onlyOwner {\n        companies[_id] = \"0\";\n    }\n\n    function getUser(uint256 _id) public onlyOwner view returns (string memory) {\n        return users[_id];\n    }\n\n    function getCompany(uint256 _id) public onlyOwner view returns (string memory) {\n        return companies[_id];\n    }\n\n    function verifyUser(uint _id, string memory _hashHex) public view returns (bool) {\n       return keccak256(abi.encodePacked(users[_id])) == keccak256(abi.encodePacked(_hashHex));\n    }\n\n    function verifyCompany(uint _id, string memory _hashHex) public view returns (bool) {\n       return keccak256(abi.encodePacked(companies[_id])) == keccak256(abi.encodePacked(_hashHex));\n    }\n\n    function totalUserCount() public onlyOwner view returns (uint256) {\n        return userCount;\n    }\n\n    function totalCompanyCount() public onlyOwner view returns (uint256) {\n        return companyCount;\n    }\n\n    function getTotalUser(uint256[] memory _ids) public onlyOwner view returns (string [] memory) {\n        string [] memory _users = new string [] (_ids.length);\n        for (uint256 i = 0; i < _ids.length; i++) {\n            _users[i] = users[_ids[i]];\n        }\n        return _users;\n    }\n\n    function getTotalCompany(uint256[] memory _ids) public view returns (string[] memory) {\n        string [] memory _companies = new string [] (_ids.length);\n        for (uint256 i = 0; i < _ids.length; i++) {\n            _companies[i] = companies[_ids[i]];\n        }\n        return _companies;\n    }\n\n    function validateUser(uint256 _id, string memory _hashValue) public onlyOwner {\n        users[_id] = _hashValue;\n        incrementUserCount();\n    }\n\n    function validateCompany(uint256 _id, string memory _hashValue) public onlyOwner {\n        companies[_id] = _hashValue;\n        incrementCompanyCount();\n    }\n}\n",
  "sourcePath": "/Users/timcheng/personal/fyp/smart-ticket-api/src/admin/client/src/smart-contract/contracts/Kyc.sol",
  "compiler": {
    "name": "solc",
    "version": "0.5.16+commit.9c3226ce.Emscripten.clang"
  },
  "schemaVersion": "3.3.2",
  "updatedAt": "2021-03-30T08:05:58.352Z",
  "networkType": "ethereum",
  "devdoc": {
    "methods": {}
  },
  "userdoc": {
    "methods": {}
  }
}