{
  "contractName": "Ticket",
  "abi": [
    {
      "inputs": [],
      "payable": false,
      "stateMutability": "nonpayable",
      "type": "constructor"
    },
    {
      "anonymous": false,
      "inputs": [
        {
          "indexed": true,
          "internalType": "address",
          "name": "owner",
          "type": "address"
        },
        {
          "indexed": true,
          "internalType": "address",
          "name": "approved",
          "type": "address"
        },
        {
          "indexed": true,
          "internalType": "uint256",
          "name": "tokenId",
          "type": "uint256"
        }
      ],
      "name": "Approval",
      "type": "event"
    },
    {
      "anonymous": false,
      "inputs": [
        {
          "indexed": true,
          "internalType": "address",
          "name": "owner",
          "type": "address"
        },
        {
          "indexed": true,
          "internalType": "address",
          "name": "operator",
          "type": "address"
        },
        {
          "indexed": false,
          "internalType": "bool",
          "name": "approved",
          "type": "bool"
        }
      ],
      "name": "ApprovalForAll",
      "type": "event"
    },
    {
      "anonymous": false,
      "inputs": [
        {
          "indexed": true,
          "internalType": "address",
          "name": "from",
          "type": "address"
        },
        {
          "indexed": true,
          "internalType": "address",
          "name": "to",
          "type": "address"
        },
        {
          "indexed": true,
          "internalType": "uint256",
          "name": "tokenId",
          "type": "uint256"
        }
      ],
      "name": "Transfer",
      "type": "event"
    },
    {
      "constant": false,
      "inputs": [
        {
          "internalType": "address",
          "name": "_approve",
          "type": "address"
        }
      ],
      "name": "addApproval",
      "outputs": [],
      "payable": false,
      "stateMutability": "nonpayable",
      "type": "function"
    },
    {
      "constant": false,
      "inputs": [
        {
          "internalType": "address",
          "name": "to",
          "type": "address"
        },
        {
          "internalType": "uint256",
          "name": "tokenId",
          "type": "uint256"
        }
      ],
      "name": "approve",
      "outputs": [],
      "payable": false,
      "stateMutability": "nonpayable",
      "type": "function"
    },
    {
      "constant": true,
      "inputs": [],
      "name": "approveId",
      "outputs": [
        {
          "internalType": "uint256",
          "name": "",
          "type": "uint256"
        }
      ],
      "payable": false,
      "stateMutability": "view",
      "type": "function"
    },
    {
      "constant": true,
      "inputs": [
        {
          "internalType": "address",
          "name": "",
          "type": "address"
        }
      ],
      "name": "approves",
      "outputs": [
        {
          "internalType": "bool",
          "name": "",
          "type": "bool"
        }
      ],
      "payable": false,
      "stateMutability": "view",
      "type": "function"
    },
    {
      "constant": true,
      "inputs": [
        {
          "internalType": "address",
          "name": "owner",
          "type": "address"
        }
      ],
      "name": "balanceOf",
      "outputs": [
        {
          "internalType": "uint256",
          "name": "",
          "type": "uint256"
        }
      ],
      "payable": false,
      "stateMutability": "view",
      "type": "function"
    },
    {
      "constant": false,
      "inputs": [
        {
          "internalType": "address",
          "name": "_owner",
          "type": "address"
        },
        {
          "internalType": "string",
          "name": "_detail",
          "type": "string"
        }
      ],
      "name": "createEvent",
      "outputs": [],
      "payable": false,
      "stateMutability": "nonpayable",
      "type": "function"
    },
    {
      "constant": true,
      "inputs": [],
      "name": "eventContractOwner",
      "outputs": [
        {
          "internalType": "address",
          "name": "",
          "type": "address"
        }
      ],
      "payable": false,
      "stateMutability": "view",
      "type": "function"
    },
    {
      "constant": true,
      "inputs": [],
      "name": "eventId",
      "outputs": [
        {
          "internalType": "uint256",
          "name": "",
          "type": "uint256"
        }
      ],
      "payable": false,
      "stateMutability": "view",
      "type": "function"
    },
    {
      "constant": true,
      "inputs": [
        {
          "internalType": "uint256",
          "name": "",
          "type": "uint256"
        }
      ],
      "name": "eventOwner",
      "outputs": [
        {
          "internalType": "address",
          "name": "",
          "type": "address"
        }
      ],
      "payable": false,
      "stateMutability": "view",
      "type": "function"
    },
    {
      "constant": true,
      "inputs": [
        {
          "internalType": "address",
          "name": "_owner",
          "type": "address"
        }
      ],
      "name": "eventOwnerBalanceOf",
      "outputs": [
        {
          "internalType": "uint256",
          "name": "",
          "type": "uint256"
        }
      ],
      "payable": false,
      "stateMutability": "view",
      "type": "function"
    },
    {
      "constant": true,
      "inputs": [
        {
          "internalType": "uint256",
          "name": "",
          "type": "uint256"
        }
      ],
      "name": "events",
      "outputs": [
        {
          "internalType": "address",
          "name": "owner",
          "type": "address"
        },
        {
          "internalType": "string",
          "name": "detail",
          "type": "string"
        }
      ],
      "payable": false,
      "stateMutability": "view",
      "type": "function"
    },
    {
      "constant": true,
      "inputs": [],
      "name": "getApproveId",
      "outputs": [
        {
          "internalType": "uint256",
          "name": "",
          "type": "uint256"
        }
      ],
      "payable": false,
      "stateMutability": "view",
      "type": "function"
    },
    {
      "constant": true,
      "inputs": [
        {
          "internalType": "uint256",
          "name": "tokenId",
          "type": "uint256"
        }
      ],
      "name": "getApproved",
      "outputs": [
        {
          "internalType": "address",
          "name": "",
          "type": "address"
        }
      ],
      "payable": false,
      "stateMutability": "view",
      "type": "function"
    },
    {
      "constant": true,
      "inputs": [
        {
          "internalType": "uint256",
          "name": "_eventId",
          "type": "uint256"
        }
      ],
      "name": "getEvent",
      "outputs": [
        {
          "internalType": "string",
          "name": "",
          "type": "string"
        }
      ],
      "payable": false,
      "stateMutability": "view",
      "type": "function"
    },
    {
      "constant": true,
      "inputs": [],
      "name": "getEventContractOwner",
      "outputs": [
        {
          "internalType": "address",
          "name": "",
          "type": "address"
        }
      ],
      "payable": false,
      "stateMutability": "view",
      "type": "function"
    },
    {
      "constant": true,
      "inputs": [],
      "name": "getEventId",
      "outputs": [
        {
          "internalType": "uint256",
          "name": "",
          "type": "uint256"
        }
      ],
      "payable": false,
      "stateMutability": "view",
      "type": "function"
    },
    {
      "constant": true,
      "inputs": [
        {
          "internalType": "uint256",
          "name": "_eventId",
          "type": "uint256"
        }
      ],
      "name": "getEventOwner",
      "outputs": [
        {
          "internalType": "address",
          "name": "",
          "type": "address"
        }
      ],
      "payable": false,
      "stateMutability": "view",
      "type": "function"
    },
    {
      "constant": true,
      "inputs": [
        {
          "internalType": "address",
          "name": "_approve",
          "type": "address"
        }
      ],
      "name": "isApproval",
      "outputs": [
        {
          "internalType": "bool",
          "name": "",
          "type": "bool"
        }
      ],
      "payable": false,
      "stateMutability": "view",
      "type": "function"
    },
    {
      "constant": true,
      "inputs": [
        {
          "internalType": "address",
          "name": "owner",
          "type": "address"
        },
        {
          "internalType": "address",
          "name": "operator",
          "type": "address"
        }
      ],
      "name": "isApprovedForAll",
      "outputs": [
        {
          "internalType": "bool",
          "name": "",
          "type": "bool"
        }
      ],
      "payable": false,
      "stateMutability": "view",
      "type": "function"
    },
    {
      "constant": true,
      "inputs": [],
      "name": "name",
      "outputs": [
        {
          "internalType": "string",
          "name": "",
          "type": "string"
        }
      ],
      "payable": false,
      "stateMutability": "view",
      "type": "function"
    },
    {
      "constant": true,
      "inputs": [
        {
          "internalType": "uint256",
          "name": "tokenId",
          "type": "uint256"
        }
      ],
      "name": "ownerOf",
      "outputs": [
        {
          "internalType": "address",
          "name": "",
          "type": "address"
        }
      ],
      "payable": false,
      "stateMutability": "view",
      "type": "function"
    },
    {
      "constant": false,
      "inputs": [
        {
          "internalType": "address",
          "name": "_approve",
          "type": "address"
        }
      ],
      "name": "removeApproval",
      "outputs": [],
      "payable": false,
      "stateMutability": "nonpayable",
      "type": "function"
    },
    {
      "constant": false,
      "inputs": [
        {
          "internalType": "address",
          "name": "from",
          "type": "address"
        },
        {
          "internalType": "address",
          "name": "to",
          "type": "address"
        },
        {
          "internalType": "uint256",
          "name": "tokenId",
          "type": "uint256"
        }
      ],
      "name": "safeTransferFrom",
      "outputs": [],
      "payable": false,
      "stateMutability": "nonpayable",
      "type": "function"
    },
    {
      "constant": false,
      "inputs": [
        {
          "internalType": "address",
          "name": "from",
          "type": "address"
        },
        {
          "internalType": "address",
          "name": "to",
          "type": "address"
        },
        {
          "internalType": "uint256",
          "name": "tokenId",
          "type": "uint256"
        },
        {
          "internalType": "bytes",
          "name": "_data",
          "type": "bytes"
        }
      ],
      "name": "safeTransferFrom",
      "outputs": [],
      "payable": false,
      "stateMutability": "nonpayable",
      "type": "function"
    },
    {
      "constant": false,
      "inputs": [
        {
          "internalType": "address",
          "name": "to",
          "type": "address"
        },
        {
          "internalType": "bool",
          "name": "approved",
          "type": "bool"
        }
      ],
      "name": "setApprovalForAll",
      "outputs": [],
      "payable": false,
      "stateMutability": "nonpayable",
      "type": "function"
    },
    {
      "constant": true,
      "inputs": [
        {
          "internalType": "bytes4",
          "name": "interfaceId",
          "type": "bytes4"
        }
      ],
      "name": "supportsInterface",
      "outputs": [
        {
          "internalType": "bool",
          "name": "",
          "type": "bool"
        }
      ],
      "payable": false,
      "stateMutability": "view",
      "type": "function"
    },
    {
      "constant": true,
      "inputs": [],
      "name": "symbol",
      "outputs": [
        {
          "internalType": "string",
          "name": "",
          "type": "string"
        }
      ],
      "payable": false,
      "stateMutability": "view",
      "type": "function"
    },
    {
      "constant": true,
      "inputs": [],
      "name": "ticketContractOwner",
      "outputs": [
        {
          "internalType": "address",
          "name": "",
          "type": "address"
        }
      ],
      "payable": false,
      "stateMutability": "view",
      "type": "function"
    },
    {
      "constant": true,
      "inputs": [],
      "name": "ticketCount",
      "outputs": [
        {
          "internalType": "uint256",
          "name": "",
          "type": "uint256"
        }
      ],
      "payable": false,
      "stateMutability": "view",
      "type": "function"
    },
    {
      "constant": true,
      "inputs": [
        {
          "internalType": "uint256",
          "name": "",
          "type": "uint256"
        }
      ],
      "name": "tickets",
      "outputs": [
        {
          "internalType": "uint256",
          "name": "eventId",
          "type": "uint256"
        },
        {
          "internalType": "string",
          "name": "ticketDetail",
          "type": "string"
        },
        {
          "internalType": "uint256",
          "name": "ticketId",
          "type": "uint256"
        }
      ],
      "payable": false,
      "stateMutability": "view",
      "type": "function"
    },
    {
      "constant": true,
      "inputs": [
        {
          "internalType": "uint256",
          "name": "index",
          "type": "uint256"
        }
      ],
      "name": "tokenByIndex",
      "outputs": [
        {
          "internalType": "uint256",
          "name": "",
          "type": "uint256"
        }
      ],
      "payable": false,
      "stateMutability": "view",
      "type": "function"
    },
    {
      "constant": true,
      "inputs": [
        {
          "internalType": "address",
          "name": "owner",
          "type": "address"
        },
        {
          "internalType": "uint256",
          "name": "index",
          "type": "uint256"
        }
      ],
      "name": "tokenOfOwnerByIndex",
      "outputs": [
        {
          "internalType": "uint256",
          "name": "",
          "type": "uint256"
        }
      ],
      "payable": false,
      "stateMutability": "view",
      "type": "function"
    },
    {
      "constant": true,
      "inputs": [
        {
          "internalType": "uint256",
          "name": "tokenId",
          "type": "uint256"
        }
      ],
      "name": "tokenURI",
      "outputs": [
        {
          "internalType": "string",
          "name": "",
          "type": "string"
        }
      ],
      "payable": false,
      "stateMutability": "view",
      "type": "function"
    },
    {
      "constant": true,
      "inputs": [],
      "name": "totalSupply",
      "outputs": [
        {
          "internalType": "uint256",
          "name": "",
          "type": "uint256"
        }
      ],
      "payable": false,
      "stateMutability": "view",
      "type": "function"
    },
    {
      "constant": false,
      "inputs": [
        {
          "internalType": "address",
          "name": "from",
          "type": "address"
        },
        {
          "internalType": "address",
          "name": "to",
          "type": "address"
        },
        {
          "internalType": "uint256",
          "name": "tokenId",
          "type": "uint256"
        }
      ],
      "name": "transferFrom",
      "outputs": [],
      "payable": false,
      "stateMutability": "nonpayable",
      "type": "function"
    },
    {
      "constant": true,
      "inputs": [],
      "name": "getTicketCount",
      "outputs": [
        {
          "internalType": "uint256",
          "name": "",
          "type": "uint256"
        }
      ],
      "payable": false,
      "stateMutability": "view",
      "type": "function"
    },
    {
      "constant": false,
      "inputs": [
        {
          "internalType": "string[]",
          "name": "_tickets",
          "type": "string[]"
        }
      ],
      "name": "mint",
      "outputs": [],
      "payable": false,
      "stateMutability": "nonpayable",
      "type": "function"
    },
    {
      "constant": false,
      "inputs": [
        {
          "internalType": "string[]",
          "name": "_tickets",
          "type": "string[]"
        },
        {
          "internalType": "uint256",
          "name": "_eventId",
          "type": "uint256"
        }
      ],
      "name": "mintByEvent",
      "outputs": [],
      "payable": false,
      "stateMutability": "nonpayable",
      "type": "function"
    },
    {
      "constant": false,
      "inputs": [
        {
          "internalType": "address",
          "name": "_from",
          "type": "address"
        },
        {
          "internalType": "address",
          "name": "_to",
          "type": "address"
        },
        {
          "internalType": "uint256[]",
          "name": "_tokenIds",
          "type": "uint256[]"
        }
      ],
      "name": "multiTransferFrom",
      "outputs": [],
      "payable": false,
      "stateMutability": "nonpayable",
      "type": "function"
    }
  ],
  "bytecode": "0x60806040526000600e556000600f5560006014553480156200002057600080fd5b506040518060400160405280600681526020017f5469636b657400000000000000000000000000000000000000000000000000008152506040518060400160405280600381526020017f54434b00000000000000000000000000000000000000000000000000000000008152508181620000a76301ffc9a760e01b620001ad60201b60201c565b620000bf6380ac58cd60e01b620001ad60201b60201c565b620000d763780e9d6360e01b620001ad60201b60201c565b8160099080519060200190620000ef92919062000285565b5080600a90805190602001906200010892919062000285565b5062000121635b5e139f60e01b620001ad60201b60201c565b5050505033601060006101000a81548173ffffffffffffffffffffffffffffffffffffffff021916908373ffffffffffffffffffffffffffffffffffffffff16021790555033601560006101000a81548173ffffffffffffffffffffffffffffffffffffffff021916908373ffffffffffffffffffffffffffffffffffffffff160217905550620003a9565b63ffffffff60e01b817bffffffffffffffffffffffffffffffffffffffffffffffffffffffff1916141562000219576040517f08c379a0000000000000000000000000000000000000000000000000000000008152600401620002109062000376565b60405180910390fd5b6001600080837bffffffffffffffffffffffffffffffffffffffffffffffffffffffff19167bffffffffffffffffffffffffffffffffffffffffffffffffffffffff1916815260200190815260200160002060006101000a81548160ff02191690831515021790555050565b828054600181600116156101000203166002900490600052602060002090601f016020900481019282601f10620002c857805160ff1916838001178555620002f9565b82800160010185558215620002f9579182015b82811115620002f8578251825591602001919060010190620002db565b5b5090506200030891906200030c565b5090565b6200033191905b808211156200032d57600081600090555060010162000313565b5090565b90565b600062000343601c8362000398565b91507f4552433136353a20696e76616c696420696e74657266616365206964000000006000830152602082019050919050565b60006020820190508181036000830152620003918162000334565b9050919050565b600082825260208201905092915050565b613b5c80620003b96000396000f3fe608060405234801561001057600080fd5b506004361061023d5760003560e01c8063652d47251161013b578063b88d4fde116100b8578063d37f4acf1161007c578063d37f4acf14610705578063e985e9c514610735578063f39346f314610765578063f487c60214610795578063fe210f69146107b15761023d565b8063b88d4fde14610661578063c13cf59a1461067d578063c87b56dd1461069b578063cb44211e146106cb578063cfbd900f146106e75761023d565b80638a62462e116100ff5780638a62462e146105bd57806395d89b41146105db578063a22cb465146105f9578063b4af93ad14610615578063b4d59d27146106315761023d565b8063652d4725146105075780636d1884e01461052357806370a082311461055357806379a9e8eb146105835780637cab5e8c146105a15761023d565b806323b872dd116101c95780634a17bbde1161018d5780634a17bbde1461043b5780634f6ccce71461045957806350b44712146104895780635768f271146104bb5780636352211e146104d75761023d565b806323b872dd146103855780632f745c59146103a1578063323c635a146103d1578063331b2763146103ef57806342842e0e1461041f5761023d565b8063095ea7b311610210578063095ea7b3146102de5780630b791430146102fa57806318160ddd1461032b57806319717d541461034957806321c63a47146103675761023d565b806301ffc9a71461024257806306fdde0314610272578063081812fc14610290578063089cdd0c146102c0575b600080fd5b61025c60048036036102579190810190612cb9565b6107e1565b6040516102699190613586565b60405180910390f35b61027a610848565b60405161028791906135a1565b60405180910390f35b6102aa60048036036102a59190810190612d0b565b6108ea565b6040516102b791906134ef565b60405180910390f35b6102c861096f565b6040516102d59190613823565b60405180910390f35b6102f860048036036102f39190810190612be8565b610975565b005b610314600480360361030f9190810190612d0b565b610b22565b604051610322929190613556565b60405180910390f35b610333610bfe565b6040516103409190613823565b60405180910390f35b610351610c0b565b60405161035e9190613823565b60405180910390f35b61036f610c11565b60405161037c9190613823565b60405180910390f35b61039f600480360361039a9190810190612a8e565b610c1b565b005b6103bb60048036036103b69190810190612be8565b610c74565b6040516103c89190613823565b60405180910390f35b6103d9610d1d565b6040516103e69190613823565b60405180910390f35b610409600480360361040491908101906129c2565b610d27565b6040516104169190613586565b60405180910390f35b61043960048036036104349190810190612a8e565b610d7d565b005b610443610d9d565b6040516104509190613823565b60405180910390f35b610473600480360361046e9190810190612d0b565b610da7565b6040516104809190613823565b60405180910390f35b6104a3600480360361049e9190810190612d0b565b610e11565b6040516104b29392919061383e565b60405180910390f35b6104d560048036036104d09190810190612c24565b610ed3565b005b6104f160048036036104ec9190810190612d0b565b610f85565b6040516104fe91906134ef565b60405180910390f35b610521600480360361051c9190810190612b94565b611037565b005b61053d60048036036105389190810190612d0b565b611185565b60405161054a91906135a1565b60405180910390f35b61056d600480360361056891908101906129c2565b61123d565b60405161057a9190613823565b60405180910390f35b61058b6112fc565b60405161059891906134ef565b60405180910390f35b6105bb60048036036105b691908101906129c2565b611322565b005b6105c561140d565b6040516105d291906134ef565b60405180910390f35b6105e3611437565b6040516105f091906135a1565b60405180910390f35b610613600480360361060e9190810190612b58565b6114d9565b005b61062f600480360361062a9190810190612c65565b611645565b005b61064b60048036036106469190810190612d0b565b6116f3565b60405161065891906134ef565b60405180910390f35b61067b60048036036106769190810190612add565b611726565b005b610685611782565b60405161069291906134ef565b60405180910390f35b6106b560048036036106b09190810190612d0b565b6117a8565b6040516106c291906135a1565b60405180910390f35b6106e560048036036106e091908101906129c2565b6118a5565b005b6106ef611998565b6040516106fc9190613823565b60405180910390f35b61071f600480360361071a91908101906129c2565b61199e565b60405161072c9190613586565b60405180910390f35b61074f600480360361074a91908101906129eb565b6119be565b60405161075c9190613586565b60405180910390f35b61077f600480360361077a91908101906129c2565b611a52565b60405161078c9190613823565b60405180910390f35b6107af60048036036107aa9190810190612a27565b611b33565b005b6107cb60048036036107c69190810190612d0b565b611b73565b6040516107d891906134ef565b60405180910390f35b6000806000837bffffffffffffffffffffffffffffffffffffffffffffffffffffffff19167bffffffffffffffffffffffffffffffffffffffffffffffffffffffff1916815260200190815260200160002060009054906101000a900460ff169050919050565b606060098054600181600116156101000203166002900480601f0160208091040260200160405190810160405280929190818152602001828054600181600116156101000203166002900480156108e05780601f106108b5576101008083540402835291602001916108e0565b820191906000526020600020905b8154815290600101906020018083116108c357829003601f168201915b5050505050905090565b60006108f582611bb0565b610934576040517f08c379a000000000000000000000000000000000000000000000000000000000815260040161092b90613743565b60405180910390fd5b6002600083815260200190815260200160002060009054906101000a900473ffffffffffffffffffffffffffffffffffffffff169050919050565b600e5481565b600061098082610f85565b90508073ffffffffffffffffffffffffffffffffffffffff168373ffffffffffffffffffffffffffffffffffffffff1614156109f1576040517f08c379a00000000000000000000000000000000000000000000000000000000081526004016109e8906137a3565b60405180910390fd5b8073ffffffffffffffffffffffffffffffffffffffff163373ffffffffffffffffffffffffffffffffffffffff161480610a315750610a3081336119be565b5b610a70576040517f08c379a0000000000000000000000000000000000000000000000000000000008152600401610a67906136c3565b60405180910390fd5b826002600084815260200190815260200160002060006101000a81548173ffffffffffffffffffffffffffffffffffffffff021916908373ffffffffffffffffffffffffffffffffffffffff160217905550818373ffffffffffffffffffffffffffffffffffffffff168273ffffffffffffffffffffffffffffffffffffffff167f8c5be1e5ebec7d5bd14f71427d1e84f3dd0314c0f7b2291e5b200ac8c7c3b92560405160405180910390a4505050565b600c6020528060005260406000206000915090508060000160009054906101000a900473ffffffffffffffffffffffffffffffffffffffff1690806001018054600181600116156101000203166002900480601f016020809104026020016040519081016040528092919081815260200182805460018160011615610100020316600290048015610bf45780601f10610bc957610100808354040283529160200191610bf4565b820191906000526020600020905b815481529060010190602001808311610bd757829003601f168201915b5050505050905082565b6000600780549050905090565b600f5481565b6000601454905090565b610c253382611c22565b610c64576040517f08c379a0000000000000000000000000000000000000000000000000000000008152600401610c5b906137e3565b60405180910390fd5b610c6f838383611d00565b505050565b6000610c7f8361123d565b8210610cc0576040517f08c379a0000000000000000000000000000000000000000000000000000000008152600401610cb7906135c3565b60405180910390fd5b600560008473ffffffffffffffffffffffffffffffffffffffff1673ffffffffffffffffffffffffffffffffffffffff1681526020019081526020016000208281548110610d0a57fe5b9060005260206000200154905092915050565b6000600f54905090565b6000600d60008373ffffffffffffffffffffffffffffffffffffffff1673ffffffffffffffffffffffffffffffffffffffff16815260200190815260200160002060009054906101000a900460ff169050919050565b610d9883838360405180602001604052806000815250611726565b505050565b6000600e54905090565b6000610db1610bfe565b8210610df2576040517f08c379a0000000000000000000000000000000000000000000000000000000008152600401610de990613803565b60405180910390fd5b60078281548110610dff57fe5b90600052602060002001549050919050565b6013602052806000526040600020600091509050806000015490806001018054600181600116156101000203166002900480601f016020809104026020016040519081016040528092919081815260200182805460018160011615610100020316600290048015610ec35780601f10610e9857610100808354040283529160200191610ec3565b820191906000526020600020905b815481529060010190602001808311610ea657829003601f168201915b5050505050908060020154905083565b60008090505b8151811015610f8157610eee33601454611d24565b60405180606001604052806001600e54038152602001838381518110610f1057fe5b60200260200101518152602001601454815250601360006014548152602001908152602001600020600082015181600001556020820151816001019080519060200190610f5e929190612695565b5060408201518160020155905050610f74611d45565b8080600101915050610ed9565b5050565b6000806001600084815260200190815260200160002060009054906101000a900473ffffffffffffffffffffffffffffffffffffffff169050600073ffffffffffffffffffffffffffffffffffffffff168173ffffffffffffffffffffffffffffffffffffffff16141561102e576040517f08c379a000000000000000000000000000000000000000000000000000000000815260040161102590613703565b60405180910390fd5b80915050919050565b60405180604001604052808373ffffffffffffffffffffffffffffffffffffffff16815260200182815250600c6000600e54815260200190815260200160002060008201518160000160006101000a81548173ffffffffffffffffffffffffffffffffffffffff021916908373ffffffffffffffffffffffffffffffffffffffff16021790555060208201518160010190805190602001906110da929190612695565b509050508160116000600e54815260200190815260200160002060006101000a81548173ffffffffffffffffffffffffffffffffffffffff021916908373ffffffffffffffffffffffffffffffffffffffff160217905550611179601260008473ffffffffffffffffffffffffffffffffffffffff1673ffffffffffffffffffffffffffffffffffffffff168152602001908152602001600020611d58565b611181611d6e565b5050565b6060600c60008381526020019081526020016000206001018054600181600116156101000203166002900480601f0160208091040260200160405190810160405280929190818152602001828054600181600116156101000203166002900480156112315780601f1061120657610100808354040283529160200191611231565b820191906000526020600020905b81548152906001019060200180831161121457829003601f168201915b50505050509050919050565b60008073ffffffffffffffffffffffffffffffffffffffff168273ffffffffffffffffffffffffffffffffffffffff1614156112ae576040517f08c379a00000000000000000000000000000000000000000000000000000000081526004016112a5906136e3565b60405180910390fd5b6112f5600360008473ffffffffffffffffffffffffffffffffffffffff1673ffffffffffffffffffffffffffffffffffffffff168152602001908152602001600020611d81565b9050919050565b601560009054906101000a900473ffffffffffffffffffffffffffffffffffffffff1681565b3373ffffffffffffffffffffffffffffffffffffffff16601060009054906101000a900473ffffffffffffffffffffffffffffffffffffffff1673ffffffffffffffffffffffffffffffffffffffff16146113b2576040517f08c379a00000000000000000000000000000000000000000000000000000000081526004016113a9906136a3565b60405180910390fd5b6000600d60008373ffffffffffffffffffffffffffffffffffffffff1673ffffffffffffffffffffffffffffffffffffffff16815260200190815260200160002060006101000a81548160ff02191690831515021790555050565b6000601060009054906101000a900473ffffffffffffffffffffffffffffffffffffffff16905090565b6060600a8054600181600116156101000203166002900480601f0160208091040260200160405190810160405280929190818152602001828054600181600116156101000203166002900480156114cf5780601f106114a4576101008083540402835291602001916114cf565b820191906000526020600020905b8154815290600101906020018083116114b257829003601f168201915b5050505050905090565b3373ffffffffffffffffffffffffffffffffffffffff168273ffffffffffffffffffffffffffffffffffffffff161415611548576040517f08c379a000000000000000000000000000000000000000000000000000000000815260040161153f90613643565b60405180910390fd5b80600460003373ffffffffffffffffffffffffffffffffffffffff1673ffffffffffffffffffffffffffffffffffffffff16815260200190815260200160002060008473ffffffffffffffffffffffffffffffffffffffff1673ffffffffffffffffffffffffffffffffffffffff16815260200190815260200160002060006101000a81548160ff0219169083151502179055508173ffffffffffffffffffffffffffffffffffffffff163373ffffffffffffffffffffffffffffffffffffffff167f17307eab39ab6107e8899845ad3d59bd9653f200f220920489ca2b5937696c31836040516116399190613586565b60405180910390a35050565b60008090505b82518110156116ee5761166033601454611d24565b604051806060016040528083815260200184838151811061167d57fe5b602002602001015181526020016014548152506013600060145481526020019081526020016000206000820151816000015560208201518160010190805190602001906116cb929190612695565b50604082015181600201559050506116e1611d45565b808060010191505061164b565b505050565b60116020528060005260406000206000915054906101000a900473ffffffffffffffffffffffffffffffffffffffff1681565b611731848484610c1b565b61173d84848484611d8f565b61177c576040517f08c379a0000000000000000000000000000000000000000000000000000000008152600401611773906135e3565b60405180910390fd5b50505050565b601060009054906101000a900473ffffffffffffffffffffffffffffffffffffffff1681565b60606117b382611bb0565b6117f2576040517f08c379a00000000000000000000000000000000000000000000000000000000081526004016117e990613783565b60405180910390fd5b600b60008381526020019081526020016000208054600181600116156101000203166002900480601f0160208091040260200160405190810160405280929190818152602001828054600181600116156101000203166002900480156118995780601f1061186e57610100808354040283529160200191611899565b820191906000526020600020905b81548152906001019060200180831161187c57829003601f168201915b50505050509050919050565b3373ffffffffffffffffffffffffffffffffffffffff16601060009054906101000a900473ffffffffffffffffffffffffffffffffffffffff1673ffffffffffffffffffffffffffffffffffffffff1614611935576040517f08c379a000000000000000000000000000000000000000000000000000000000815260040161192c906136a3565b60405180910390fd5b6001600d60008373ffffffffffffffffffffffffffffffffffffffff1673ffffffffffffffffffffffffffffffffffffffff16815260200190815260200160002060006101000a81548160ff021916908315150217905550611995611ea6565b50565b60145481565b600d6020528060005260406000206000915054906101000a900460ff1681565b6000600460008473ffffffffffffffffffffffffffffffffffffffff1673ffffffffffffffffffffffffffffffffffffffff16815260200190815260200160002060008373ffffffffffffffffffffffffffffffffffffffff1673ffffffffffffffffffffffffffffffffffffffff16815260200190815260200160002060009054906101000a900460ff16905092915050565b60008073ffffffffffffffffffffffffffffffffffffffff16601060009054906101000a900473ffffffffffffffffffffffffffffffffffffffff1673ffffffffffffffffffffffffffffffffffffffff161415611ae5576040517f08c379a0000000000000000000000000000000000000000000000000000000008152600401611adc906137c3565b60405180910390fd5b611b2c601260008473ffffffffffffffffffffffffffffffffffffffff1673ffffffffffffffffffffffffffffffffffffffff168152602001908152602001600020611d81565b9050919050565b60008090505b8151811015611b6d57611b608484848481518110611b5357fe5b6020026020010151610d7d565b8080600101915050611b39565b50505050565b60006011600083815260200190815260200160002060009054906101000a900473ffffffffffffffffffffffffffffffffffffffff169050919050565b6000806001600084815260200190815260200160002060009054906101000a900473ffffffffffffffffffffffffffffffffffffffff169050600073ffffffffffffffffffffffffffffffffffffffff168173ffffffffffffffffffffffffffffffffffffffff161415915050919050565b6000611c2d82611bb0565b611c6c576040517f08c379a0000000000000000000000000000000000000000000000000000000008152600401611c6390613683565b60405180910390fd5b6000611c7783610f85565b90508073ffffffffffffffffffffffffffffffffffffffff168473ffffffffffffffffffffffffffffffffffffffff161480611ce657508373ffffffffffffffffffffffffffffffffffffffff16611cce846108ea565b73ffffffffffffffffffffffffffffffffffffffff16145b80611cf75750611cf681856119be565b5b91505092915050565b611d0b838383611eb9565b611d1583826120e8565b611d1f8282612286565b505050565b611d2e828261234d565b611d388282612286565b611d41816124ff565b5050565b6001601460008282540192505081905550565b6001816000016000828254019250508190555050565b6001600e60008282540192505081905550565b600081600001549050919050565b6000611db08473ffffffffffffffffffffffffffffffffffffffff1661254b565b611dbd5760019050611e9e565b60008473ffffffffffffffffffffffffffffffffffffffff1663150b7a02338887876040518563ffffffff1660e01b8152600401611dfe949392919061350a565b602060405180830381600087803b158015611e1857600080fd5b505af1158015611e2c573d6000803e3d6000fd5b505050506040513d601f19601f82011682018060405250611e509190810190612ce2565b905063150b7a0260e01b7bffffffffffffffffffffffffffffffffffffffffffffffffffffffff1916817bffffffffffffffffffffffffffffffffffffffffffffffffffffffff1916149150505b949350505050565b6001600f60008282540192505081905550565b8273ffffffffffffffffffffffffffffffffffffffff16611ed982610f85565b73ffffffffffffffffffffffffffffffffffffffff1614611f2f576040517f08c379a0000000000000000000000000000000000000000000000000000000008152600401611f2690613763565b60405180910390fd5b600073ffffffffffffffffffffffffffffffffffffffff168273ffffffffffffffffffffffffffffffffffffffff161415611f9f576040517f08c379a0000000000000000000000000000000000000000000000000000000008152600401611f9690613623565b60405180910390fd5b611fa88161255e565b611fef600360008573ffffffffffffffffffffffffffffffffffffffff1673ffffffffffffffffffffffffffffffffffffffff16815260200190815260200160002061261c565b612036600360008473ffffffffffffffffffffffffffffffffffffffff1673ffffffffffffffffffffffffffffffffffffffff168152602001908152602001600020611d58565b816001600083815260200190815260200160002060006101000a81548173ffffffffffffffffffffffffffffffffffffffff021916908373ffffffffffffffffffffffffffffffffffffffff160217905550808273ffffffffffffffffffffffffffffffffffffffff168473ffffffffffffffffffffffffffffffffffffffff167fddf252ad1be2c89b69c2b068fc378daa952ba7f163c4a11628f55a4df523b3ef60405160405180910390a4505050565b60006121406001600560008673ffffffffffffffffffffffffffffffffffffffff1673ffffffffffffffffffffffffffffffffffffffff1681526020019081526020016000208054905061263f90919063ffffffff16565b905060006006600084815260200190815260200160002054905081811461222d576000600560008673ffffffffffffffffffffffffffffffffffffffff1673ffffffffffffffffffffffffffffffffffffffff16815260200190815260200160002083815481106121ad57fe5b9060005260206000200154905080600560008773ffffffffffffffffffffffffffffffffffffffff1673ffffffffffffffffffffffffffffffffffffffff168152602001908152602001600020838154811061220557fe5b9060005260206000200181905550816006600083815260200190815260200160002081905550505b600560008573ffffffffffffffffffffffffffffffffffffffff1673ffffffffffffffffffffffffffffffffffffffff16815260200190815260200160002080548091906001900361227f9190612715565b5050505050565b600560008373ffffffffffffffffffffffffffffffffffffffff1673ffffffffffffffffffffffffffffffffffffffff168152602001908152602001600020805490506006600083815260200190815260200160002081905550600560008373ffffffffffffffffffffffffffffffffffffffff1673ffffffffffffffffffffffffffffffffffffffff1681526020019081526020016000208190806001815401808255809150509060018203906000526020600020016000909192909190915055505050565b600073ffffffffffffffffffffffffffffffffffffffff168273ffffffffffffffffffffffffffffffffffffffff1614156123bd576040517f08c379a00000000000000000000000000000000000000000000000000000000081526004016123b490613723565b60405180910390fd5b6123c681611bb0565b15612406576040517f08c379a00000000000000000000000000000000000000000000000000000000081526004016123fd90613603565b60405180910390fd5b816001600083815260200190815260200160002060006101000a81548173ffffffffffffffffffffffffffffffffffffffff021916908373ffffffffffffffffffffffffffffffffffffffff16021790555061249f600360008473ffffffffffffffffffffffffffffffffffffffff1673ffffffffffffffffffffffffffffffffffffffff168152602001908152602001600020611d58565b808273ffffffffffffffffffffffffffffffffffffffff16600073ffffffffffffffffffffffffffffffffffffffff167fddf252ad1be2c89b69c2b068fc378daa952ba7f163c4a11628f55a4df523b3ef60405160405180910390a45050565b6007805490506008600083815260200190815260200160002081905550600781908060018154018082558091505090600182039060005260206000200160009091929091909150555050565b600080823b905060008111915050919050565b600073ffffffffffffffffffffffffffffffffffffffff166002600083815260200190815260200160002060009054906101000a900473ffffffffffffffffffffffffffffffffffffffff1673ffffffffffffffffffffffffffffffffffffffff16146126195760006002600083815260200190815260200160002060006101000a81548173ffffffffffffffffffffffffffffffffffffffff021916908373ffffffffffffffffffffffffffffffffffffffff1602179055505b50565b6126346001826000015461263f90919063ffffffff16565b816000018190555050565b600082821115612684576040517f08c379a000000000000000000000000000000000000000000000000000000000815260040161267b90613663565b60405180910390fd5b600082840390508091505092915050565b828054600181600116156101000203166002900490600052602060002090601f016020900481019282601f106126d657805160ff1916838001178555612704565b82800160010185558215612704579182015b828111156127035782518255916020019190600101906126e8565b5b5090506127119190612741565b5090565b81548183558181111561273c5781836000526020600020918201910161273b9190612741565b5b505050565b61276391905b8082111561275f576000816000905550600101612747565b5090565b90565b60008135905061277581613abd565b92915050565b600082601f83011261278c57600080fd5b813561279f61279a826138a9565b61387c565b9150818183526020840193506020810190508360005b838110156127e557813586016127cb8882612905565b8452602084019350602083019250506001810190506127b5565b5050505092915050565b600082601f83011261280057600080fd5b813561281361280e826138d1565b61387c565b9150818183526020840193506020810190508385602084028201111561283857600080fd5b60005b83811015612868578161284e88826129ad565b84526020840193506020830192505060018101905061283b565b5050505092915050565b60008135905061288181613ad4565b92915050565b60008135905061289681613aeb565b92915050565b6000815190506128ab81613aeb565b92915050565b600082601f8301126128c257600080fd5b81356128d56128d0826138f9565b61387c565b915080825260208301602083018583830111156128f157600080fd5b6128fc838284613a6a565b50505092915050565b600082601f83011261291657600080fd5b813561292961292482613925565b61387c565b9150808252602083016020830185838301111561294557600080fd5b612950838284613a6a565b50505092915050565b600082601f83011261296a57600080fd5b813561297d61297882613951565b61387c565b9150808252602083016020830185838301111561299957600080fd5b6129a4838284613a6a565b50505092915050565b6000813590506129bc81613b02565b92915050565b6000602082840312156129d457600080fd5b60006129e284828501612766565b91505092915050565b600080604083850312156129fe57600080fd5b6000612a0c85828601612766565b9250506020612a1d85828601612766565b9150509250929050565b600080600060608486031215612a3c57600080fd5b6000612a4a86828701612766565b9350506020612a5b86828701612766565b925050604084013567ffffffffffffffff811115612a7857600080fd5b612a84868287016127ef565b9150509250925092565b600080600060608486031215612aa357600080fd5b6000612ab186828701612766565b9350506020612ac286828701612766565b9250506040612ad3868287016129ad565b9150509250925092565b60008060008060808587031215612af357600080fd5b6000612b0187828801612766565b9450506020612b1287828801612766565b9350506040612b23878288016129ad565b925050606085013567ffffffffffffffff811115612b4057600080fd5b612b4c878288016128b1565b91505092959194509250565b60008060408385031215612b6b57600080fd5b6000612b7985828601612766565b9250506020612b8a85828601612872565b9150509250929050565b60008060408385031215612ba757600080fd5b6000612bb585828601612766565b925050602083013567ffffffffffffffff811115612bd257600080fd5b612bde85828601612959565b9150509250929050565b60008060408385031215612bfb57600080fd5b6000612c0985828601612766565b9250506020612c1a858286016129ad565b9150509250929050565b600060208284031215612c3657600080fd5b600082013567ffffffffffffffff811115612c5057600080fd5b612c5c8482850161277b565b91505092915050565b60008060408385031215612c7857600080fd5b600083013567ffffffffffffffff811115612c9257600080fd5b612c9e8582860161277b565b9250506020612caf858286016129ad565b9150509250929050565b600060208284031215612ccb57600080fd5b6000612cd984828501612887565b91505092915050565b600060208284031215612cf457600080fd5b6000612d028482850161289c565b91505092915050565b600060208284031215612d1d57600080fd5b6000612d2b848285016129ad565b91505092915050565b612d3d81613a34565b82525050565b612d4c816139c0565b82525050565b612d5b816139d2565b82525050565b6000612d6c8261397d565b612d76818561399e565b9350612d86818560208601613a79565b612d8f81613aac565b840191505092915050565b6000612da582613993565b612daf81856139af565b9350612dbf818560208601613a79565b612dc881613aac565b840191505092915050565b6000612dde82613988565b612de881856139af565b9350612df8818560208601613a79565b612e0181613aac565b840191505092915050565b6000612e19602b836139af565b91507f455243373231456e756d657261626c653a206f776e657220696e646578206f7560008301527f74206f6620626f756e64730000000000000000000000000000000000000000006020830152604082019050919050565b6000612e7f6032836139af565b91507f4552433732313a207472616e7366657220746f206e6f6e20455243373231526560008301527f63656976657220696d706c656d656e74657200000000000000000000000000006020830152604082019050919050565b6000612ee5601c836139af565b91507f4552433732313a20746f6b656e20616c7265616479206d696e746564000000006000830152602082019050919050565b6000612f256024836139af565b91507f4552433732313a207472616e7366657220746f20746865207a65726f2061646460008301527f72657373000000000000000000000000000000000000000000000000000000006020830152604082019050919050565b6000612f8b6019836139af565b91507f4552433732313a20617070726f766520746f2063616c6c6572000000000000006000830152602082019050919050565b6000612fcb601e836139af565b91507f536166654d6174683a207375627472616374696f6e206f766572666c6f7700006000830152602082019050919050565b600061300b602c836139af565b91507f4552433732313a206f70657261746f7220717565727920666f72206e6f6e657860008301527f697374656e7420746f6b656e00000000000000000000000000000000000000006020830152604082019050919050565b60006130716015836139af565b91507f73656e646572206973206e6f742061206f776e657200000000000000000000006000830152602082019050919050565b60006130b16038836139af565b91507f4552433732313a20617070726f76652063616c6c6572206973206e6f74206f7760008301527f6e6572206e6f7220617070726f76656420666f7220616c6c00000000000000006020830152604082019050919050565b6000613117602a836139af565b91507f4552433732313a2062616c616e636520717565727920666f7220746865207a6560008301527f726f2061646472657373000000000000000000000000000000000000000000006020830152604082019050919050565b600061317d6029836139af565b91507f4552433732313a206f776e657220717565727920666f72206e6f6e657869737460008301527f656e7420746f6b656e00000000000000000000000000000000000000000000006020830152604082019050919050565b60006131e36020836139af565b91507f4552433732313a206d696e7420746f20746865207a65726f20616464726573736000830152602082019050919050565b6000613223602c836139af565b91507f4552433732313a20617070726f76656420717565727920666f72206e6f6e657860008301527f697374656e7420746f6b656e00000000000000000000000000000000000000006020830152604082019050919050565b60006132896029836139af565b91507f4552433732313a207472616e73666572206f6620746f6b656e2074686174206960008301527f73206e6f74206f776e00000000000000000000000000000000000000000000006020830152604082019050919050565b60006132ef602f836139af565b91507f4552433732314d657461646174613a2055524920717565727920666f72206e6f60008301527f6e6578697374656e7420746f6b656e00000000000000000000000000000000006020830152604082019050919050565b60006133556021836139af565b91507f4552433732313a20617070726f76616c20746f2063757272656e74206f776e6560008301527f72000000000000000000000000000000000000000000000000000000000000006020830152604082019050919050565b60006133bb6029836139af565b91507f4576656e743a2062616c616e636520717565727920666f7220746865207a657260008301527f6f206164647265737300000000000000000000000000000000000000000000006020830152604082019050919050565b60006134216031836139af565b91507f4552433732313a207472616e736665722063616c6c6572206973206e6f74206f60008301527f776e6572206e6f7220617070726f7665640000000000000000000000000000006020830152604082019050919050565b6000613487602c836139af565b91507f455243373231456e756d657261626c653a20676c6f62616c20696e646578206f60008301527f7574206f6620626f756e647300000000000000000000000000000000000000006020830152604082019050919050565b6134e981613a2a565b82525050565b60006020820190506135046000830184612d43565b92915050565b600060808201905061351f6000830187612d34565b61352c6020830186612d43565b61353960408301856134e0565b818103606083015261354b8184612d61565b905095945050505050565b600060408201905061356b6000830185612d43565b818103602083015261357d8184612dd3565b90509392505050565b600060208201905061359b6000830184612d52565b92915050565b600060208201905081810360008301526135bb8184612d9a565b905092915050565b600060208201905081810360008301526135dc81612e0c565b9050919050565b600060208201905081810360008301526135fc81612e72565b9050919050565b6000602082019050818103600083015261361c81612ed8565b9050919050565b6000602082019050818103600083015261363c81612f18565b9050919050565b6000602082019050818103600083015261365c81612f7e565b9050919050565b6000602082019050818103600083015261367c81612fbe565b9050919050565b6000602082019050818103600083015261369c81612ffe565b9050919050565b600060208201905081810360008301526136bc81613064565b9050919050565b600060208201905081810360008301526136dc816130a4565b9050919050565b600060208201905081810360008301526136fc8161310a565b9050919050565b6000602082019050818103600083015261371c81613170565b9050919050565b6000602082019050818103600083015261373c816131d6565b9050919050565b6000602082019050818103600083015261375c81613216565b9050919050565b6000602082019050818103600083015261377c8161327c565b9050919050565b6000602082019050818103600083015261379c816132e2565b9050919050565b600060208201905081810360008301526137bc81613348565b9050919050565b600060208201905081810360008301526137dc816133ae565b9050919050565b600060208201905081810360008301526137fc81613414565b9050919050565b6000602082019050818103600083015261381c8161347a565b9050919050565b600060208201905061383860008301846134e0565b92915050565b600060608201905061385360008301866134e0565b81810360208301526138658185612dd3565b905061387460408301846134e0565b949350505050565b6000604051905081810181811067ffffffffffffffff8211171561389f57600080fd5b8060405250919050565b600067ffffffffffffffff8211156138c057600080fd5b602082029050602081019050919050565b600067ffffffffffffffff8211156138e857600080fd5b602082029050602081019050919050565b600067ffffffffffffffff82111561391057600080fd5b601f19601f8301169050602081019050919050565b600067ffffffffffffffff82111561393c57600080fd5b601f19601f8301169050602081019050919050565b600067ffffffffffffffff82111561396857600080fd5b601f19601f8301169050602081019050919050565b600081519050919050565b600081519050919050565b600081519050919050565b600082825260208201905092915050565b600082825260208201905092915050565b60006139cb82613a0a565b9050919050565b60008115159050919050565b60007fffffffff0000000000000000000000000000000000000000000000000000000082169050919050565b600073ffffffffffffffffffffffffffffffffffffffff82169050919050565b6000819050919050565b6000613a3f82613a46565b9050919050565b6000613a5182613a58565b9050919050565b6000613a6382613a0a565b9050919050565b82818337600083830152505050565b60005b83811015613a97578082015181840152602081019050613a7c565b83811115613aa6576000848401525b50505050565b6000601f19601f8301169050919050565b613ac6816139c0565b8114613ad157600080fd5b50565b613add816139d2565b8114613ae857600080fd5b50565b613af4816139de565b8114613aff57600080fd5b50565b613b0b81613a2a565b8114613b1657600080fd5b5056fea365627a7a72315820a953bd1a923002c510ac0aa2757d91870209b92669e3f828d3ada6c53bc40f426c6578706572696d656e74616cf564736f6c63430005100040",
  "source": "pragma solidity ^0.5.16;\npragma experimental ABIEncoderV2;\n\nimport \"./ERC721Full.sol\";\nimport \"./Event.sol\";\n\ncontract Ticket is ERC721Full, Event {\n  mapping(uint256 => Ticket) public tickets;\n  // mapping(string => bool) _ticketExists;\n  uint256 public ticketCount = 0;\n  address public ticketContractOwner;\n\n  constructor() ERC721Full(\"Ticket\", \"TCK\") public {\n    ticketContractOwner = msg.sender;\n  }\n\n  struct Ticket {\n    uint256 eventId;\n    string ticketDetail;\n    uint256 ticketId;\n  }\n\n  function incrementCount() internal {\n    ticketCount += 1;\n  }\n\n  \n  function getTicketCount() public view returns (uint256) {\n    return ticketCount;\n  }\n\n\n  function mint(string[] memory _tickets) public {\n    for(uint index = 0; index < _tickets.length; index++) {\n      _mint(msg.sender, ticketCount);\n      tickets[ticketCount] = Ticket(eventId - 1, _tickets[index], ticketCount);\n      incrementCount();\n    }\n    // require(!_ticketExists[_ticket]);\n\n    // _ticketExists[_ticket] = true;\n  }\n\n  function mintByEvent(string[] memory _tickets, uint256 _eventId) public {\n    for(uint index = 0; index < _tickets.length; index++) {\n      _mint(msg.sender, ticketCount);\n      tickets[ticketCount] = Ticket(_eventId, _tickets[index], ticketCount);\n      incrementCount();\n    }\n  }\n  \n  function multiTransferFrom(address _from, address _to, uint256[] memory _tokenIds) public {\n    for(uint index = 0; index < _tokenIds.length; index++) {\n      safeTransferFrom(_from, _to, _tokenIds[index]);\n    }\n  }\n\n}\n",
  "sourcePath": "/var/www/html/smart-ticket-api/src/admin/client/src/smart-contract/contracts/Ticket.sol",
  "compiler": {
    "name": "solc",
    "version": "0.5.16+commit.9c3226ce.Emscripten.clang"
  },
  "schemaVersion": "3.3.4",
  "updatedAt": "2021-03-01T17:28:00.754Z",
  "networkType": "ethereum",
  "devdoc": {
    "methods": {
      "approve(address,uint256)": {
        "details": "Approves another address to transfer the given token ID The zero address indicates there is no approved address. There can only be one approved address per token at a given time. Can only be called by the token owner or an approved operator.",
        "params": {
          "to": "address to be approved for the given token ID",
          "tokenId": "uint256 ID of the token to be approved"
        }
      },
      "balanceOf(address)": {
        "details": "Gets the balance of the specified address.",
        "params": {
          "owner": "address to query the balance of"
        },
        "return": "uint256 representing the amount owned by the passed address"
      },
      "getApproved(uint256)": {
        "details": "Gets the approved address for a token ID, or zero if no address set Reverts if the token ID does not exist.",
        "params": {
          "tokenId": "uint256 ID of the token to query the approval of"
        },
        "return": "address currently approved for the given token ID"
      },
      "isApprovedForAll(address,address)": {
        "details": "Tells whether an operator is approved by a given owner.",
        "params": {
          "operator": "operator address which you want to query the approval of",
          "owner": "owner address which you want to query the approval of"
        },
        "return": "bool whether the given operator is approved by the given owner"
      },
      "name()": {
        "details": "Gets the token name.",
        "return": "string representing the token name"
      },
      "ownerOf(uint256)": {
        "details": "Gets the owner of the specified token ID.",
        "params": {
          "tokenId": "uint256 ID of the token to query the owner of"
        },
        "return": "address currently marked as the owner of the given token ID"
      },
      "safeTransferFrom(address,address,uint256)": {
        "details": "Safely transfers the ownership of a given token ID to another address If the target address is a contract, it must implement `onERC721Received`, which is called upon a safe transfer, and return the magic value `bytes4(keccak256(\"onERC721Received(address,address,uint256,bytes)\"))`; otherwise, the transfer is reverted. Requires the msg.sender to be the owner, approved, or operator",
        "params": {
          "from": "current owner of the token",
          "to": "address to receive the ownership of the given token ID",
          "tokenId": "uint256 ID of the token to be transferred"
        }
      },
      "safeTransferFrom(address,address,uint256,bytes)": {
        "details": "Safely transfers the ownership of a given token ID to another address If the target address is a contract, it must implement `onERC721Received`, which is called upon a safe transfer, and return the magic value `bytes4(keccak256(\"onERC721Received(address,address,uint256,bytes)\"))`; otherwise, the transfer is reverted. Requires the msg.sender to be the owner, approved, or operator",
        "params": {
          "_data": "bytes data to send along with a safe transfer check",
          "from": "current owner of the token",
          "to": "address to receive the ownership of the given token ID",
          "tokenId": "uint256 ID of the token to be transferred"
        }
      },
      "setApprovalForAll(address,bool)": {
        "details": "Sets or unsets the approval of a given operator An operator is allowed to transfer all tokens of the sender on their behalf.",
        "params": {
          "approved": "representing the status of the approval to be set",
          "to": "operator address to set the approval"
        }
      },
      "supportsInterface(bytes4)": {
        "details": "See `IERC165.supportsInterface`.     * Time complexity O(1), guaranteed to always use less than 30 000 gas."
      },
      "symbol()": {
        "details": "Gets the token symbol.",
        "return": "string representing the token symbol"
      },
      "tokenByIndex(uint256)": {
        "details": "Gets the token ID at a given index of all the tokens in this contract Reverts if the index is greater or equal to the total number of tokens.",
        "params": {
          "index": "uint256 representing the index to be accessed of the tokens list"
        },
        "return": "uint256 token ID at the given index of the tokens list"
      },
      "tokenOfOwnerByIndex(address,uint256)": {
        "details": "Gets the token ID at a given index of the tokens list of the requested owner.",
        "params": {
          "index": "uint256 representing the index to be accessed of the requested tokens list",
          "owner": "address owning the tokens list to be accessed"
        },
        "return": "uint256 token ID at the given index of the tokens list owned by the requested address"
      },
      "tokenURI(uint256)": {
        "details": "Returns an URI for a given token ID. Throws if the token ID does not exist. May return an empty string.",
        "params": {
          "tokenId": "uint256 ID of the token to query"
        }
      },
      "totalSupply()": {
        "details": "Gets the total amount of tokens stored by the contract.",
        "return": "uint256 representing the total amount of tokens"
      },
      "transferFrom(address,address,uint256)": {
        "details": "Transfers the ownership of a given token ID to another address. Usage of this method is discouraged, use `safeTransferFrom` whenever possible. Requires the msg.sender to be the owner, approved, or operator.",
        "params": {
          "from": "current owner of the token",
          "to": "address to receive the ownership of the given token ID",
          "tokenId": "uint256 ID of the token to be transferred"
        }
      }
    }
  },
  "userdoc": {
    "methods": {}
  }
}