{
  "contractName": "Ticket",
  "abi": [
    {
      "inputs": [],
      "payable": false,
      "stateMutability": "nonpayable",
      "type": "constructor"
    },
    {
      "anonymous": false,
      "inputs": [
        {
          "indexed": true,
          "internalType": "address",
          "name": "owner",
          "type": "address"
        },
        {
          "indexed": true,
          "internalType": "address",
          "name": "approved",
          "type": "address"
        },
        {
          "indexed": true,
          "internalType": "uint256",
          "name": "tokenId",
          "type": "uint256"
        }
      ],
      "name": "Approval",
      "type": "event"
    },
    {
      "anonymous": false,
      "inputs": [
        {
          "indexed": true,
          "internalType": "address",
          "name": "owner",
          "type": "address"
        },
        {
          "indexed": true,
          "internalType": "address",
          "name": "operator",
          "type": "address"
        },
        {
          "indexed": false,
          "internalType": "bool",
          "name": "approved",
          "type": "bool"
        }
      ],
      "name": "ApprovalForAll",
      "type": "event"
    },
    {
      "anonymous": false,
      "inputs": [
        {
          "indexed": true,
          "internalType": "address",
          "name": "from",
          "type": "address"
        },
        {
          "indexed": true,
          "internalType": "address",
          "name": "to",
          "type": "address"
        },
        {
          "indexed": true,
          "internalType": "uint256",
          "name": "tokenId",
          "type": "uint256"
        }
      ],
      "name": "Transfer",
      "type": "event"
    },
    {
      "constant": false,
      "inputs": [
        {
          "internalType": "address",
          "name": "_approve",
          "type": "address"
        }
      ],
      "name": "addApproval",
      "outputs": [],
      "payable": false,
      "stateMutability": "nonpayable",
      "type": "function"
    },
    {
      "constant": false,
      "inputs": [
        {
          "internalType": "address",
          "name": "to",
          "type": "address"
        },
        {
          "internalType": "uint256",
          "name": "tokenId",
          "type": "uint256"
        }
      ],
      "name": "approve",
      "outputs": [],
      "payable": false,
      "stateMutability": "nonpayable",
      "type": "function"
    },
    {
      "constant": true,
      "inputs": [],
      "name": "approveId",
      "outputs": [
        {
          "internalType": "uint256",
          "name": "",
          "type": "uint256"
        }
      ],
      "payable": false,
      "stateMutability": "view",
      "type": "function"
    },
    {
      "constant": true,
      "inputs": [
        {
          "internalType": "address",
          "name": "",
          "type": "address"
        }
      ],
      "name": "approves",
      "outputs": [
        {
          "internalType": "bool",
          "name": "",
          "type": "bool"
        }
      ],
      "payable": false,
      "stateMutability": "view",
      "type": "function"
    },
    {
      "constant": true,
      "inputs": [
        {
          "internalType": "address",
          "name": "owner",
          "type": "address"
        }
      ],
      "name": "balanceOf",
      "outputs": [
        {
          "internalType": "uint256",
          "name": "",
          "type": "uint256"
        }
      ],
      "payable": false,
      "stateMutability": "view",
      "type": "function"
    },
    {
      "constant": false,
      "inputs": [
        {
          "internalType": "address",
          "name": "_owner",
          "type": "address"
        },
        {
          "internalType": "string",
          "name": "_detail",
          "type": "string"
        }
      ],
      "name": "createEvent",
      "outputs": [],
      "payable": false,
      "stateMutability": "nonpayable",
      "type": "function"
    },
    {
      "constant": true,
      "inputs": [],
      "name": "eventContractOwner",
      "outputs": [
        {
          "internalType": "address",
          "name": "",
          "type": "address"
        }
      ],
      "payable": false,
      "stateMutability": "view",
      "type": "function"
    },
    {
      "constant": true,
      "inputs": [],
      "name": "eventId",
      "outputs": [
        {
          "internalType": "uint256",
          "name": "",
          "type": "uint256"
        }
      ],
      "payable": false,
      "stateMutability": "view",
      "type": "function"
    },
    {
      "constant": true,
      "inputs": [
        {
          "internalType": "uint256",
          "name": "",
          "type": "uint256"
        }
      ],
      "name": "eventOwner",
      "outputs": [
        {
          "internalType": "address",
          "name": "",
          "type": "address"
        }
      ],
      "payable": false,
      "stateMutability": "view",
      "type": "function"
    },
    {
      "constant": true,
      "inputs": [
        {
          "internalType": "address",
          "name": "_owner",
          "type": "address"
        }
      ],
      "name": "eventOwnerBalanceOf",
      "outputs": [
        {
          "internalType": "uint256",
          "name": "",
          "type": "uint256"
        }
      ],
      "payable": false,
      "stateMutability": "view",
      "type": "function"
    },
    {
      "constant": true,
      "inputs": [
        {
          "internalType": "uint256",
          "name": "",
          "type": "uint256"
        }
      ],
      "name": "events",
      "outputs": [
        {
          "internalType": "address",
          "name": "owner",
          "type": "address"
        },
        {
          "internalType": "string",
          "name": "detail",
          "type": "string"
        }
      ],
      "payable": false,
      "stateMutability": "view",
      "type": "function"
    },
    {
      "constant": true,
      "inputs": [],
      "name": "getApproveId",
      "outputs": [
        {
          "internalType": "uint256",
          "name": "",
          "type": "uint256"
        }
      ],
      "payable": false,
      "stateMutability": "view",
      "type": "function"
    },
    {
      "constant": true,
      "inputs": [
        {
          "internalType": "uint256",
          "name": "tokenId",
          "type": "uint256"
        }
      ],
      "name": "getApproved",
      "outputs": [
        {
          "internalType": "address",
          "name": "",
          "type": "address"
        }
      ],
      "payable": false,
      "stateMutability": "view",
      "type": "function"
    },
    {
      "constant": true,
      "inputs": [
        {
          "internalType": "uint256",
          "name": "_eventId",
          "type": "uint256"
        }
      ],
      "name": "getEvent",
      "outputs": [
        {
          "internalType": "string",
          "name": "",
          "type": "string"
        }
      ],
      "payable": false,
      "stateMutability": "view",
      "type": "function"
    },
    {
      "constant": true,
      "inputs": [],
      "name": "getEventContractOwner",
      "outputs": [
        {
          "internalType": "address",
          "name": "",
          "type": "address"
        }
      ],
      "payable": false,
      "stateMutability": "view",
      "type": "function"
    },
    {
      "constant": true,
      "inputs": [],
      "name": "getEventId",
      "outputs": [
        {
          "internalType": "uint256",
          "name": "",
          "type": "uint256"
        }
      ],
      "payable": false,
      "stateMutability": "view",
      "type": "function"
    },
    {
      "constant": true,
      "inputs": [
        {
          "internalType": "uint256",
          "name": "_eventId",
          "type": "uint256"
        }
      ],
      "name": "getEventOwner",
      "outputs": [
        {
          "internalType": "address",
          "name": "",
          "type": "address"
        }
      ],
      "payable": false,
      "stateMutability": "view",
      "type": "function"
    },
    {
      "constant": true,
      "inputs": [
        {
          "internalType": "address",
          "name": "_approve",
          "type": "address"
        }
      ],
      "name": "isApproval",
      "outputs": [
        {
          "internalType": "bool",
          "name": "",
          "type": "bool"
        }
      ],
      "payable": false,
      "stateMutability": "view",
      "type": "function"
    },
    {
      "constant": true,
      "inputs": [
        {
          "internalType": "address",
          "name": "owner",
          "type": "address"
        },
        {
          "internalType": "address",
          "name": "operator",
          "type": "address"
        }
      ],
      "name": "isApprovedForAll",
      "outputs": [
        {
          "internalType": "bool",
          "name": "",
          "type": "bool"
        }
      ],
      "payable": false,
      "stateMutability": "view",
      "type": "function"
    },
    {
      "constant": true,
      "inputs": [],
      "name": "marketplaceTicketId",
      "outputs": [
        {
          "internalType": "uint256",
          "name": "",
          "type": "uint256"
        }
      ],
      "payable": false,
      "stateMutability": "view",
      "type": "function"
    },
    {
      "constant": true,
      "inputs": [
        {
          "internalType": "uint256",
          "name": "",
          "type": "uint256"
        }
      ],
      "name": "marketplaceTicketList",
      "outputs": [
        {
          "internalType": "uint256",
          "name": "",
          "type": "uint256"
        }
      ],
      "payable": false,
      "stateMutability": "view",
      "type": "function"
    },
    {
      "constant": true,
      "inputs": [
        {
          "internalType": "uint256",
          "name": "",
          "type": "uint256"
        }
      ],
      "name": "marketplaceTickets",
      "outputs": [
        {
          "internalType": "address",
          "name": "",
          "type": "address"
        }
      ],
      "payable": false,
      "stateMutability": "view",
      "type": "function"
    },
    {
      "constant": true,
      "inputs": [],
      "name": "name",
      "outputs": [
        {
          "internalType": "string",
          "name": "",
          "type": "string"
        }
      ],
      "payable": false,
      "stateMutability": "view",
      "type": "function"
    },
    {
      "constant": true,
      "inputs": [
        {
          "internalType": "uint256",
          "name": "tokenId",
          "type": "uint256"
        }
      ],
      "name": "ownerOf",
      "outputs": [
        {
          "internalType": "address",
          "name": "",
          "type": "address"
        }
      ],
      "payable": false,
      "stateMutability": "view",
      "type": "function"
    },
    {
      "constant": false,
      "inputs": [
        {
          "internalType": "address",
          "name": "_approve",
          "type": "address"
        }
      ],
      "name": "removeApproval",
      "outputs": [],
      "payable": false,
      "stateMutability": "nonpayable",
      "type": "function"
    },
    {
      "constant": false,
      "inputs": [
        {
          "internalType": "address",
          "name": "from",
          "type": "address"
        },
        {
          "internalType": "address",
          "name": "to",
          "type": "address"
        },
        {
          "internalType": "uint256",
          "name": "tokenId",
          "type": "uint256"
        }
      ],
      "name": "safeTransferFrom",
      "outputs": [],
      "payable": false,
      "stateMutability": "nonpayable",
      "type": "function"
    },
    {
      "constant": false,
      "inputs": [
        {
          "internalType": "address",
          "name": "from",
          "type": "address"
        },
        {
          "internalType": "address",
          "name": "to",
          "type": "address"
        },
        {
          "internalType": "uint256",
          "name": "tokenId",
          "type": "uint256"
        },
        {
          "internalType": "bytes",
          "name": "_data",
          "type": "bytes"
        }
      ],
      "name": "safeTransferFrom",
      "outputs": [],
      "payable": false,
      "stateMutability": "nonpayable",
      "type": "function"
    },
    {
      "constant": false,
      "inputs": [
        {
          "internalType": "address",
          "name": "to",
          "type": "address"
        },
        {
          "internalType": "bool",
          "name": "approved",
          "type": "bool"
        }
      ],
      "name": "setApprovalForAll",
      "outputs": [],
      "payable": false,
      "stateMutability": "nonpayable",
      "type": "function"
    },
    {
      "constant": true,
      "inputs": [
        {
          "internalType": "bytes4",
          "name": "interfaceId",
          "type": "bytes4"
        }
      ],
      "name": "supportsInterface",
      "outputs": [
        {
          "internalType": "bool",
          "name": "",
          "type": "bool"
        }
      ],
      "payable": false,
      "stateMutability": "view",
      "type": "function"
    },
    {
      "constant": true,
      "inputs": [],
      "name": "symbol",
      "outputs": [
        {
          "internalType": "string",
          "name": "",
          "type": "string"
        }
      ],
      "payable": false,
      "stateMutability": "view",
      "type": "function"
    },
    {
      "constant": true,
      "inputs": [],
      "name": "ticketContractOwner",
      "outputs": [
        {
          "internalType": "address",
          "name": "",
          "type": "address"
        }
      ],
      "payable": false,
      "stateMutability": "view",
      "type": "function"
    },
    {
      "constant": true,
      "inputs": [],
      "name": "ticketCount",
      "outputs": [
        {
          "internalType": "uint256",
          "name": "",
          "type": "uint256"
        }
      ],
      "payable": false,
      "stateMutability": "view",
      "type": "function"
    },
    {
      "constant": true,
      "inputs": [
        {
          "internalType": "uint256",
          "name": "",
          "type": "uint256"
        }
      ],
      "name": "tickets",
      "outputs": [
        {
          "internalType": "uint256",
          "name": "eventId",
          "type": "uint256"
        },
        {
          "internalType": "string",
          "name": "ticketDetail",
          "type": "string"
        },
        {
          "internalType": "uint256",
          "name": "ticketId",
          "type": "uint256"
        }
      ],
      "payable": false,
      "stateMutability": "view",
      "type": "function"
    },
    {
      "constant": true,
      "inputs": [
        {
          "internalType": "uint256",
          "name": "index",
          "type": "uint256"
        }
      ],
      "name": "tokenByIndex",
      "outputs": [
        {
          "internalType": "uint256",
          "name": "",
          "type": "uint256"
        }
      ],
      "payable": false,
      "stateMutability": "view",
      "type": "function"
    },
    {
      "constant": true,
      "inputs": [
        {
          "internalType": "address",
          "name": "owner",
          "type": "address"
        },
        {
          "internalType": "uint256",
          "name": "index",
          "type": "uint256"
        }
      ],
      "name": "tokenOfOwnerByIndex",
      "outputs": [
        {
          "internalType": "uint256",
          "name": "",
          "type": "uint256"
        }
      ],
      "payable": false,
      "stateMutability": "view",
      "type": "function"
    },
    {
      "constant": true,
      "inputs": [
        {
          "internalType": "uint256",
          "name": "tokenId",
          "type": "uint256"
        }
      ],
      "name": "tokenURI",
      "outputs": [
        {
          "internalType": "string",
          "name": "",
          "type": "string"
        }
      ],
      "payable": false,
      "stateMutability": "view",
      "type": "function"
    },
    {
      "constant": true,
      "inputs": [],
      "name": "totalSupply",
      "outputs": [
        {
          "internalType": "uint256",
          "name": "",
          "type": "uint256"
        }
      ],
      "payable": false,
      "stateMutability": "view",
      "type": "function"
    },
    {
      "constant": false,
      "inputs": [
        {
          "internalType": "address",
          "name": "from",
          "type": "address"
        },
        {
          "internalType": "address",
          "name": "to",
          "type": "address"
        },
        {
          "internalType": "uint256",
          "name": "tokenId",
          "type": "uint256"
        }
      ],
      "name": "transferFrom",
      "outputs": [],
      "payable": false,
      "stateMutability": "nonpayable",
      "type": "function"
    },
    {
      "constant": true,
      "inputs": [],
      "name": "getTicketCount",
      "outputs": [
        {
          "internalType": "uint256",
          "name": "",
          "type": "uint256"
        }
      ],
      "payable": false,
      "stateMutability": "view",
      "type": "function"
    },
    {
      "constant": true,
      "inputs": [],
      "name": "getMarketplaceTicketId",
      "outputs": [
        {
          "internalType": "uint256",
          "name": "",
          "type": "uint256"
        }
      ],
      "payable": false,
      "stateMutability": "view",
      "type": "function"
    },
    {
      "constant": false,
      "inputs": [
        {
          "internalType": "string[]",
          "name": "_tickets",
          "type": "string[]"
        }
      ],
      "name": "mint",
      "outputs": [],
      "payable": false,
      "stateMutability": "nonpayable",
      "type": "function"
    },
    {
      "constant": false,
      "inputs": [
        {
          "internalType": "string[]",
          "name": "_tickets",
          "type": "string[]"
        },
        {
          "internalType": "uint256",
          "name": "_eventId",
          "type": "uint256"
        }
      ],
      "name": "mintByEvent",
      "outputs": [],
      "payable": false,
      "stateMutability": "nonpayable",
      "type": "function"
    },
    {
      "constant": false,
      "inputs": [
        {
          "internalType": "address",
          "name": "_from",
          "type": "address"
        },
        {
          "internalType": "address",
          "name": "_to",
          "type": "address"
        },
        {
          "internalType": "uint256[]",
          "name": "_tokenIds",
          "type": "uint256[]"
        }
      ],
      "name": "multiTransferFrom",
      "outputs": [],
      "payable": false,
      "stateMutability": "nonpayable",
      "type": "function"
    },
    {
      "constant": false,
      "inputs": [
        {
          "internalType": "address",
          "name": "seller",
          "type": "address"
        },
        {
          "internalType": "uint256",
          "name": "ticketId",
          "type": "uint256"
        }
      ],
      "name": "sellTicketsOnMarketplace",
      "outputs": [],
      "payable": false,
      "stateMutability": "nonpayable",
      "type": "function"
    },
    {
      "constant": false,
      "inputs": [
        {
          "internalType": "address",
          "name": "buyer",
          "type": "address"
        },
        {
          "internalType": "uint256",
          "name": "ticketId",
          "type": "uint256"
        }
      ],
      "name": "buyTicketOnMarketplace",
      "outputs": [],
      "payable": false,
      "stateMutability": "nonpayable",
      "type": "function"
    },
    {
      "constant": false,
      "inputs": [
        {
          "internalType": "address",
          "name": "from",
          "type": "address"
        },
        {
          "internalType": "address",
          "name": "to",
          "type": "address"
        },
        {
          "internalType": "uint256",
          "name": "tokenId",
          "type": "uint256"
        }
      ],
      "name": "transferFromByContractOwner",
      "outputs": [],
      "payable": false,
      "stateMutability": "nonpayable",
      "type": "function"
    },
    {
      "constant": true,
      "inputs": [
        {
          "internalType": "uint256",
          "name": "ticketId",
          "type": "uint256"
        }
      ],
      "name": "getTicketOnMarketplace",
      "outputs": [
        {
          "internalType": "address",
          "name": "",
          "type": "address"
        }
      ],
      "payable": false,
      "stateMutability": "view",
      "type": "function"
    }
  ],
  "bytecode": "0x60806040526000600e556000600f5560006014553480156200002057600080fd5b506040518060400160405280600681526020017f5469636b657400000000000000000000000000000000000000000000000000008152506040518060400160405280600381526020017f54434b00000000000000000000000000000000000000000000000000000000008152508181620000a76301ffc9a760e01b620001ad60201b60201c565b620000bf6380ac58cd60e01b620001ad60201b60201c565b620000d763780e9d6360e01b620001ad60201b60201c565b8160099080519060200190620000ef92919062000285565b5080600a90805190602001906200010892919062000285565b5062000121635b5e139f60e01b620001ad60201b60201c565b5050505033601060006101000a81548173ffffffffffffffffffffffffffffffffffffffff021916908373ffffffffffffffffffffffffffffffffffffffff16021790555033601560006101000a81548173ffffffffffffffffffffffffffffffffffffffff021916908373ffffffffffffffffffffffffffffffffffffffff160217905550620003a9565b63ffffffff60e01b817bffffffffffffffffffffffffffffffffffffffffffffffffffffffff1916141562000219576040517f08c379a0000000000000000000000000000000000000000000000000000000008152600401620002109062000376565b60405180910390fd5b6001600080837bffffffffffffffffffffffffffffffffffffffffffffffffffffffff19167bffffffffffffffffffffffffffffffffffffffffffffffffffffffff1916815260200190815260200160002060006101000a81548160ff02191690831515021790555050565b828054600181600116156101000203166002900490600052602060002090601f016020900481019282601f10620002c857805160ff1916838001178555620002f9565b82800160010185558215620002f9579182015b82811115620002f8578251825591602001919060010190620002db565b5b5090506200030891906200030c565b5090565b6200033191905b808211156200032d57600081600090555060010162000313565b5090565b90565b600062000343601c8362000398565b91507f4552433136353a20696e76616c696420696e74657266616365206964000000006000830152602082019050919050565b60006020820190508181036000830152620003918162000334565b9050919050565b600082825260208201905092915050565b6143ad80620003b96000396000f3fe608060405234801561001057600080fd5b50600436106102955760003560e01c80636d1884e011610167578063b4d59d27116100ce578063d37f4acf11610087578063d37f4acf1461084d578063dc8636d51461087d578063e985e9c5146108ad578063f39346f3146108dd578063f487c6021461090d578063fe210f691461092957610295565b8063b4d59d2714610779578063b88d4fde146107a9578063c13cf59a146107c5578063c87b56dd146107e3578063cb44211e14610813578063cfbd900f1461082f57610295565b80638a62462e116101205780638a62462e146106b95780638b01b3e7146106d757806395d89b41146106f3578063a22cb46514610711578063ae242ac31461072d578063b4af93ad1461075d57610295565b80636d1884e0146105e55780636fa3b20b1461061557806370a082311461063157806379a9e8eb146106615780637a844d651461067f5780637cab5e8c1461069d57610295565b8063323c635a1161020b5780634f6ccce7116101c45780634f6ccce7146104eb57806350b447121461051b57806354f7a0e61461054d5780635768f2711461057d5780636352211e14610599578063652d4725146105c957610295565b8063323c635a14610429578063331b27631461044757806333e0a5ac1461047757806342842e0e1461049557806349f80c00146104b15780634a17bbde146104cd57610295565b80630b7914301161025d5780630b7914301461035257806318160ddd1461038357806319717d54146103a157806321c63a47146103bf57806323b872dd146103dd5780632f745c59146103f957610295565b806301ffc9a71461029a57806306fdde03146102ca578063081812fc146102e8578063089cdd0c14610318578063095ea7b314610336575b600080fd5b6102b460048036036102af91908101906132f2565b610959565b6040516102c19190613d57565b60405180910390f35b6102d26109c0565b6040516102df9190613d72565b60405180910390f35b61030260048036036102fd9190810190613344565b610a62565b60405161030f9190613cc0565b60405180910390f35b610320610ae7565b60405161032d9190614074565b60405180910390f35b610350600480360361034b9190810190613221565b610aed565b005b61036c60048036036103679190810190613344565b610c9a565b60405161037a929190613d27565b60405180910390f35b61038b610d76565b6040516103989190614074565b60405180910390f35b6103a9610d83565b6040516103b69190614074565b60405180910390f35b6103c7610d89565b6040516103d49190614074565b60405180910390f35b6103f760048036036103f291908101906130c7565b610d93565b005b610413600480360361040e9190810190613221565b610dec565b6040516104209190614074565b60405180910390f35b610431610e95565b60405161043e9190614074565b60405180910390f35b610461600480360361045c9190810190612ffb565b610e9f565b60405161046e9190613d57565b60405180910390f35b61047f610ef5565b60405161048c9190614074565b60405180910390f35b6104af60048036036104aa91908101906130c7565b610efb565b005b6104cb60048036036104c69190810190613221565b610f1b565b005b6104d5611042565b6040516104e29190614074565b60405180910390f35b61050560048036036105009190810190613344565b61104c565b6040516105129190614074565b60405180910390f35b61053560048036036105309190810190613344565b6110b6565b6040516105449392919061408f565b60405180910390f35b61056760048036036105629190810190613344565b611178565b6040516105749190613cc0565b60405180910390f35b6105976004803603610592919081019061325d565b6111ab565b005b6105b360048036036105ae9190810190613344565b61125d565b6040516105c09190613cc0565b60405180910390f35b6105e360048036036105de91908101906131cd565b61130f565b005b6105ff60048036036105fa9190810190613344565b61145d565b60405161060c9190613d72565b60405180910390f35b61062f600480360361062a9190810190613221565b611515565b005b61064b60048036036106469190810190612ffb565b6116c6565b6040516106589190614074565b60405180910390f35b610669611785565b6040516106769190613cc0565b60405180910390f35b6106876117ab565b6040516106949190614074565b60405180910390f35b6106b760048036036106b29190810190612ffb565b6117b5565b005b6106c16118a0565b6040516106ce9190613cc0565b60405180910390f35b6106f160048036036106ec91908101906130c7565b6118ca565b005b6106fb6119a0565b6040516107089190613d72565b60405180910390f35b61072b60048036036107269190810190613191565b611a42565b005b61074760048036036107429190810190613344565b611bae565b6040516107549190614074565b60405180910390f35b6107776004803603610772919081019061329e565b611bcf565b005b610793600480360361078e9190810190613344565b611c7d565b6040516107a09190613cc0565b60405180910390f35b6107c360048036036107be9190810190613116565b611cb0565b005b6107cd611d0c565b6040516107da9190613cc0565b60405180910390f35b6107fd60048036036107f89190810190613344565b611d32565b60405161080a9190613d72565b60405180910390f35b61082d60048036036108289190810190612ffb565b611e2f565b005b610837611f22565b6040516108449190614074565b60405180910390f35b61086760048036036108629190810190612ffb565b611f28565b6040516108749190613d57565b60405180910390f35b61089760048036036108929190810190613344565b611f48565b6040516108a49190613cc0565b60405180910390f35b6108c760048036036108c29190810190613024565b611f85565b6040516108d49190613d57565b60405180910390f35b6108f760048036036108f29190810190612ffb565b612019565b6040516109049190614074565b60405180910390f35b61092760048036036109229190810190613060565b6120fa565b005b610943600480360361093e9190810190613344565b61213a565b6040516109509190613cc0565b60405180910390f35b6000806000837bffffffffffffffffffffffffffffffffffffffffffffffffffffffff19167bffffffffffffffffffffffffffffffffffffffffffffffffffffffff1916815260200190815260200160002060009054906101000a900460ff169050919050565b606060098054600181600116156101000203166002900480601f016020809104026020016040519081016040528092919081815260200182805460018160011615610100020316600290048015610a585780601f10610a2d57610100808354040283529160200191610a58565b820191906000526020600020905b815481529060010190602001808311610a3b57829003601f168201915b5050505050905090565b6000610a6d82612177565b610aac576040517f08c379a0000000000000000000000000000000000000000000000000000000008152600401610aa390613f74565b60405180910390fd5b6002600083815260200190815260200160002060009054906101000a900473ffffffffffffffffffffffffffffffffffffffff169050919050565b600e5481565b6000610af88261125d565b90508073ffffffffffffffffffffffffffffffffffffffff168373ffffffffffffffffffffffffffffffffffffffff161415610b69576040517f08c379a0000000000000000000000000000000000000000000000000000000008152600401610b6090613fd4565b60405180910390fd5b8073ffffffffffffffffffffffffffffffffffffffff163373ffffffffffffffffffffffffffffffffffffffff161480610ba95750610ba88133611f85565b5b610be8576040517f08c379a0000000000000000000000000000000000000000000000000000000008152600401610bdf90613ef4565b60405180910390fd5b826002600084815260200190815260200160002060006101000a81548173ffffffffffffffffffffffffffffffffffffffff021916908373ffffffffffffffffffffffffffffffffffffffff160217905550818373ffffffffffffffffffffffffffffffffffffffff168273ffffffffffffffffffffffffffffffffffffffff167f8c5be1e5ebec7d5bd14f71427d1e84f3dd0314c0f7b2291e5b200ac8c7c3b92560405160405180910390a4505050565b600c6020528060005260406000206000915090508060000160009054906101000a900473ffffffffffffffffffffffffffffffffffffffff1690806001018054600181600116156101000203166002900480601f016020809104026020016040519081016040528092919081815260200182805460018160011615610100020316600290048015610d6c5780601f10610d4157610100808354040283529160200191610d6c565b820191906000526020600020905b815481529060010190602001808311610d4f57829003601f168201915b5050505050905082565b6000600780549050905090565b600f5481565b6000601454905090565b610d9d33826121e9565b610ddc576040517f08c379a0000000000000000000000000000000000000000000000000000000008152600401610dd390614014565b60405180910390fd5b610de78383836122c7565b505050565b6000610df7836116c6565b8210610e38576040517f08c379a0000000000000000000000000000000000000000000000000000000008152600401610e2f90613d94565b60405180910390fd5b600560008473ffffffffffffffffffffffffffffffffffffffff1673ffffffffffffffffffffffffffffffffffffffff1681526020019081526020016000208281548110610e8257fe5b9060005260206000200154905092915050565b6000600f54905090565b6000600d60008373ffffffffffffffffffffffffffffffffffffffff1673ffffffffffffffffffffffffffffffffffffffff16815260200190815260200160002060009054906101000a900460ff169050919050565b60185481565b610f1683838360405180602001604052806000815250611cb0565b505050565b6000610f268261125d565b90508073ffffffffffffffffffffffffffffffffffffffff168373ffffffffffffffffffffffffffffffffffffffff161415610f97576040517f08c379a0000000000000000000000000000000000000000000000000000000008152600401610f8e90613e74565b60405180910390fd5b610fa0826122eb565b610fdf576040517f08c379a0000000000000000000000000000000000000000000000000000000008152600401610fd690613df4565b60405180910390fd5b610fea8184846118ca565b60006016600084815260200190815260200160002060006101000a81548173ffffffffffffffffffffffffffffffffffffffff021916908373ffffffffffffffffffffffffffffffffffffffff160217905550505050565b6000600e54905090565b6000611056610d76565b8210611097576040517f08c379a000000000000000000000000000000000000000000000000000000000815260040161108e90614034565b60405180910390fd5b600782815481106110a457fe5b90600052602060002001549050919050565b6013602052806000526040600020600091509050806000015490806001018054600181600116156101000203166002900480601f0160208091040260200160405190810160405280929190818152602001828054600181600116156101000203166002900480156111685780601f1061113d57610100808354040283529160200191611168565b820191906000526020600020905b81548152906001019060200180831161114b57829003601f168201915b5050505050908060020154905083565b60166020528060005260406000206000915054906101000a900473ffffffffffffffffffffffffffffffffffffffff1681565b60008090505b8151811015611259576111c63360145461235d565b60405180606001604052806001600e540381526020018383815181106111e857fe5b60200260200101518152602001601454815250601360006014548152602001908152602001600020600082015181600001556020820151816001019080519060200190611236929190612cce565b506040820151816002015590505061124c61237e565b80806001019150506111b1565b5050565b6000806001600084815260200190815260200160002060009054906101000a900473ffffffffffffffffffffffffffffffffffffffff169050600073ffffffffffffffffffffffffffffffffffffffff168173ffffffffffffffffffffffffffffffffffffffff161415611306576040517f08c379a00000000000000000000000000000000000000000000000000000000081526004016112fd90613f34565b60405180910390fd5b80915050919050565b60405180604001604052808373ffffffffffffffffffffffffffffffffffffffff16815260200182815250600c6000600e54815260200190815260200160002060008201518160000160006101000a81548173ffffffffffffffffffffffffffffffffffffffff021916908373ffffffffffffffffffffffffffffffffffffffff16021790555060208201518160010190805190602001906113b2929190612cce565b509050508160116000600e54815260200190815260200160002060006101000a81548173ffffffffffffffffffffffffffffffffffffffff021916908373ffffffffffffffffffffffffffffffffffffffff160217905550611451601260008473ffffffffffffffffffffffffffffffffffffffff1673ffffffffffffffffffffffffffffffffffffffff168152602001908152602001600020612391565b6114596123a7565b5050565b6060600c60008381526020019081526020016000206001018054600181600116156101000203166002900480601f0160208091040260200160405190810160405280929190818152602001828054600181600116156101000203166002900480156115095780601f106114de57610100808354040283529160200191611509565b820191906000526020600020905b8154815290600101906020018083116114ec57829003601f168201915b50505050509050919050565b60006115208261125d565b90508273ffffffffffffffffffffffffffffffffffffffff166016600084815260200190815260200160002060009054906101000a900473ffffffffffffffffffffffffffffffffffffffff1673ffffffffffffffffffffffffffffffffffffffff1614156115c4576040517f08c379a00000000000000000000000000000000000000000000000000000000081526004016115bb90613e14565b60405180910390fd5b8073ffffffffffffffffffffffffffffffffffffffff168373ffffffffffffffffffffffffffffffffffffffff1614611632576040517f08c379a000000000000000000000000000000000000000000000000000000000815260040161162990614054565b60405180910390fd5b826016600084815260200190815260200160002060006101000a81548173ffffffffffffffffffffffffffffffffffffffff021916908373ffffffffffffffffffffffffffffffffffffffff16021790555060178290806001815401808255809150509060018203906000526020600020016000909192909190915055506001601860008282540192505081905550505050565b60008073ffffffffffffffffffffffffffffffffffffffff168273ffffffffffffffffffffffffffffffffffffffff161415611737576040517f08c379a000000000000000000000000000000000000000000000000000000000815260040161172e90613f14565b60405180910390fd5b61177e600360008473ffffffffffffffffffffffffffffffffffffffff1673ffffffffffffffffffffffffffffffffffffffff1681526020019081526020016000206123ba565b9050919050565b601560009054906101000a900473ffffffffffffffffffffffffffffffffffffffff1681565b6000601854905090565b3373ffffffffffffffffffffffffffffffffffffffff16601060009054906101000a900473ffffffffffffffffffffffffffffffffffffffff1673ffffffffffffffffffffffffffffffffffffffff1614611845576040517f08c379a000000000000000000000000000000000000000000000000000000000815260040161183c90613ed4565b60405180910390fd5b6000600d60008373ffffffffffffffffffffffffffffffffffffffff1673ffffffffffffffffffffffffffffffffffffffff16815260200190815260200160002060006101000a81548160ff02191690831515021790555050565b6000601060009054906101000a900473ffffffffffffffffffffffffffffffffffffffff16905090565b8273ffffffffffffffffffffffffffffffffffffffff163373ffffffffffffffffffffffffffffffffffffffff1614806119515750601560009054906101000a900473ffffffffffffffffffffffffffffffffffffffff1673ffffffffffffffffffffffffffffffffffffffff163373ffffffffffffffffffffffffffffffffffffffff16145b611990576040517f08c379a000000000000000000000000000000000000000000000000000000000815260040161198790614014565b60405180910390fd5b61199b8383836122c7565b505050565b6060600a8054600181600116156101000203166002900480601f016020809104026020016040519081016040528092919081815260200182805460018160011615610100020316600290048015611a385780601f10611a0d57610100808354040283529160200191611a38565b820191906000526020600020905b815481529060010190602001808311611a1b57829003601f168201915b5050505050905090565b3373ffffffffffffffffffffffffffffffffffffffff168273ffffffffffffffffffffffffffffffffffffffff161415611ab1576040517f08c379a0000000000000000000000000000000000000000000000000000000008152600401611aa890613e54565b60405180910390fd5b80600460003373ffffffffffffffffffffffffffffffffffffffff1673ffffffffffffffffffffffffffffffffffffffff16815260200190815260200160002060008473ffffffffffffffffffffffffffffffffffffffff1673ffffffffffffffffffffffffffffffffffffffff16815260200190815260200160002060006101000a81548160ff0219169083151502179055508173ffffffffffffffffffffffffffffffffffffffff163373ffffffffffffffffffffffffffffffffffffffff167f17307eab39ab6107e8899845ad3d59bd9653f200f220920489ca2b5937696c3183604051611ba29190613d57565b60405180910390a35050565b60178181548110611bbb57fe5b906000526020600020016000915090505481565b60008090505b8251811015611c7857611bea3360145461235d565b6040518060600160405280838152602001848381518110611c0757fe5b60200260200101518152602001601454815250601360006014548152602001908152602001600020600082015181600001556020820151816001019080519060200190611c55929190612cce565b5060408201518160020155905050611c6b61237e565b8080600101915050611bd5565b505050565b60116020528060005260406000206000915054906101000a900473ffffffffffffffffffffffffffffffffffffffff1681565b611cbb848484610d93565b611cc7848484846123c8565b611d06576040517f08c379a0000000000000000000000000000000000000000000000000000000008152600401611cfd90613db4565b60405180910390fd5b50505050565b601060009054906101000a900473ffffffffffffffffffffffffffffffffffffffff1681565b6060611d3d82612177565b611d7c576040517f08c379a0000000000000000000000000000000000000000000000000000000008152600401611d7390613fb4565b60405180910390fd5b600b60008381526020019081526020016000208054600181600116156101000203166002900480601f016020809104026020016040519081016040528092919081815260200182805460018160011615610100020316600290048015611e235780601f10611df857610100808354040283529160200191611e23565b820191906000526020600020905b815481529060010190602001808311611e0657829003601f168201915b50505050509050919050565b3373ffffffffffffffffffffffffffffffffffffffff16601060009054906101000a900473ffffffffffffffffffffffffffffffffffffffff1673ffffffffffffffffffffffffffffffffffffffff1614611ebf576040517f08c379a0000000000000000000000000000000000000000000000000000000008152600401611eb690613ed4565b60405180910390fd5b6001600d60008373ffffffffffffffffffffffffffffffffffffffff1673ffffffffffffffffffffffffffffffffffffffff16815260200190815260200160002060006101000a81548160ff021916908315150217905550611f1f6124df565b50565b60145481565b600d6020528060005260406000206000915054906101000a900460ff1681565b60006016600083815260200190815260200160002060009054906101000a900473ffffffffffffffffffffffffffffffffffffffff169050919050565b6000600460008473ffffffffffffffffffffffffffffffffffffffff1673ffffffffffffffffffffffffffffffffffffffff16815260200190815260200160002060008373ffffffffffffffffffffffffffffffffffffffff1673ffffffffffffffffffffffffffffffffffffffff16815260200190815260200160002060009054906101000a900460ff16905092915050565b60008073ffffffffffffffffffffffffffffffffffffffff16601060009054906101000a900473ffffffffffffffffffffffffffffffffffffffff1673ffffffffffffffffffffffffffffffffffffffff1614156120ac576040517f08c379a00000000000000000000000000000000000000000000000000000000081526004016120a390613ff4565b60405180910390fd5b6120f3601260008473ffffffffffffffffffffffffffffffffffffffff1673ffffffffffffffffffffffffffffffffffffffff1681526020019081526020016000206123ba565b9050919050565b60008090505b815181101561213457612127848484848151811061211a57fe5b6020026020010151610efb565b8080600101915050612100565b50505050565b60006011600083815260200190815260200160002060009054906101000a900473ffffffffffffffffffffffffffffffffffffffff169050919050565b6000806001600084815260200190815260200160002060009054906101000a900473ffffffffffffffffffffffffffffffffffffffff169050600073ffffffffffffffffffffffffffffffffffffffff168173ffffffffffffffffffffffffffffffffffffffff161415915050919050565b60006121f482612177565b612233576040517f08c379a000000000000000000000000000000000000000000000000000000000815260040161222a90613eb4565b60405180910390fd5b600061223e8361125d565b90508073ffffffffffffffffffffffffffffffffffffffff168473ffffffffffffffffffffffffffffffffffffffff1614806122ad57508373ffffffffffffffffffffffffffffffffffffffff1661229584610a62565b73ffffffffffffffffffffffffffffffffffffffff16145b806122be57506122bd8185611f85565b5b91505092915050565b6122d28383836124f2565b6122dc8382612721565b6122e682826128bf565b505050565b6000806016600084815260200190815260200160002060009054906101000a900473ffffffffffffffffffffffffffffffffffffffff169050600073ffffffffffffffffffffffffffffffffffffffff168173ffffffffffffffffffffffffffffffffffffffff161415915050919050565b6123678282612986565b61237182826128bf565b61237a81612b38565b5050565b6001601460008282540192505081905550565b6001816000016000828254019250508190555050565b6001600e60008282540192505081905550565b600081600001549050919050565b60006123e98473ffffffffffffffffffffffffffffffffffffffff16612b84565b6123f657600190506124d7565b60008473ffffffffffffffffffffffffffffffffffffffff1663150b7a02338887876040518563ffffffff1660e01b81526004016124379493929190613cdb565b602060405180830381600087803b15801561245157600080fd5b505af1158015612465573d6000803e3d6000fd5b505050506040513d601f19601f82011682018060405250612489919081019061331b565b905063150b7a0260e01b7bffffffffffffffffffffffffffffffffffffffffffffffffffffffff1916817bffffffffffffffffffffffffffffffffffffffffffffffffffffffff1916149150505b949350505050565b6001600f60008282540192505081905550565b8273ffffffffffffffffffffffffffffffffffffffff166125128261125d565b73ffffffffffffffffffffffffffffffffffffffff1614612568576040517f08c379a000000000000000000000000000000000000000000000000000000000815260040161255f90613f94565b60405180910390fd5b600073ffffffffffffffffffffffffffffffffffffffff168273ffffffffffffffffffffffffffffffffffffffff1614156125d8576040517f08c379a00000000000000000000000000000000000000000000000000000000081526004016125cf90613e34565b60405180910390fd5b6125e181612b97565b612628600360008573ffffffffffffffffffffffffffffffffffffffff1673ffffffffffffffffffffffffffffffffffffffff168152602001908152602001600020612c55565b61266f600360008473ffffffffffffffffffffffffffffffffffffffff1673ffffffffffffffffffffffffffffffffffffffff168152602001908152602001600020612391565b816001600083815260200190815260200160002060006101000a81548173ffffffffffffffffffffffffffffffffffffffff021916908373ffffffffffffffffffffffffffffffffffffffff160217905550808273ffffffffffffffffffffffffffffffffffffffff168473ffffffffffffffffffffffffffffffffffffffff167fddf252ad1be2c89b69c2b068fc378daa952ba7f163c4a11628f55a4df523b3ef60405160405180910390a4505050565b60006127796001600560008673ffffffffffffffffffffffffffffffffffffffff1673ffffffffffffffffffffffffffffffffffffffff16815260200190815260200160002080549050612c7890919063ffffffff16565b9050600060066000848152602001908152602001600020549050818114612866576000600560008673ffffffffffffffffffffffffffffffffffffffff1673ffffffffffffffffffffffffffffffffffffffff16815260200190815260200160002083815481106127e657fe5b9060005260206000200154905080600560008773ffffffffffffffffffffffffffffffffffffffff1673ffffffffffffffffffffffffffffffffffffffff168152602001908152602001600020838154811061283e57fe5b9060005260206000200181905550816006600083815260200190815260200160002081905550505b600560008573ffffffffffffffffffffffffffffffffffffffff1673ffffffffffffffffffffffffffffffffffffffff1681526020019081526020016000208054809190600190036128b89190612d4e565b5050505050565b600560008373ffffffffffffffffffffffffffffffffffffffff1673ffffffffffffffffffffffffffffffffffffffff168152602001908152602001600020805490506006600083815260200190815260200160002081905550600560008373ffffffffffffffffffffffffffffffffffffffff1673ffffffffffffffffffffffffffffffffffffffff1681526020019081526020016000208190806001815401808255809150509060018203906000526020600020016000909192909190915055505050565b600073ffffffffffffffffffffffffffffffffffffffff168273ffffffffffffffffffffffffffffffffffffffff1614156129f6576040517f08c379a00000000000000000000000000000000000000000000000000000000081526004016129ed90613f54565b60405180910390fd5b6129ff81612177565b15612a3f576040517f08c379a0000000000000000000000000000000000000000000000000000000008152600401612a3690613dd4565b60405180910390fd5b816001600083815260200190815260200160002060006101000a81548173ffffffffffffffffffffffffffffffffffffffff021916908373ffffffffffffffffffffffffffffffffffffffff160217905550612ad8600360008473ffffffffffffffffffffffffffffffffffffffff1673ffffffffffffffffffffffffffffffffffffffff168152602001908152602001600020612391565b808273ffffffffffffffffffffffffffffffffffffffff16600073ffffffffffffffffffffffffffffffffffffffff167fddf252ad1be2c89b69c2b068fc378daa952ba7f163c4a11628f55a4df523b3ef60405160405180910390a45050565b6007805490506008600083815260200190815260200160002081905550600781908060018154018082558091505090600182039060005260206000200160009091929091909150555050565b600080823b905060008111915050919050565b600073ffffffffffffffffffffffffffffffffffffffff166002600083815260200190815260200160002060009054906101000a900473ffffffffffffffffffffffffffffffffffffffff1673ffffffffffffffffffffffffffffffffffffffff1614612c525760006002600083815260200190815260200160002060006101000a81548173ffffffffffffffffffffffffffffffffffffffff021916908373ffffffffffffffffffffffffffffffffffffffff1602179055505b50565b612c6d60018260000154612c7890919063ffffffff16565b816000018190555050565b600082821115612cbd576040517f08c379a0000000000000000000000000000000000000000000000000000000008152600401612cb490613e94565b60405180910390fd5b600082840390508091505092915050565b828054600181600116156101000203166002900490600052602060002090601f016020900481019282601f10612d0f57805160ff1916838001178555612d3d565b82800160010185558215612d3d579182015b82811115612d3c578251825591602001919060010190612d21565b5b509050612d4a9190612d7a565b5090565b815481835581811115612d7557818360005260206000209182019101612d749190612d7a565b5b505050565b612d9c91905b80821115612d98576000816000905550600101612d80565b5090565b90565b600081359050612dae8161430e565b92915050565b600082601f830112612dc557600080fd5b8135612dd8612dd3826140fa565b6140cd565b9150818183526020840193506020810190508360005b83811015612e1e5781358601612e048882612f3e565b845260208401935060208301925050600181019050612dee565b5050505092915050565b600082601f830112612e3957600080fd5b8135612e4c612e4782614122565b6140cd565b91508181835260208401935060208101905083856020840282011115612e7157600080fd5b60005b83811015612ea15781612e878882612fe6565b845260208401935060208301925050600181019050612e74565b5050505092915050565b600081359050612eba81614325565b92915050565b600081359050612ecf8161433c565b92915050565b600081519050612ee48161433c565b92915050565b600082601f830112612efb57600080fd5b8135612f0e612f098261414a565b6140cd565b91508082526020830160208301858383011115612f2a57600080fd5b612f358382846142bb565b50505092915050565b600082601f830112612f4f57600080fd5b8135612f62612f5d82614176565b6140cd565b91508082526020830160208301858383011115612f7e57600080fd5b612f898382846142bb565b50505092915050565b600082601f830112612fa357600080fd5b8135612fb6612fb1826141a2565b6140cd565b91508082526020830160208301858383011115612fd257600080fd5b612fdd8382846142bb565b50505092915050565b600081359050612ff581614353565b92915050565b60006020828403121561300d57600080fd5b600061301b84828501612d9f565b91505092915050565b6000806040838503121561303757600080fd5b600061304585828601612d9f565b925050602061305685828601612d9f565b9150509250929050565b60008060006060848603121561307557600080fd5b600061308386828701612d9f565b935050602061309486828701612d9f565b925050604084013567ffffffffffffffff8111156130b157600080fd5b6130bd86828701612e28565b9150509250925092565b6000806000606084860312156130dc57600080fd5b60006130ea86828701612d9f565b93505060206130fb86828701612d9f565b925050604061310c86828701612fe6565b9150509250925092565b6000806000806080858703121561312c57600080fd5b600061313a87828801612d9f565b945050602061314b87828801612d9f565b935050604061315c87828801612fe6565b925050606085013567ffffffffffffffff81111561317957600080fd5b61318587828801612eea565b91505092959194509250565b600080604083850312156131a457600080fd5b60006131b285828601612d9f565b92505060206131c385828601612eab565b9150509250929050565b600080604083850312156131e057600080fd5b60006131ee85828601612d9f565b925050602083013567ffffffffffffffff81111561320b57600080fd5b61321785828601612f92565b9150509250929050565b6000806040838503121561323457600080fd5b600061324285828601612d9f565b925050602061325385828601612fe6565b9150509250929050565b60006020828403121561326f57600080fd5b600082013567ffffffffffffffff81111561328957600080fd5b61329584828501612db4565b91505092915050565b600080604083850312156132b157600080fd5b600083013567ffffffffffffffff8111156132cb57600080fd5b6132d785828601612db4565b92505060206132e885828601612fe6565b9150509250929050565b60006020828403121561330457600080fd5b600061331284828501612ec0565b91505092915050565b60006020828403121561332d57600080fd5b600061333b84828501612ed5565b91505092915050565b60006020828403121561335657600080fd5b600061336484828501612fe6565b91505092915050565b61337681614285565b82525050565b61338581614211565b82525050565b61339481614223565b82525050565b60006133a5826141ce565b6133af81856141ef565b93506133bf8185602086016142ca565b6133c8816142fd565b840191505092915050565b60006133de826141e4565b6133e88185614200565b93506133f88185602086016142ca565b613401816142fd565b840191505092915050565b6000613417826141d9565b6134218185614200565b93506134318185602086016142ca565b61343a816142fd565b840191505092915050565b6000613452602b83614200565b91507f455243373231456e756d657261626c653a206f776e657220696e646578206f7560008301527f74206f6620626f756e64730000000000000000000000000000000000000000006020830152604082019050919050565b60006134b8603283614200565b91507f4552433732313a207472616e7366657220746f206e6f6e20455243373231526560008301527f63656976657220696d706c656d656e74657200000000000000000000000000006020830152604082019050919050565b600061351e601c83614200565b91507f4552433732313a20746f6b656e20616c7265616479206d696e746564000000006000830152602082019050919050565b600061355e602683614200565b91507f5469636b6574206973206e6f742073656c6c206f6e20746865206d6172656b6560008301527f74706c61636500000000000000000000000000000000000000000000000000006020830152604082019050919050565b60006135c4602183614200565b91507f5469636b657420616c7265616479206f6e20746865206d61726b6574706c616360008301527f65000000000000000000000000000000000000000000000000000000000000006020830152604082019050919050565b600061362a602483614200565b91507f4552433732313a207472616e7366657220746f20746865207a65726f2061646460008301527f72657373000000000000000000000000000000000000000000000000000000006020830152604082019050919050565b6000613690601983614200565b91507f4552433732313a20617070726f766520746f2063616c6c6572000000000000006000830152602082019050919050565b60006136d0602583614200565b91507f4552433732313a206275796572206973206e6f7420746865207469636b65742060008301527f6f776e65720000000000000000000000000000000000000000000000000000006020830152604082019050919050565b6000613736601e83614200565b91507f536166654d6174683a207375627472616374696f6e206f766572666c6f7700006000830152602082019050919050565b6000613776602c83614200565b91507f4552433732313a206f70657261746f7220717565727920666f72206e6f6e657860008301527f697374656e7420746f6b656e00000000000000000000000000000000000000006020830152604082019050919050565b60006137dc601583614200565b91507f73656e646572206973206e6f742061206f776e657200000000000000000000006000830152602082019050919050565b600061381c603883614200565b91507f4552433732313a20617070726f76652063616c6c6572206973206e6f74206f7760008301527f6e6572206e6f7220617070726f76656420666f7220616c6c00000000000000006020830152604082019050919050565b6000613882602a83614200565b91507f4552433732313a2062616c616e636520717565727920666f7220746865207a6560008301527f726f2061646472657373000000000000000000000000000000000000000000006020830152604082019050919050565b60006138e8602983614200565b91507f4552433732313a206f776e657220717565727920666f72206e6f6e657869737460008301527f656e7420746f6b656e00000000000000000000000000000000000000000000006020830152604082019050919050565b600061394e602083614200565b91507f4552433732313a206d696e7420746f20746865207a65726f20616464726573736000830152602082019050919050565b600061398e602c83614200565b91507f4552433732313a20617070726f76656420717565727920666f72206e6f6e657860008301527f697374656e7420746f6b656e00000000000000000000000000000000000000006020830152604082019050919050565b60006139f4602983614200565b91507f4552433732313a207472616e73666572206f6620746f6b656e2074686174206960008301527f73206e6f74206f776e00000000000000000000000000000000000000000000006020830152604082019050919050565b6000613a5a602f83614200565b91507f4552433732314d657461646174613a2055524920717565727920666f72206e6f60008301527f6e6578697374656e7420746f6b656e00000000000000000000000000000000006020830152604082019050919050565b6000613ac0602183614200565b91507f4552433732313a20617070726f76616c20746f2063757272656e74206f776e6560008301527f72000000000000000000000000000000000000000000000000000000000000006020830152604082019050919050565b6000613b26602983614200565b91507f4576656e743a2062616c616e636520717565727920666f7220746865207a657260008301527f6f206164647265737300000000000000000000000000000000000000000000006020830152604082019050919050565b6000613b8c603183614200565b91507f4552433732313a207472616e736665722063616c6c6572206973206e6f74206f60008301527f776e6572206e6f7220617070726f7665640000000000000000000000000000006020830152604082019050919050565b6000613bf2602c83614200565b91507f455243373231456e756d657261626c653a20676c6f62616c20696e646578206f60008301527f7574206f6620626f756e647300000000000000000000000000000000000000006020830152604082019050919050565b6000613c58602683614200565b91507f4552433732313a2073656c6c6572206973206e6f7420746865207469636b657460008301527f206f776e657200000000000000000000000000000000000000000000000000006020830152604082019050919050565b613cba8161427b565b82525050565b6000602082019050613cd5600083018461337c565b92915050565b6000608082019050613cf0600083018761336d565b613cfd602083018661337c565b613d0a6040830185613cb1565b8181036060830152613d1c818461339a565b905095945050505050565b6000604082019050613d3c600083018561337c565b8181036020830152613d4e818461340c565b90509392505050565b6000602082019050613d6c600083018461338b565b92915050565b60006020820190508181036000830152613d8c81846133d3565b905092915050565b60006020820190508181036000830152613dad81613445565b9050919050565b60006020820190508181036000830152613dcd816134ab565b9050919050565b60006020820190508181036000830152613ded81613511565b9050919050565b60006020820190508181036000830152613e0d81613551565b9050919050565b60006020820190508181036000830152613e2d816135b7565b9050919050565b60006020820190508181036000830152613e4d8161361d565b9050919050565b60006020820190508181036000830152613e6d81613683565b9050919050565b60006020820190508181036000830152613e8d816136c3565b9050919050565b60006020820190508181036000830152613ead81613729565b9050919050565b60006020820190508181036000830152613ecd81613769565b9050919050565b60006020820190508181036000830152613eed816137cf565b9050919050565b60006020820190508181036000830152613f0d8161380f565b9050919050565b60006020820190508181036000830152613f2d81613875565b9050919050565b60006020820190508181036000830152613f4d816138db565b9050919050565b60006020820190508181036000830152613f6d81613941565b9050919050565b60006020820190508181036000830152613f8d81613981565b9050919050565b60006020820190508181036000830152613fad816139e7565b9050919050565b60006020820190508181036000830152613fcd81613a4d565b9050919050565b60006020820190508181036000830152613fed81613ab3565b9050919050565b6000602082019050818103600083015261400d81613b19565b9050919050565b6000602082019050818103600083015261402d81613b7f565b9050919050565b6000602082019050818103600083015261404d81613be5565b9050919050565b6000602082019050818103600083015261406d81613c4b565b9050919050565b60006020820190506140896000830184613cb1565b92915050565b60006060820190506140a46000830186613cb1565b81810360208301526140b6818561340c565b90506140c56040830184613cb1565b949350505050565b6000604051905081810181811067ffffffffffffffff821117156140f057600080fd5b8060405250919050565b600067ffffffffffffffff82111561411157600080fd5b602082029050602081019050919050565b600067ffffffffffffffff82111561413957600080fd5b602082029050602081019050919050565b600067ffffffffffffffff82111561416157600080fd5b601f19601f8301169050602081019050919050565b600067ffffffffffffffff82111561418d57600080fd5b601f19601f8301169050602081019050919050565b600067ffffffffffffffff8211156141b957600080fd5b601f19601f8301169050602081019050919050565b600081519050919050565b600081519050919050565b600081519050919050565b600082825260208201905092915050565b600082825260208201905092915050565b600061421c8261425b565b9050919050565b60008115159050919050565b60007fffffffff0000000000000000000000000000000000000000000000000000000082169050919050565b600073ffffffffffffffffffffffffffffffffffffffff82169050919050565b6000819050919050565b600061429082614297565b9050919050565b60006142a2826142a9565b9050919050565b60006142b48261425b565b9050919050565b82818337600083830152505050565b60005b838110156142e85780820151818401526020810190506142cd565b838111156142f7576000848401525b50505050565b6000601f19601f8301169050919050565b61431781614211565b811461432257600080fd5b50565b61432e81614223565b811461433957600080fd5b50565b6143458161422f565b811461435057600080fd5b50565b61435c8161427b565b811461436757600080fd5b5056fea365627a7a723158209f039c3a41ddc9c66ddea48aec475d316b9ddeac16cd0a11e53077d7e08def376c6578706572696d656e74616cf564736f6c63430005100040",
  "source": "pragma solidity ^0.5.16;\npragma experimental ABIEncoderV2;\n\nimport \"./ERC721Full.sol\";\nimport \"./Event.sol\";\n\ncontract Ticket is ERC721Full, Event {\n    mapping(uint256 => Ticket) public tickets;\n    // mapping(string => bool) _ticketExists;\n    uint256 public ticketCount = 0;\n    address public ticketContractOwner;\n\n    // mapping(uint256 => address) public ticketApprovals;\n    mapping(uint256 => address) public marketplaceTickets;\n    uint256[] public marketplaceTicketList;\n    uint256 public marketplaceTicketId;\n\n    constructor() public ERC721Full(\"Ticket\", \"TCK\") {\n        ticketContractOwner = msg.sender;\n    }\n\n    struct Ticket {\n        uint256 eventId;\n        string ticketDetail;\n        uint256 ticketId;\n    }\n\n    function incrementCount() internal {\n        ticketCount += 1;\n    }\n\n    function getTicketCount() public view returns (uint256) {\n        return ticketCount;\n    }\n\n    function getMarketplaceTicketId() public view returns (uint256) {\n        return marketplaceTicketId;\n    }\n\n    function mint(string[] memory _tickets) public {\n        for (uint256 index = 0; index < _tickets.length; index++) {\n            _mint(msg.sender, ticketCount);\n            tickets[ticketCount] = Ticket(\n                eventId - 1,\n                _tickets[index],\n                ticketCount\n            );\n            incrementCount();\n        }\n        // require(!_ticketExists[_ticket]);\n\n        // _ticketExists[_ticket] = true;\n    }\n\n    function mintByEvent(string[] memory _tickets, uint256 _eventId) public {\n        for (uint256 index = 0; index < _tickets.length; index++) {\n            _mint(msg.sender, ticketCount);\n            tickets[ticketCount] = Ticket(\n                _eventId,\n                _tickets[index],\n                ticketCount\n            );\n            incrementCount();\n        }\n    }\n\n    function multiTransferFrom(\n        address _from,\n        address _to,\n        uint256[] memory _tokenIds\n    ) public {\n        for (uint256 index = 0; index < _tokenIds.length; index++) {\n            safeTransferFrom(_from, _to, _tokenIds[index]);\n        }\n    }\n\n    function sellTicketsOnMarketplace(address seller, uint256 ticketId) public {\n        address owner = super.ownerOf(ticketId);\n        require(marketplaceTickets[ticketId] != seller, \"Ticket already on the marketplace\");\n        require(seller == owner, \"ERC721: seller is not the ticket owner\");\n        marketplaceTickets[ticketId] = seller;\n        marketplaceTicketList.push(ticketId);\n        marketplaceTicketId += 1;\n    }\n\n    function buyTicketOnMarketplace(address buyer, uint256 ticketId) public {\n        address owner = ownerOf(ticketId);\n        require(buyer != owner, \"ERC721: buyer is not the ticket owner\");\n        require(_existMarketplaceTicket(ticketId), \"Ticket is not sell on the mareketplace\");\n        transferFromByContractOwner(owner, buyer, ticketId);\n        marketplaceTickets[ticketId] = address(0);\n    }\n\n    function _existMarketplaceTicket(uint256 ticketId) internal view returns (bool) {\n        address owner = marketplaceTickets[ticketId];\n        return owner != address(0);\n    }\n\n    function transferFromByContractOwner(address from, address to, uint256 tokenId) public {\n        require(msg.sender == from || msg.sender == ticketContractOwner, \"ERC721: transfer caller is not owner nor approved\");\n\n        super._transferFrom(from, to, tokenId);\n    }\n\n    \n\n    function getTicketOnMarketplace(uint256 ticketId) public view returns (address) {\n        return marketplaceTickets[ticketId];\n    }\n\n    // function approveByOwner(address to, uint256 ticketId) public {\n    //     // address owner = ownerOf(ticketId);\n    //     // require(to != owner, \"ERC721: approval to current owner\");\n    //     // require(\n    //     //     to == ticketContractOwner,\n    //     //     \"ERC721: approve caller is not contract owner\"\n    //     // );\n    //     require(\n    //       ticketApprovals[ticketId] == to, \"exist\"\n    //     );\n    //     ticketApprovals[ticketId] = to;\n    //     // emit Approval(owner, ticketContractOwner, ticketId);\n    // }\n\n    // function getTicketApproved(uint256 ticketId) public view returns (address) {\n    //     // require(\n    //     //     _exists(ticketId),\n    //     //     \"ERC721: approved query for nonexistent token\"\n    //     // );\n\n    //     return ticketApprovals[ticketId];\n    // }\n}\n",
  "sourcePath": "/Users/timcheng/personal/fyp/smart-ticket-api/src/admin/client/src/smart-contract/contracts/Ticket.sol",
  "compiler": {
    "name": "solc",
    "version": "0.5.16+commit.9c3226ce.Emscripten.clang"
  },
  "schemaVersion": "3.3.2",
  "updatedAt": "2021-03-30T08:05:58.339Z",
  "networkType": "ethereum",
  "devdoc": {
    "methods": {
      "approve(address,uint256)": {
        "details": "Approves another address to transfer the given token ID The zero address indicates there is no approved address. There can only be one approved address per token at a given time. Can only be called by the token owner or an approved operator.",
        "params": {
          "to": "address to be approved for the given token ID",
          "tokenId": "uint256 ID of the token to be approved"
        }
      },
      "balanceOf(address)": {
        "details": "Gets the balance of the specified address.",
        "params": {
          "owner": "address to query the balance of"
        },
        "return": "uint256 representing the amount owned by the passed address"
      },
      "getApproved(uint256)": {
        "details": "Gets the approved address for a token ID, or zero if no address set Reverts if the token ID does not exist.",
        "params": {
          "tokenId": "uint256 ID of the token to query the approval of"
        },
        "return": "address currently approved for the given token ID"
      },
      "isApprovedForAll(address,address)": {
        "details": "Tells whether an operator is approved by a given owner.",
        "params": {
          "operator": "operator address which you want to query the approval of",
          "owner": "owner address which you want to query the approval of"
        },
        "return": "bool whether the given operator is approved by the given owner"
      },
      "name()": {
        "details": "Gets the token name.",
        "return": "string representing the token name"
      },
      "ownerOf(uint256)": {
        "details": "Gets the owner of the specified token ID.",
        "params": {
          "tokenId": "uint256 ID of the token to query the owner of"
        },
        "return": "address currently marked as the owner of the given token ID"
      },
      "safeTransferFrom(address,address,uint256)": {
        "details": "Safely transfers the ownership of a given token ID to another address If the target address is a contract, it must implement `onERC721Received`, which is called upon a safe transfer, and return the magic value `bytes4(keccak256(\"onERC721Received(address,address,uint256,bytes)\"))`; otherwise, the transfer is reverted. Requires the msg.sender to be the owner, approved, or operator",
        "params": {
          "from": "current owner of the token",
          "to": "address to receive the ownership of the given token ID",
          "tokenId": "uint256 ID of the token to be transferred"
        }
      },
      "safeTransferFrom(address,address,uint256,bytes)": {
        "details": "Safely transfers the ownership of a given token ID to another address If the target address is a contract, it must implement `onERC721Received`, which is called upon a safe transfer, and return the magic value `bytes4(keccak256(\"onERC721Received(address,address,uint256,bytes)\"))`; otherwise, the transfer is reverted. Requires the msg.sender to be the owner, approved, or operator",
        "params": {
          "_data": "bytes data to send along with a safe transfer check",
          "from": "current owner of the token",
          "to": "address to receive the ownership of the given token ID",
          "tokenId": "uint256 ID of the token to be transferred"
        }
      },
      "setApprovalForAll(address,bool)": {
        "details": "Sets or unsets the approval of a given operator An operator is allowed to transfer all tokens of the sender on their behalf.",
        "params": {
          "approved": "representing the status of the approval to be set",
          "to": "operator address to set the approval"
        }
      },
      "supportsInterface(bytes4)": {
        "details": "See `IERC165.supportsInterface`.     * Time complexity O(1), guaranteed to always use less than 30 000 gas."
      },
      "symbol()": {
        "details": "Gets the token symbol.",
        "return": "string representing the token symbol"
      },
      "tokenByIndex(uint256)": {
        "details": "Gets the token ID at a given index of all the tokens in this contract Reverts if the index is greater or equal to the total number of tokens.",
        "params": {
          "index": "uint256 representing the index to be accessed of the tokens list"
        },
        "return": "uint256 token ID at the given index of the tokens list"
      },
      "tokenOfOwnerByIndex(address,uint256)": {
        "details": "Gets the token ID at a given index of the tokens list of the requested owner.",
        "params": {
          "index": "uint256 representing the index to be accessed of the requested tokens list",
          "owner": "address owning the tokens list to be accessed"
        },
        "return": "uint256 token ID at the given index of the tokens list owned by the requested address"
      },
      "tokenURI(uint256)": {
        "details": "Returns an URI for a given token ID. Throws if the token ID does not exist. May return an empty string.",
        "params": {
          "tokenId": "uint256 ID of the token to query"
        }
      },
      "totalSupply()": {
        "details": "Gets the total amount of tokens stored by the contract.",
        "return": "uint256 representing the total amount of tokens"
      },
      "transferFrom(address,address,uint256)": {
        "details": "Transfers the ownership of a given token ID to another address. Usage of this method is discouraged, use `safeTransferFrom` whenever possible. Requires the msg.sender to be the owner, approved, or operator.",
        "params": {
          "from": "current owner of the token",
          "to": "address to receive the ownership of the given token ID",
          "tokenId": "uint256 ID of the token to be transferred"
        }
      }
    }
  },
  "userdoc": {
    "methods": {}
  }
}