{
  "contractName": "Ticket",
  "abi": [
    {
      "inputs": [],
      "payable": false,
      "stateMutability": "nonpayable",
      "type": "constructor"
    },
    {
      "anonymous": false,
      "inputs": [
        {
          "indexed": true,
          "internalType": "address",
          "name": "owner",
          "type": "address"
        },
        {
          "indexed": true,
          "internalType": "address",
          "name": "approved",
          "type": "address"
        },
        {
          "indexed": true,
          "internalType": "uint256",
          "name": "tokenId",
          "type": "uint256"
        }
      ],
      "name": "Approval",
      "type": "event"
    },
    {
      "anonymous": false,
      "inputs": [
        {
          "indexed": true,
          "internalType": "address",
          "name": "owner",
          "type": "address"
        },
        {
          "indexed": true,
          "internalType": "address",
          "name": "operator",
          "type": "address"
        },
        {
          "indexed": false,
          "internalType": "bool",
          "name": "approved",
          "type": "bool"
        }
      ],
      "name": "ApprovalForAll",
      "type": "event"
    },
    {
      "anonymous": false,
      "inputs": [
        {
          "indexed": true,
          "internalType": "address",
          "name": "from",
          "type": "address"
        },
        {
          "indexed": true,
          "internalType": "address",
          "name": "to",
          "type": "address"
        },
        {
          "indexed": true,
          "internalType": "uint256",
          "name": "tokenId",
          "type": "uint256"
        }
      ],
      "name": "Transfer",
      "type": "event"
    },
    {
      "constant": false,
      "inputs": [
        {
          "internalType": "address",
          "name": "_approve",
          "type": "address"
        }
      ],
      "name": "addApproval",
      "outputs": [],
      "payable": false,
      "stateMutability": "nonpayable",
      "type": "function"
    },
    {
      "constant": false,
      "inputs": [
        {
          "internalType": "address",
          "name": "to",
          "type": "address"
        },
        {
          "internalType": "uint256",
          "name": "tokenId",
          "type": "uint256"
        }
      ],
      "name": "approve",
      "outputs": [],
      "payable": false,
      "stateMutability": "nonpayable",
      "type": "function"
    },
    {
      "constant": true,
      "inputs": [],
      "name": "approveId",
      "outputs": [
        {
          "internalType": "uint256",
          "name": "",
          "type": "uint256"
        }
      ],
      "payable": false,
      "stateMutability": "view",
      "type": "function"
    },
    {
      "constant": true,
      "inputs": [
        {
          "internalType": "address",
          "name": "",
          "type": "address"
        }
      ],
      "name": "approves",
      "outputs": [
        {
          "internalType": "bool",
          "name": "",
          "type": "bool"
        }
      ],
      "payable": false,
      "stateMutability": "view",
      "type": "function"
    },
    {
      "constant": true,
      "inputs": [
        {
          "internalType": "address",
          "name": "owner",
          "type": "address"
        }
      ],
      "name": "balanceOf",
      "outputs": [
        {
          "internalType": "uint256",
          "name": "",
          "type": "uint256"
        }
      ],
      "payable": false,
      "stateMutability": "view",
      "type": "function"
    },
    {
      "constant": false,
      "inputs": [
        {
          "internalType": "address",
          "name": "_owner",
          "type": "address"
        },
        {
          "internalType": "string",
          "name": "_detail",
          "type": "string"
        }
      ],
      "name": "createEvent",
      "outputs": [],
      "payable": false,
      "stateMutability": "nonpayable",
      "type": "function"
    },
    {
      "constant": true,
      "inputs": [],
      "name": "eventContractOwner",
      "outputs": [
        {
          "internalType": "address",
          "name": "",
          "type": "address"
        }
      ],
      "payable": false,
      "stateMutability": "view",
      "type": "function"
    },
    {
      "constant": true,
      "inputs": [],
      "name": "eventId",
      "outputs": [
        {
          "internalType": "uint256",
          "name": "",
          "type": "uint256"
        }
      ],
      "payable": false,
      "stateMutability": "view",
      "type": "function"
    },
    {
      "constant": true,
      "inputs": [
        {
          "internalType": "uint256",
          "name": "",
          "type": "uint256"
        }
      ],
      "name": "eventOwner",
      "outputs": [
        {
          "internalType": "address",
          "name": "",
          "type": "address"
        }
      ],
      "payable": false,
      "stateMutability": "view",
      "type": "function"
    },
    {
      "constant": true,
      "inputs": [
        {
          "internalType": "address",
          "name": "_owner",
          "type": "address"
        }
      ],
      "name": "eventOwnerBalanceOf",
      "outputs": [
        {
          "internalType": "uint256",
          "name": "",
          "type": "uint256"
        }
      ],
      "payable": false,
      "stateMutability": "view",
      "type": "function"
    },
    {
      "constant": true,
      "inputs": [
        {
          "internalType": "uint256",
          "name": "",
          "type": "uint256"
        }
      ],
      "name": "events",
      "outputs": [
        {
          "internalType": "address",
          "name": "owner",
          "type": "address"
        },
        {
          "internalType": "string",
          "name": "detail",
          "type": "string"
        }
      ],
      "payable": false,
      "stateMutability": "view",
      "type": "function"
    },
    {
      "constant": true,
      "inputs": [],
      "name": "getApproveId",
      "outputs": [
        {
          "internalType": "uint256",
          "name": "",
          "type": "uint256"
        }
      ],
      "payable": false,
      "stateMutability": "view",
      "type": "function"
    },
    {
      "constant": true,
      "inputs": [
        {
          "internalType": "uint256",
          "name": "tokenId",
          "type": "uint256"
        }
      ],
      "name": "getApproved",
      "outputs": [
        {
          "internalType": "address",
          "name": "",
          "type": "address"
        }
      ],
      "payable": false,
      "stateMutability": "view",
      "type": "function"
    },
    {
      "constant": true,
      "inputs": [
        {
          "internalType": "uint256",
          "name": "_eventId",
          "type": "uint256"
        }
      ],
      "name": "getEvent",
      "outputs": [
        {
          "internalType": "string",
          "name": "",
          "type": "string"
        }
      ],
      "payable": false,
      "stateMutability": "view",
      "type": "function"
    },
    {
      "constant": true,
      "inputs": [],
      "name": "getEventContractOwner",
      "outputs": [
        {
          "internalType": "address",
          "name": "",
          "type": "address"
        }
      ],
      "payable": false,
      "stateMutability": "view",
      "type": "function"
    },
    {
      "constant": true,
      "inputs": [],
      "name": "getEventId",
      "outputs": [
        {
          "internalType": "uint256",
          "name": "",
          "type": "uint256"
        }
      ],
      "payable": false,
      "stateMutability": "view",
      "type": "function"
    },
    {
      "constant": true,
      "inputs": [
        {
          "internalType": "uint256",
          "name": "_eventId",
          "type": "uint256"
        }
      ],
      "name": "getEventOwner",
      "outputs": [
        {
          "internalType": "address",
          "name": "",
          "type": "address"
        }
      ],
      "payable": false,
      "stateMutability": "view",
      "type": "function"
    },
    {
      "constant": true,
      "inputs": [
        {
          "internalType": "address",
          "name": "_approve",
          "type": "address"
        }
      ],
      "name": "isApproval",
      "outputs": [
        {
          "internalType": "bool",
          "name": "",
          "type": "bool"
        }
      ],
      "payable": false,
      "stateMutability": "view",
      "type": "function"
    },
    {
      "constant": true,
      "inputs": [
        {
          "internalType": "address",
          "name": "owner",
          "type": "address"
        },
        {
          "internalType": "address",
          "name": "operator",
          "type": "address"
        }
      ],
      "name": "isApprovedForAll",
      "outputs": [
        {
          "internalType": "bool",
          "name": "",
          "type": "bool"
        }
      ],
      "payable": false,
      "stateMutability": "view",
      "type": "function"
    },
    {
      "constant": true,
      "inputs": [
        {
          "internalType": "uint256",
          "name": "",
          "type": "uint256"
        }
      ],
      "name": "marketplaceTickets",
      "outputs": [
        {
          "internalType": "address",
          "name": "",
          "type": "address"
        }
      ],
      "payable": false,
      "stateMutability": "view",
      "type": "function"
    },
    {
      "constant": true,
      "inputs": [],
      "name": "name",
      "outputs": [
        {
          "internalType": "string",
          "name": "",
          "type": "string"
        }
      ],
      "payable": false,
      "stateMutability": "view",
      "type": "function"
    },
    {
      "constant": true,
      "inputs": [
        {
          "internalType": "uint256",
          "name": "tokenId",
          "type": "uint256"
        }
      ],
      "name": "ownerOf",
      "outputs": [
        {
          "internalType": "address",
          "name": "",
          "type": "address"
        }
      ],
      "payable": false,
      "stateMutability": "view",
      "type": "function"
    },
    {
      "constant": false,
      "inputs": [
        {
          "internalType": "address",
          "name": "_approve",
          "type": "address"
        }
      ],
      "name": "removeApproval",
      "outputs": [],
      "payable": false,
      "stateMutability": "nonpayable",
      "type": "function"
    },
    {
      "constant": false,
      "inputs": [
        {
          "internalType": "address",
          "name": "from",
          "type": "address"
        },
        {
          "internalType": "address",
          "name": "to",
          "type": "address"
        },
        {
          "internalType": "uint256",
          "name": "tokenId",
          "type": "uint256"
        }
      ],
      "name": "safeTransferFrom",
      "outputs": [],
      "payable": false,
      "stateMutability": "nonpayable",
      "type": "function"
    },
    {
      "constant": false,
      "inputs": [
        {
          "internalType": "address",
          "name": "from",
          "type": "address"
        },
        {
          "internalType": "address",
          "name": "to",
          "type": "address"
        },
        {
          "internalType": "uint256",
          "name": "tokenId",
          "type": "uint256"
        },
        {
          "internalType": "bytes",
          "name": "_data",
          "type": "bytes"
        }
      ],
      "name": "safeTransferFrom",
      "outputs": [],
      "payable": false,
      "stateMutability": "nonpayable",
      "type": "function"
    },
    {
      "constant": false,
      "inputs": [
        {
          "internalType": "address",
          "name": "to",
          "type": "address"
        },
        {
          "internalType": "bool",
          "name": "approved",
          "type": "bool"
        }
      ],
      "name": "setApprovalForAll",
      "outputs": [],
      "payable": false,
      "stateMutability": "nonpayable",
      "type": "function"
    },
    {
      "constant": true,
      "inputs": [
        {
          "internalType": "bytes4",
          "name": "interfaceId",
          "type": "bytes4"
        }
      ],
      "name": "supportsInterface",
      "outputs": [
        {
          "internalType": "bool",
          "name": "",
          "type": "bool"
        }
      ],
      "payable": false,
      "stateMutability": "view",
      "type": "function"
    },
    {
      "constant": true,
      "inputs": [],
      "name": "symbol",
      "outputs": [
        {
          "internalType": "string",
          "name": "",
          "type": "string"
        }
      ],
      "payable": false,
      "stateMutability": "view",
      "type": "function"
    },
    {
      "constant": true,
      "inputs": [],
      "name": "ticketContractOwner",
      "outputs": [
        {
          "internalType": "address",
          "name": "",
          "type": "address"
        }
      ],
      "payable": false,
      "stateMutability": "view",
      "type": "function"
    },
    {
      "constant": true,
      "inputs": [],
      "name": "ticketCount",
      "outputs": [
        {
          "internalType": "uint256",
          "name": "",
          "type": "uint256"
        }
      ],
      "payable": false,
      "stateMutability": "view",
      "type": "function"
    },
    {
      "constant": true,
      "inputs": [
        {
          "internalType": "uint256",
          "name": "",
          "type": "uint256"
        }
      ],
      "name": "tickets",
      "outputs": [
        {
          "internalType": "uint256",
          "name": "eventId",
          "type": "uint256"
        },
        {
          "internalType": "string",
          "name": "ticketDetail",
          "type": "string"
        },
        {
          "internalType": "uint256",
          "name": "ticketId",
          "type": "uint256"
        }
      ],
      "payable": false,
      "stateMutability": "view",
      "type": "function"
    },
    {
      "constant": true,
      "inputs": [
        {
          "internalType": "uint256",
          "name": "index",
          "type": "uint256"
        }
      ],
      "name": "tokenByIndex",
      "outputs": [
        {
          "internalType": "uint256",
          "name": "",
          "type": "uint256"
        }
      ],
      "payable": false,
      "stateMutability": "view",
      "type": "function"
    },
    {
      "constant": true,
      "inputs": [
        {
          "internalType": "address",
          "name": "owner",
          "type": "address"
        },
        {
          "internalType": "uint256",
          "name": "index",
          "type": "uint256"
        }
      ],
      "name": "tokenOfOwnerByIndex",
      "outputs": [
        {
          "internalType": "uint256",
          "name": "",
          "type": "uint256"
        }
      ],
      "payable": false,
      "stateMutability": "view",
      "type": "function"
    },
    {
      "constant": true,
      "inputs": [
        {
          "internalType": "uint256",
          "name": "tokenId",
          "type": "uint256"
        }
      ],
      "name": "tokenURI",
      "outputs": [
        {
          "internalType": "string",
          "name": "",
          "type": "string"
        }
      ],
      "payable": false,
      "stateMutability": "view",
      "type": "function"
    },
    {
      "constant": true,
      "inputs": [],
      "name": "totalSupply",
      "outputs": [
        {
          "internalType": "uint256",
          "name": "",
          "type": "uint256"
        }
      ],
      "payable": false,
      "stateMutability": "view",
      "type": "function"
    },
    {
      "constant": false,
      "inputs": [
        {
          "internalType": "address",
          "name": "from",
          "type": "address"
        },
        {
          "internalType": "address",
          "name": "to",
          "type": "address"
        },
        {
          "internalType": "uint256",
          "name": "tokenId",
          "type": "uint256"
        }
      ],
      "name": "transferFrom",
      "outputs": [],
      "payable": false,
      "stateMutability": "nonpayable",
      "type": "function"
    },
    {
      "constant": true,
      "inputs": [],
      "name": "getTicketCount",
      "outputs": [
        {
          "internalType": "uint256",
          "name": "",
          "type": "uint256"
        }
      ],
      "payable": false,
      "stateMutability": "view",
      "type": "function"
    },
    {
      "constant": false,
      "inputs": [
        {
          "internalType": "string[]",
          "name": "_tickets",
          "type": "string[]"
        }
      ],
      "name": "mint",
      "outputs": [],
      "payable": false,
      "stateMutability": "nonpayable",
      "type": "function"
    },
    {
      "constant": false,
      "inputs": [
        {
          "internalType": "string[]",
          "name": "_tickets",
          "type": "string[]"
        },
        {
          "internalType": "uint256",
          "name": "_eventId",
          "type": "uint256"
        }
      ],
      "name": "mintByEvent",
      "outputs": [],
      "payable": false,
      "stateMutability": "nonpayable",
      "type": "function"
    },
    {
      "constant": false,
      "inputs": [
        {
          "internalType": "address",
          "name": "_from",
          "type": "address"
        },
        {
          "internalType": "address",
          "name": "_to",
          "type": "address"
        },
        {
          "internalType": "uint256[]",
          "name": "_tokenIds",
          "type": "uint256[]"
        }
      ],
      "name": "multiTransferFrom",
      "outputs": [],
      "payable": false,
      "stateMutability": "nonpayable",
      "type": "function"
    },
    {
      "constant": false,
      "inputs": [
        {
          "internalType": "address",
          "name": "seller",
          "type": "address"
        },
        {
          "internalType": "uint256",
          "name": "ticketId",
          "type": "uint256"
        }
      ],
      "name": "sellTicketsOnMarketplace",
      "outputs": [],
      "payable": false,
      "stateMutability": "nonpayable",
      "type": "function"
    },
    {
      "constant": true,
      "inputs": [
        {
          "internalType": "uint256",
          "name": "ticketId",
          "type": "uint256"
        }
      ],
      "name": "getTicketOnMarketplace",
      "outputs": [
        {
          "internalType": "address",
          "name": "",
          "type": "address"
        }
      ],
      "payable": false,
      "stateMutability": "view",
      "type": "function"
    }
  ],
  "bytecode": "0x60806040526000600e556000600f5560006014553480156200002057600080fd5b506040518060400160405280600681526020017f5469636b657400000000000000000000000000000000000000000000000000008152506040518060400160405280600381526020017f54434b00000000000000000000000000000000000000000000000000000000008152508181620000a76301ffc9a760e01b620001ad60201b60201c565b620000bf6380ac58cd60e01b620001ad60201b60201c565b620000d763780e9d6360e01b620001ad60201b60201c565b8160099080519060200190620000ef92919062000285565b5080600a90805190602001906200010892919062000285565b5062000121635b5e139f60e01b620001ad60201b60201c565b5050505033601060006101000a81548173ffffffffffffffffffffffffffffffffffffffff021916908373ffffffffffffffffffffffffffffffffffffffff16021790555033601560006101000a81548173ffffffffffffffffffffffffffffffffffffffff021916908373ffffffffffffffffffffffffffffffffffffffff160217905550620003a9565b63ffffffff60e01b817bffffffffffffffffffffffffffffffffffffffffffffffffffffffff1916141562000219576040517f08c379a0000000000000000000000000000000000000000000000000000000008152600401620002109062000376565b60405180910390fd5b6001600080837bffffffffffffffffffffffffffffffffffffffffffffffffffffffff19167bffffffffffffffffffffffffffffffffffffffffffffffffffffffff1916815260200190815260200160002060006101000a81548160ff02191690831515021790555050565b828054600181600116156101000203166002900490600052602060002090601f016020900481019282601f10620002c857805160ff1916838001178555620002f9565b82800160010185558215620002f9579182015b82811115620002f8578251825591602001919060010190620002db565b5b5090506200030891906200030c565b5090565b6200033191905b808211156200032d57600081600090555060010162000313565b5090565b90565b600062000343601c8362000398565b91507f4552433136353a20696e76616c696420696e74657266616365206964000000006000830152602082019050919050565b60006020820190508181036000830152620003918162000334565b9050919050565b600082825260208201905092915050565b613ee980620003b96000396000f3fe608060405234801561001057600080fd5b506004361061025e5760003560e01c80636d1884e011610146578063b88d4fde116100c3578063d37f4acf11610087578063d37f4acf14610772578063dc8636d5146107a2578063e985e9c5146107d2578063f39346f314610802578063f487c60214610832578063fe210f691461084e5761025e565b8063b88d4fde146106ce578063c13cf59a146106ea578063c87b56dd14610708578063cb44211e14610738578063cfbd900f146107545761025e565b80638a62462e1161010a5780638a62462e1461062a57806395d89b4114610648578063a22cb46514610666578063b4af93ad14610682578063b4d59d271461069e5761025e565b80636d1884e0146105745780636fa3b20b146105a457806370a08231146105c057806379a9e8eb146105f05780637cab5e8c1461060e5761025e565b80632f745c59116101df5780634f6ccce7116101a35780634f6ccce71461047a57806350b44712146104aa57806354f7a0e6146104dc5780635768f2711461050c5780636352211e14610528578063652d4725146105585761025e565b80632f745c59146103c2578063323c635a146103f2578063331b27631461041057806342842e0e146104405780634a17bbde1461045c5761025e565b80630b791430116102265780630b7914301461031b57806318160ddd1461034c57806319717d541461036a57806321c63a471461038857806323b872dd146103a65761025e565b806301ffc9a71461026357806306fdde0314610293578063081812fc146102b1578063089cdd0c146102e1578063095ea7b3146102ff575b600080fd5b61027d60048036036102789190810190612f3a565b61087e565b60405161028a91906138d3565b60405180910390f35b61029b6108e5565b6040516102a891906138ee565b60405180910390f35b6102cb60048036036102c69190810190612f8c565b610987565b6040516102d8919061383c565b60405180910390f35b6102e9610a0c565b6040516102f69190613bb0565b60405180910390f35b61031960048036036103149190810190612e69565b610a12565b005b61033560048036036103309190810190612f8c565b610bbf565b6040516103439291906138a3565b60405180910390f35b610354610c9b565b6040516103619190613bb0565b60405180910390f35b610372610ca8565b60405161037f9190613bb0565b60405180910390f35b610390610cae565b60405161039d9190613bb0565b60405180910390f35b6103c060048036036103bb9190810190612d0f565b610cb8565b005b6103dc60048036036103d79190810190612e69565b610d11565b6040516103e99190613bb0565b60405180910390f35b6103fa610dba565b6040516104079190613bb0565b60405180910390f35b61042a60048036036104259190810190612c43565b610dc4565b60405161043791906138d3565b60405180910390f35b61045a60048036036104559190810190612d0f565b610e1a565b005b610464610e3a565b6040516104719190613bb0565b60405180910390f35b610494600480360361048f9190810190612f8c565b610e44565b6040516104a19190613bb0565b60405180910390f35b6104c460048036036104bf9190810190612f8c565b610eae565b6040516104d393929190613bcb565b60405180910390f35b6104f660048036036104f19190810190612f8c565b610f70565b604051610503919061383c565b60405180910390f35b61052660048036036105219190810190612ea5565b610fa3565b005b610542600480360361053d9190810190612f8c565b611055565b60405161054f919061383c565b60405180910390f35b610572600480360361056d9190810190612e15565b611107565b005b61058e60048036036105899190810190612f8c565b611255565b60405161059b91906138ee565b60405180910390f35b6105be60048036036105b99190810190612e69565b61130d565b005b6105da60048036036105d59190810190612c43565b611481565b6040516105e79190613bb0565b60405180910390f35b6105f8611540565b604051610605919061383c565b60405180910390f35b61062860048036036106239190810190612c43565b611566565b005b610632611651565b60405161063f919061383c565b60405180910390f35b61065061167b565b60405161065d91906138ee565b60405180910390f35b610680600480360361067b9190810190612dd9565b61171d565b005b61069c60048036036106979190810190612ee6565b611889565b005b6106b860048036036106b39190810190612f8c565b611937565b6040516106c5919061383c565b60405180910390f35b6106e860048036036106e39190810190612d5e565b61196a565b005b6106f26119c6565b6040516106ff919061383c565b60405180910390f35b610722600480360361071d9190810190612f8c565b6119ec565b60405161072f91906138ee565b60405180910390f35b610752600480360361074d9190810190612c43565b611ae9565b005b61075c611bdc565b6040516107699190613bb0565b60405180910390f35b61078c60048036036107879190810190612c43565b611be2565b60405161079991906138d3565b60405180910390f35b6107bc60048036036107b79190810190612f8c565b611c02565b6040516107c9919061383c565b60405180910390f35b6107ec60048036036107e79190810190612c6c565b611c3f565b6040516107f991906138d3565b60405180910390f35b61081c60048036036108179190810190612c43565b611cd3565b6040516108299190613bb0565b60405180910390f35b61084c60048036036108479190810190612ca8565b611db4565b005b61086860048036036108639190810190612f8c565b611df4565b604051610875919061383c565b60405180910390f35b6000806000837bffffffffffffffffffffffffffffffffffffffffffffffffffffffff19167bffffffffffffffffffffffffffffffffffffffffffffffffffffffff1916815260200190815260200160002060009054906101000a900460ff169050919050565b606060098054600181600116156101000203166002900480601f01602080910402602001604051908101604052809291908181526020018280546001816001161561010002031660029004801561097d5780601f106109525761010080835404028352916020019161097d565b820191906000526020600020905b81548152906001019060200180831161096057829003601f168201915b5050505050905090565b600061099282611e31565b6109d1576040517f08c379a00000000000000000000000000000000000000000000000000000000081526004016109c890613ab0565b60405180910390fd5b6002600083815260200190815260200160002060009054906101000a900473ffffffffffffffffffffffffffffffffffffffff169050919050565b600e5481565b6000610a1d82611055565b90508073ffffffffffffffffffffffffffffffffffffffff168373ffffffffffffffffffffffffffffffffffffffff161415610a8e576040517f08c379a0000000000000000000000000000000000000000000000000000000008152600401610a8590613b10565b60405180910390fd5b8073ffffffffffffffffffffffffffffffffffffffff163373ffffffffffffffffffffffffffffffffffffffff161480610ace5750610acd8133611c3f565b5b610b0d576040517f08c379a0000000000000000000000000000000000000000000000000000000008152600401610b0490613a30565b60405180910390fd5b826002600084815260200190815260200160002060006101000a81548173ffffffffffffffffffffffffffffffffffffffff021916908373ffffffffffffffffffffffffffffffffffffffff160217905550818373ffffffffffffffffffffffffffffffffffffffff168273ffffffffffffffffffffffffffffffffffffffff167f8c5be1e5ebec7d5bd14f71427d1e84f3dd0314c0f7b2291e5b200ac8c7c3b92560405160405180910390a4505050565b600c6020528060005260406000206000915090508060000160009054906101000a900473ffffffffffffffffffffffffffffffffffffffff1690806001018054600181600116156101000203166002900480601f016020809104026020016040519081016040528092919081815260200182805460018160011615610100020316600290048015610c915780601f10610c6657610100808354040283529160200191610c91565b820191906000526020600020905b815481529060010190602001808311610c7457829003601f168201915b5050505050905082565b6000600780549050905090565b600f5481565b6000601454905090565b610cc23382611ea3565b610d01576040517f08c379a0000000000000000000000000000000000000000000000000000000008152600401610cf890613b50565b60405180910390fd5b610d0c838383611f81565b505050565b6000610d1c83611481565b8210610d5d576040517f08c379a0000000000000000000000000000000000000000000000000000000008152600401610d5490613910565b60405180910390fd5b600560008473ffffffffffffffffffffffffffffffffffffffff1673ffffffffffffffffffffffffffffffffffffffff1681526020019081526020016000208281548110610da757fe5b9060005260206000200154905092915050565b6000600f54905090565b6000600d60008373ffffffffffffffffffffffffffffffffffffffff1673ffffffffffffffffffffffffffffffffffffffff16815260200190815260200160002060009054906101000a900460ff169050919050565b610e358383836040518060200160405280600081525061196a565b505050565b6000600e54905090565b6000610e4e610c9b565b8210610e8f576040517f08c379a0000000000000000000000000000000000000000000000000000000008152600401610e8690613b70565b60405180910390fd5b60078281548110610e9c57fe5b90600052602060002001549050919050565b6013602052806000526040600020600091509050806000015490806001018054600181600116156101000203166002900480601f016020809104026020016040519081016040528092919081815260200182805460018160011615610100020316600290048015610f605780601f10610f3557610100808354040283529160200191610f60565b820191906000526020600020905b815481529060010190602001808311610f4357829003601f168201915b5050505050908060020154905083565b60166020528060005260406000206000915054906101000a900473ffffffffffffffffffffffffffffffffffffffff1681565b60008090505b815181101561105157610fbe33601454611fa5565b60405180606001604052806001600e54038152602001838381518110610fe057fe5b6020026020010151815260200160145481525060136000601454815260200190815260200160002060008201518160000155602082015181600101908051906020019061102e929190612916565b5060408201518160020155905050611044611fc6565b8080600101915050610fa9565b5050565b6000806001600084815260200190815260200160002060009054906101000a900473ffffffffffffffffffffffffffffffffffffffff169050600073ffffffffffffffffffffffffffffffffffffffff168173ffffffffffffffffffffffffffffffffffffffff1614156110fe576040517f08c379a00000000000000000000000000000000000000000000000000000000081526004016110f590613a70565b60405180910390fd5b80915050919050565b60405180604001604052808373ffffffffffffffffffffffffffffffffffffffff16815260200182815250600c6000600e54815260200190815260200160002060008201518160000160006101000a81548173ffffffffffffffffffffffffffffffffffffffff021916908373ffffffffffffffffffffffffffffffffffffffff16021790555060208201518160010190805190602001906111aa929190612916565b509050508160116000600e54815260200190815260200160002060006101000a81548173ffffffffffffffffffffffffffffffffffffffff021916908373ffffffffffffffffffffffffffffffffffffffff160217905550611249601260008473ffffffffffffffffffffffffffffffffffffffff1673ffffffffffffffffffffffffffffffffffffffff168152602001908152602001600020611fd9565b611251611fef565b5050565b6060600c60008381526020019081526020016000206001018054600181600116156101000203166002900480601f0160208091040260200160405190810160405280929190818152602001828054600181600116156101000203166002900480156113015780601f106112d657610100808354040283529160200191611301565b820191906000526020600020905b8154815290600101906020018083116112e457829003601f168201915b50505050509050919050565b600061131882611055565b90508273ffffffffffffffffffffffffffffffffffffffff166016600084815260200190815260200160002060009054906101000a900473ffffffffffffffffffffffffffffffffffffffff1673ffffffffffffffffffffffffffffffffffffffff1614156113bc576040517f08c379a00000000000000000000000000000000000000000000000000000000081526004016113b390613970565b60405180910390fd5b8073ffffffffffffffffffffffffffffffffffffffff168373ffffffffffffffffffffffffffffffffffffffff161461142a576040517f08c379a000000000000000000000000000000000000000000000000000000000815260040161142190613b90565b60405180910390fd5b826016600084815260200190815260200160002060006101000a81548173ffffffffffffffffffffffffffffffffffffffff021916908373ffffffffffffffffffffffffffffffffffffffff160217905550505050565b60008073ffffffffffffffffffffffffffffffffffffffff168273ffffffffffffffffffffffffffffffffffffffff1614156114f2576040517f08c379a00000000000000000000000000000000000000000000000000000000081526004016114e990613a50565b60405180910390fd5b611539600360008473ffffffffffffffffffffffffffffffffffffffff1673ffffffffffffffffffffffffffffffffffffffff168152602001908152602001600020612002565b9050919050565b601560009054906101000a900473ffffffffffffffffffffffffffffffffffffffff1681565b3373ffffffffffffffffffffffffffffffffffffffff16601060009054906101000a900473ffffffffffffffffffffffffffffffffffffffff1673ffffffffffffffffffffffffffffffffffffffff16146115f6576040517f08c379a00000000000000000000000000000000000000000000000000000000081526004016115ed90613a10565b60405180910390fd5b6000600d60008373ffffffffffffffffffffffffffffffffffffffff1673ffffffffffffffffffffffffffffffffffffffff16815260200190815260200160002060006101000a81548160ff02191690831515021790555050565b6000601060009054906101000a900473ffffffffffffffffffffffffffffffffffffffff16905090565b6060600a8054600181600116156101000203166002900480601f0160208091040260200160405190810160405280929190818152602001828054600181600116156101000203166002900480156117135780601f106116e857610100808354040283529160200191611713565b820191906000526020600020905b8154815290600101906020018083116116f657829003601f168201915b5050505050905090565b3373ffffffffffffffffffffffffffffffffffffffff168273ffffffffffffffffffffffffffffffffffffffff16141561178c576040517f08c379a0000000000000000000000000000000000000000000000000000000008152600401611783906139b0565b60405180910390fd5b80600460003373ffffffffffffffffffffffffffffffffffffffff1673ffffffffffffffffffffffffffffffffffffffff16815260200190815260200160002060008473ffffffffffffffffffffffffffffffffffffffff1673ffffffffffffffffffffffffffffffffffffffff16815260200190815260200160002060006101000a81548160ff0219169083151502179055508173ffffffffffffffffffffffffffffffffffffffff163373ffffffffffffffffffffffffffffffffffffffff167f17307eab39ab6107e8899845ad3d59bd9653f200f220920489ca2b5937696c318360405161187d91906138d3565b60405180910390a35050565b60008090505b8251811015611932576118a433601454611fa5565b60405180606001604052808381526020018483815181106118c157fe5b6020026020010151815260200160145481525060136000601454815260200190815260200160002060008201518160000155602082015181600101908051906020019061190f929190612916565b5060408201518160020155905050611925611fc6565b808060010191505061188f565b505050565b60116020528060005260406000206000915054906101000a900473ffffffffffffffffffffffffffffffffffffffff1681565b611975848484610cb8565b61198184848484612010565b6119c0576040517f08c379a00000000000000000000000000000000000000000000000000000000081526004016119b790613930565b60405180910390fd5b50505050565b601060009054906101000a900473ffffffffffffffffffffffffffffffffffffffff1681565b60606119f782611e31565b611a36576040517f08c379a0000000000000000000000000000000000000000000000000000000008152600401611a2d90613af0565b60405180910390fd5b600b60008381526020019081526020016000208054600181600116156101000203166002900480601f016020809104026020016040519081016040528092919081815260200182805460018160011615610100020316600290048015611add5780601f10611ab257610100808354040283529160200191611add565b820191906000526020600020905b815481529060010190602001808311611ac057829003601f168201915b50505050509050919050565b3373ffffffffffffffffffffffffffffffffffffffff16601060009054906101000a900473ffffffffffffffffffffffffffffffffffffffff1673ffffffffffffffffffffffffffffffffffffffff1614611b79576040517f08c379a0000000000000000000000000000000000000000000000000000000008152600401611b7090613a10565b60405180910390fd5b6001600d60008373ffffffffffffffffffffffffffffffffffffffff1673ffffffffffffffffffffffffffffffffffffffff16815260200190815260200160002060006101000a81548160ff021916908315150217905550611bd9612127565b50565b60145481565b600d6020528060005260406000206000915054906101000a900460ff1681565b60006016600083815260200190815260200160002060009054906101000a900473ffffffffffffffffffffffffffffffffffffffff169050919050565b6000600460008473ffffffffffffffffffffffffffffffffffffffff1673ffffffffffffffffffffffffffffffffffffffff16815260200190815260200160002060008373ffffffffffffffffffffffffffffffffffffffff1673ffffffffffffffffffffffffffffffffffffffff16815260200190815260200160002060009054906101000a900460ff16905092915050565b60008073ffffffffffffffffffffffffffffffffffffffff16601060009054906101000a900473ffffffffffffffffffffffffffffffffffffffff1673ffffffffffffffffffffffffffffffffffffffff161415611d66576040517f08c379a0000000000000000000000000000000000000000000000000000000008152600401611d5d90613b30565b60405180910390fd5b611dad601260008473ffffffffffffffffffffffffffffffffffffffff1673ffffffffffffffffffffffffffffffffffffffff168152602001908152602001600020612002565b9050919050565b60008090505b8151811015611dee57611de18484848481518110611dd457fe5b6020026020010151610e1a565b8080600101915050611dba565b50505050565b60006011600083815260200190815260200160002060009054906101000a900473ffffffffffffffffffffffffffffffffffffffff169050919050565b6000806001600084815260200190815260200160002060009054906101000a900473ffffffffffffffffffffffffffffffffffffffff169050600073ffffffffffffffffffffffffffffffffffffffff168173ffffffffffffffffffffffffffffffffffffffff161415915050919050565b6000611eae82611e31565b611eed576040517f08c379a0000000000000000000000000000000000000000000000000000000008152600401611ee4906139f0565b60405180910390fd5b6000611ef883611055565b90508073ffffffffffffffffffffffffffffffffffffffff168473ffffffffffffffffffffffffffffffffffffffff161480611f6757508373ffffffffffffffffffffffffffffffffffffffff16611f4f84610987565b73ffffffffffffffffffffffffffffffffffffffff16145b80611f785750611f778185611c3f565b5b91505092915050565b611f8c83838361213a565b611f968382612369565b611fa08282612507565b505050565b611faf82826125ce565b611fb98282612507565b611fc281612780565b5050565b6001601460008282540192505081905550565b6001816000016000828254019250508190555050565b6001600e60008282540192505081905550565b600081600001549050919050565b60006120318473ffffffffffffffffffffffffffffffffffffffff166127cc565b61203e576001905061211f565b60008473ffffffffffffffffffffffffffffffffffffffff1663150b7a02338887876040518563ffffffff1660e01b815260040161207f9493929190613857565b602060405180830381600087803b15801561209957600080fd5b505af11580156120ad573d6000803e3d6000fd5b505050506040513d601f19601f820116820180604052506120d19190810190612f63565b905063150b7a0260e01b7bffffffffffffffffffffffffffffffffffffffffffffffffffffffff1916817bffffffffffffffffffffffffffffffffffffffffffffffffffffffff1916149150505b949350505050565b6001600f60008282540192505081905550565b8273ffffffffffffffffffffffffffffffffffffffff1661215a82611055565b73ffffffffffffffffffffffffffffffffffffffff16146121b0576040517f08c379a00000000000000000000000000000000000000000000000000000000081526004016121a790613ad0565b60405180910390fd5b600073ffffffffffffffffffffffffffffffffffffffff168273ffffffffffffffffffffffffffffffffffffffff161415612220576040517f08c379a000000000000000000000000000000000000000000000000000000000815260040161221790613990565b60405180910390fd5b612229816127df565b612270600360008573ffffffffffffffffffffffffffffffffffffffff1673ffffffffffffffffffffffffffffffffffffffff16815260200190815260200160002061289d565b6122b7600360008473ffffffffffffffffffffffffffffffffffffffff1673ffffffffffffffffffffffffffffffffffffffff168152602001908152602001600020611fd9565b816001600083815260200190815260200160002060006101000a81548173ffffffffffffffffffffffffffffffffffffffff021916908373ffffffffffffffffffffffffffffffffffffffff160217905550808273ffffffffffffffffffffffffffffffffffffffff168473ffffffffffffffffffffffffffffffffffffffff167fddf252ad1be2c89b69c2b068fc378daa952ba7f163c4a11628f55a4df523b3ef60405160405180910390a4505050565b60006123c16001600560008673ffffffffffffffffffffffffffffffffffffffff1673ffffffffffffffffffffffffffffffffffffffff168152602001908152602001600020805490506128c090919063ffffffff16565b90506000600660008481526020019081526020016000205490508181146124ae576000600560008673ffffffffffffffffffffffffffffffffffffffff1673ffffffffffffffffffffffffffffffffffffffff168152602001908152602001600020838154811061242e57fe5b9060005260206000200154905080600560008773ffffffffffffffffffffffffffffffffffffffff1673ffffffffffffffffffffffffffffffffffffffff168152602001908152602001600020838154811061248657fe5b9060005260206000200181905550816006600083815260200190815260200160002081905550505b600560008573ffffffffffffffffffffffffffffffffffffffff1673ffffffffffffffffffffffffffffffffffffffff1681526020019081526020016000208054809190600190036125009190612996565b5050505050565b600560008373ffffffffffffffffffffffffffffffffffffffff1673ffffffffffffffffffffffffffffffffffffffff168152602001908152602001600020805490506006600083815260200190815260200160002081905550600560008373ffffffffffffffffffffffffffffffffffffffff1673ffffffffffffffffffffffffffffffffffffffff1681526020019081526020016000208190806001815401808255809150509060018203906000526020600020016000909192909190915055505050565b600073ffffffffffffffffffffffffffffffffffffffff168273ffffffffffffffffffffffffffffffffffffffff16141561263e576040517f08c379a000000000000000000000000000000000000000000000000000000000815260040161263590613a90565b60405180910390fd5b61264781611e31565b15612687576040517f08c379a000000000000000000000000000000000000000000000000000000000815260040161267e90613950565b60405180910390fd5b816001600083815260200190815260200160002060006101000a81548173ffffffffffffffffffffffffffffffffffffffff021916908373ffffffffffffffffffffffffffffffffffffffff160217905550612720600360008473ffffffffffffffffffffffffffffffffffffffff1673ffffffffffffffffffffffffffffffffffffffff168152602001908152602001600020611fd9565b808273ffffffffffffffffffffffffffffffffffffffff16600073ffffffffffffffffffffffffffffffffffffffff167fddf252ad1be2c89b69c2b068fc378daa952ba7f163c4a11628f55a4df523b3ef60405160405180910390a45050565b6007805490506008600083815260200190815260200160002081905550600781908060018154018082558091505090600182039060005260206000200160009091929091909150555050565b600080823b905060008111915050919050565b600073ffffffffffffffffffffffffffffffffffffffff166002600083815260200190815260200160002060009054906101000a900473ffffffffffffffffffffffffffffffffffffffff1673ffffffffffffffffffffffffffffffffffffffff161461289a5760006002600083815260200190815260200160002060006101000a81548173ffffffffffffffffffffffffffffffffffffffff021916908373ffffffffffffffffffffffffffffffffffffffff1602179055505b50565b6128b5600182600001546128c090919063ffffffff16565b816000018190555050565b600082821115612905576040517f08c379a00000000000000000000000000000000000000000000000000000000081526004016128fc906139d0565b60405180910390fd5b600082840390508091505092915050565b828054600181600116156101000203166002900490600052602060002090601f016020900481019282601f1061295757805160ff1916838001178555612985565b82800160010185558215612985579182015b82811115612984578251825591602001919060010190612969565b5b50905061299291906129c2565b5090565b8154818355818111156129bd578183600052602060002091820191016129bc91906129c2565b5b505050565b6129e491905b808211156129e05760008160009055506001016129c8565b5090565b90565b6000813590506129f681613e4a565b92915050565b600082601f830112612a0d57600080fd5b8135612a20612a1b82613c36565b613c09565b9150818183526020840193506020810190508360005b83811015612a665781358601612a4c8882612b86565b845260208401935060208301925050600181019050612a36565b5050505092915050565b600082601f830112612a8157600080fd5b8135612a94612a8f82613c5e565b613c09565b91508181835260208401935060208101905083856020840282011115612ab957600080fd5b60005b83811015612ae95781612acf8882612c2e565b845260208401935060208301925050600181019050612abc565b5050505092915050565b600081359050612b0281613e61565b92915050565b600081359050612b1781613e78565b92915050565b600081519050612b2c81613e78565b92915050565b600082601f830112612b4357600080fd5b8135612b56612b5182613c86565b613c09565b91508082526020830160208301858383011115612b7257600080fd5b612b7d838284613df7565b50505092915050565b600082601f830112612b9757600080fd5b8135612baa612ba582613cb2565b613c09565b91508082526020830160208301858383011115612bc657600080fd5b612bd1838284613df7565b50505092915050565b600082601f830112612beb57600080fd5b8135612bfe612bf982613cde565b613c09565b91508082526020830160208301858383011115612c1a57600080fd5b612c25838284613df7565b50505092915050565b600081359050612c3d81613e8f565b92915050565b600060208284031215612c5557600080fd5b6000612c63848285016129e7565b91505092915050565b60008060408385031215612c7f57600080fd5b6000612c8d858286016129e7565b9250506020612c9e858286016129e7565b9150509250929050565b600080600060608486031215612cbd57600080fd5b6000612ccb868287016129e7565b9350506020612cdc868287016129e7565b925050604084013567ffffffffffffffff811115612cf957600080fd5b612d0586828701612a70565b9150509250925092565b600080600060608486031215612d2457600080fd5b6000612d32868287016129e7565b9350506020612d43868287016129e7565b9250506040612d5486828701612c2e565b9150509250925092565b60008060008060808587031215612d7457600080fd5b6000612d82878288016129e7565b9450506020612d93878288016129e7565b9350506040612da487828801612c2e565b925050606085013567ffffffffffffffff811115612dc157600080fd5b612dcd87828801612b32565b91505092959194509250565b60008060408385031215612dec57600080fd5b6000612dfa858286016129e7565b9250506020612e0b85828601612af3565b9150509250929050565b60008060408385031215612e2857600080fd5b6000612e36858286016129e7565b925050602083013567ffffffffffffffff811115612e5357600080fd5b612e5f85828601612bda565b9150509250929050565b60008060408385031215612e7c57600080fd5b6000612e8a858286016129e7565b9250506020612e9b85828601612c2e565b9150509250929050565b600060208284031215612eb757600080fd5b600082013567ffffffffffffffff811115612ed157600080fd5b612edd848285016129fc565b91505092915050565b60008060408385031215612ef957600080fd5b600083013567ffffffffffffffff811115612f1357600080fd5b612f1f858286016129fc565b9250506020612f3085828601612c2e565b9150509250929050565b600060208284031215612f4c57600080fd5b6000612f5a84828501612b08565b91505092915050565b600060208284031215612f7557600080fd5b6000612f8384828501612b1d565b91505092915050565b600060208284031215612f9e57600080fd5b6000612fac84828501612c2e565b91505092915050565b612fbe81613dc1565b82525050565b612fcd81613d4d565b82525050565b612fdc81613d5f565b82525050565b6000612fed82613d0a565b612ff78185613d2b565b9350613007818560208601613e06565b61301081613e39565b840191505092915050565b600061302682613d20565b6130308185613d3c565b9350613040818560208601613e06565b61304981613e39565b840191505092915050565b600061305f82613d15565b6130698185613d3c565b9350613079818560208601613e06565b61308281613e39565b840191505092915050565b600061309a602b83613d3c565b91507f455243373231456e756d657261626c653a206f776e657220696e646578206f7560008301527f74206f6620626f756e64730000000000000000000000000000000000000000006020830152604082019050919050565b6000613100603283613d3c565b91507f4552433732313a207472616e7366657220746f206e6f6e20455243373231526560008301527f63656976657220696d706c656d656e74657200000000000000000000000000006020830152604082019050919050565b6000613166601c83613d3c565b91507f4552433732313a20746f6b656e20616c7265616479206d696e746564000000006000830152602082019050919050565b60006131a6602183613d3c565b91507f5469636b657420616c7265616479206f6e20746865206d61726b6574706c616360008301527f65000000000000000000000000000000000000000000000000000000000000006020830152604082019050919050565b600061320c602483613d3c565b91507f4552433732313a207472616e7366657220746f20746865207a65726f2061646460008301527f72657373000000000000000000000000000000000000000000000000000000006020830152604082019050919050565b6000613272601983613d3c565b91507f4552433732313a20617070726f766520746f2063616c6c6572000000000000006000830152602082019050919050565b60006132b2601e83613d3c565b91507f536166654d6174683a207375627472616374696f6e206f766572666c6f7700006000830152602082019050919050565b60006132f2602c83613d3c565b91507f4552433732313a206f70657261746f7220717565727920666f72206e6f6e657860008301527f697374656e7420746f6b656e00000000000000000000000000000000000000006020830152604082019050919050565b6000613358601583613d3c565b91507f73656e646572206973206e6f742061206f776e657200000000000000000000006000830152602082019050919050565b6000613398603883613d3c565b91507f4552433732313a20617070726f76652063616c6c6572206973206e6f74206f7760008301527f6e6572206e6f7220617070726f76656420666f7220616c6c00000000000000006020830152604082019050919050565b60006133fe602a83613d3c565b91507f4552433732313a2062616c616e636520717565727920666f7220746865207a6560008301527f726f2061646472657373000000000000000000000000000000000000000000006020830152604082019050919050565b6000613464602983613d3c565b91507f4552433732313a206f776e657220717565727920666f72206e6f6e657869737460008301527f656e7420746f6b656e00000000000000000000000000000000000000000000006020830152604082019050919050565b60006134ca602083613d3c565b91507f4552433732313a206d696e7420746f20746865207a65726f20616464726573736000830152602082019050919050565b600061350a602c83613d3c565b91507f4552433732313a20617070726f76656420717565727920666f72206e6f6e657860008301527f697374656e7420746f6b656e00000000000000000000000000000000000000006020830152604082019050919050565b6000613570602983613d3c565b91507f4552433732313a207472616e73666572206f6620746f6b656e2074686174206960008301527f73206e6f74206f776e00000000000000000000000000000000000000000000006020830152604082019050919050565b60006135d6602f83613d3c565b91507f4552433732314d657461646174613a2055524920717565727920666f72206e6f60008301527f6e6578697374656e7420746f6b656e00000000000000000000000000000000006020830152604082019050919050565b600061363c602183613d3c565b91507f4552433732313a20617070726f76616c20746f2063757272656e74206f776e6560008301527f72000000000000000000000000000000000000000000000000000000000000006020830152604082019050919050565b60006136a2602983613d3c565b91507f4576656e743a2062616c616e636520717565727920666f7220746865207a657260008301527f6f206164647265737300000000000000000000000000000000000000000000006020830152604082019050919050565b6000613708603183613d3c565b91507f4552433732313a207472616e736665722063616c6c6572206973206e6f74206f60008301527f776e6572206e6f7220617070726f7665640000000000000000000000000000006020830152604082019050919050565b600061376e602c83613d3c565b91507f455243373231456e756d657261626c653a20676c6f62616c20696e646578206f60008301527f7574206f6620626f756e647300000000000000000000000000000000000000006020830152604082019050919050565b60006137d4602683613d3c565b91507f4552433732313a2073656c6c6572206973206e6f7420746865207469636b657460008301527f206f776e657200000000000000000000000000000000000000000000000000006020830152604082019050919050565b61383681613db7565b82525050565b60006020820190506138516000830184612fc4565b92915050565b600060808201905061386c6000830187612fb5565b6138796020830186612fc4565b613886604083018561382d565b81810360608301526138988184612fe2565b905095945050505050565b60006040820190506138b86000830185612fc4565b81810360208301526138ca8184613054565b90509392505050565b60006020820190506138e86000830184612fd3565b92915050565b60006020820190508181036000830152613908818461301b565b905092915050565b600060208201905081810360008301526139298161308d565b9050919050565b60006020820190508181036000830152613949816130f3565b9050919050565b6000602082019050818103600083015261396981613159565b9050919050565b6000602082019050818103600083015261398981613199565b9050919050565b600060208201905081810360008301526139a9816131ff565b9050919050565b600060208201905081810360008301526139c981613265565b9050919050565b600060208201905081810360008301526139e9816132a5565b9050919050565b60006020820190508181036000830152613a09816132e5565b9050919050565b60006020820190508181036000830152613a298161334b565b9050919050565b60006020820190508181036000830152613a498161338b565b9050919050565b60006020820190508181036000830152613a69816133f1565b9050919050565b60006020820190508181036000830152613a8981613457565b9050919050565b60006020820190508181036000830152613aa9816134bd565b9050919050565b60006020820190508181036000830152613ac9816134fd565b9050919050565b60006020820190508181036000830152613ae981613563565b9050919050565b60006020820190508181036000830152613b09816135c9565b9050919050565b60006020820190508181036000830152613b298161362f565b9050919050565b60006020820190508181036000830152613b4981613695565b9050919050565b60006020820190508181036000830152613b69816136fb565b9050919050565b60006020820190508181036000830152613b8981613761565b9050919050565b60006020820190508181036000830152613ba9816137c7565b9050919050565b6000602082019050613bc5600083018461382d565b92915050565b6000606082019050613be0600083018661382d565b8181036020830152613bf28185613054565b9050613c01604083018461382d565b949350505050565b6000604051905081810181811067ffffffffffffffff82111715613c2c57600080fd5b8060405250919050565b600067ffffffffffffffff821115613c4d57600080fd5b602082029050602081019050919050565b600067ffffffffffffffff821115613c7557600080fd5b602082029050602081019050919050565b600067ffffffffffffffff821115613c9d57600080fd5b601f19601f8301169050602081019050919050565b600067ffffffffffffffff821115613cc957600080fd5b601f19601f8301169050602081019050919050565b600067ffffffffffffffff821115613cf557600080fd5b601f19601f8301169050602081019050919050565b600081519050919050565b600081519050919050565b600081519050919050565b600082825260208201905092915050565b600082825260208201905092915050565b6000613d5882613d97565b9050919050565b60008115159050919050565b60007fffffffff0000000000000000000000000000000000000000000000000000000082169050919050565b600073ffffffffffffffffffffffffffffffffffffffff82169050919050565b6000819050919050565b6000613dcc82613dd3565b9050919050565b6000613dde82613de5565b9050919050565b6000613df082613d97565b9050919050565b82818337600083830152505050565b60005b83811015613e24578082015181840152602081019050613e09565b83811115613e33576000848401525b50505050565b6000601f19601f8301169050919050565b613e5381613d4d565b8114613e5e57600080fd5b50565b613e6a81613d5f565b8114613e7557600080fd5b50565b613e8181613d6b565b8114613e8c57600080fd5b50565b613e9881613db7565b8114613ea357600080fd5b5056fea365627a7a72315820603700df4f65622d58e4bd8a13399e1197fff7b6aa45c7a47fc581d3988b61c96c6578706572696d656e74616cf564736f6c63430005100040",
  "source": "pragma solidity ^0.5.16;\npragma experimental ABIEncoderV2;\n\nimport \"./ERC721Full.sol\";\nimport \"./Event.sol\";\n\ncontract Ticket is ERC721Full, Event {\n    mapping(uint256 => Ticket) public tickets;\n    // mapping(string => bool) _ticketExists;\n    uint256 public ticketCount = 0;\n    address public ticketContractOwner;\n\n    // mapping(uint256 => address) public ticketApprovals;\n    mapping(uint256 => address) public marketplaceTickets;\n\n    constructor() public ERC721Full(\"Ticket\", \"TCK\") {\n        ticketContractOwner = msg.sender;\n    }\n\n    struct Ticket {\n        uint256 eventId;\n        string ticketDetail;\n        uint256 ticketId;\n    }\n\n    function incrementCount() internal {\n        ticketCount += 1;\n    }\n\n    function getTicketCount() public view returns (uint256) {\n        return ticketCount;\n    }\n\n    function mint(string[] memory _tickets) public {\n        for (uint256 index = 0; index < _tickets.length; index++) {\n            _mint(msg.sender, ticketCount);\n            tickets[ticketCount] = Ticket(\n                eventId - 1,\n                _tickets[index],\n                ticketCount\n            );\n            incrementCount();\n        }\n        // require(!_ticketExists[_ticket]);\n\n        // _ticketExists[_ticket] = true;\n    }\n\n    function mintByEvent(string[] memory _tickets, uint256 _eventId) public {\n        for (uint256 index = 0; index < _tickets.length; index++) {\n            _mint(msg.sender, ticketCount);\n            tickets[ticketCount] = Ticket(\n                _eventId,\n                _tickets[index],\n                ticketCount\n            );\n            incrementCount();\n        }\n    }\n\n    function multiTransferFrom(\n        address _from,\n        address _to,\n        uint256[] memory _tokenIds\n    ) public {\n        for (uint256 index = 0; index < _tokenIds.length; index++) {\n            safeTransferFrom(_from, _to, _tokenIds[index]);\n        }\n    }\n\n    function sellTicketsOnMarketplace(address seller, uint256 ticketId) public {\n        address owner = super.ownerOf(ticketId);\n        require(marketplaceTickets[ticketId] != seller, \"Ticket already on the marketplace\");\n        require(seller == owner, \"ERC721: seller is not the ticket owner\");\n        marketplaceTickets[ticketId] = seller;\n    }\n\n    // function buyTicketsOnMarketplace(address buyer, uint256 ticketId) public {\n    //     address owner = ownerOf(ticketId);\n    //     require(buyer != owner, \"ERC721: buyer is not the ticket owner\");\n    //     safeTransferFrom(owner, buyer, ticketId);\n    //     marketplaceTickets[ticketId] = address(0);\n    // }\n\n    function getTicketOnMarketplace(uint256 ticketId) public view returns (address) {\n        return marketplaceTickets[ticketId];\n    }\n\n    // function approveByOwner(address to, uint256 ticketId) public {\n    //     // address owner = ownerOf(ticketId);\n    //     // require(to != owner, \"ERC721: approval to current owner\");\n    //     // require(\n    //     //     to == ticketContractOwner,\n    //     //     \"ERC721: approve caller is not contract owner\"\n    //     // );\n    //     require(\n    //       ticketApprovals[ticketId] == to, \"exist\"\n    //     );\n    //     ticketApprovals[ticketId] = to;\n    //     // emit Approval(owner, ticketContractOwner, ticketId);\n    // }\n\n    // function getTicketApproved(uint256 ticketId) public view returns (address) {\n    //     // require(\n    //     //     _exists(ticketId),\n    //     //     \"ERC721: approved query for nonexistent token\"\n    //     // );\n\n    //     return ticketApprovals[ticketId];\n    // }\n}\n",
  "sourcePath": "/Users/timcheng/personal/fyp/smart-ticket-api/src/admin/client/src/smart-contract/contracts/Ticket.sol",
  "compiler": {
    "name": "solc",
    "version": "0.5.16+commit.9c3226ce.Emscripten.clang"
  },
  "schemaVersion": "3.3.2",
  "updatedAt": "2021-03-09T14:45:44.202Z",
  "devdoc": {
    "methods": {
      "approve(address,uint256)": {
        "details": "Approves another address to transfer the given token ID The zero address indicates there is no approved address. There can only be one approved address per token at a given time. Can only be called by the token owner or an approved operator.",
        "params": {
          "to": "address to be approved for the given token ID",
          "tokenId": "uint256 ID of the token to be approved"
        }
      },
      "balanceOf(address)": {
        "details": "Gets the balance of the specified address.",
        "params": {
          "owner": "address to query the balance of"
        },
        "return": "uint256 representing the amount owned by the passed address"
      },
      "getApproved(uint256)": {
        "details": "Gets the approved address for a token ID, or zero if no address set Reverts if the token ID does not exist.",
        "params": {
          "tokenId": "uint256 ID of the token to query the approval of"
        },
        "return": "address currently approved for the given token ID"
      },
      "isApprovedForAll(address,address)": {
        "details": "Tells whether an operator is approved by a given owner.",
        "params": {
          "operator": "operator address which you want to query the approval of",
          "owner": "owner address which you want to query the approval of"
        },
        "return": "bool whether the given operator is approved by the given owner"
      },
      "name()": {
        "details": "Gets the token name.",
        "return": "string representing the token name"
      },
      "ownerOf(uint256)": {
        "details": "Gets the owner of the specified token ID.",
        "params": {
          "tokenId": "uint256 ID of the token to query the owner of"
        },
        "return": "address currently marked as the owner of the given token ID"
      },
      "safeTransferFrom(address,address,uint256)": {
        "details": "Safely transfers the ownership of a given token ID to another address If the target address is a contract, it must implement `onERC721Received`, which is called upon a safe transfer, and return the magic value `bytes4(keccak256(\"onERC721Received(address,address,uint256,bytes)\"))`; otherwise, the transfer is reverted. Requires the msg.sender to be the owner, approved, or operator",
        "params": {
          "from": "current owner of the token",
          "to": "address to receive the ownership of the given token ID",
          "tokenId": "uint256 ID of the token to be transferred"
        }
      },
      "safeTransferFrom(address,address,uint256,bytes)": {
        "details": "Safely transfers the ownership of a given token ID to another address If the target address is a contract, it must implement `onERC721Received`, which is called upon a safe transfer, and return the magic value `bytes4(keccak256(\"onERC721Received(address,address,uint256,bytes)\"))`; otherwise, the transfer is reverted. Requires the msg.sender to be the owner, approved, or operator",
        "params": {
          "_data": "bytes data to send along with a safe transfer check",
          "from": "current owner of the token",
          "to": "address to receive the ownership of the given token ID",
          "tokenId": "uint256 ID of the token to be transferred"
        }
      },
      "setApprovalForAll(address,bool)": {
        "details": "Sets or unsets the approval of a given operator An operator is allowed to transfer all tokens of the sender on their behalf.",
        "params": {
          "approved": "representing the status of the approval to be set",
          "to": "operator address to set the approval"
        }
      },
      "supportsInterface(bytes4)": {
        "details": "See `IERC165.supportsInterface`.     * Time complexity O(1), guaranteed to always use less than 30 000 gas."
      },
      "symbol()": {
        "details": "Gets the token symbol.",
        "return": "string representing the token symbol"
      },
      "tokenByIndex(uint256)": {
        "details": "Gets the token ID at a given index of all the tokens in this contract Reverts if the index is greater or equal to the total number of tokens.",
        "params": {
          "index": "uint256 representing the index to be accessed of the tokens list"
        },
        "return": "uint256 token ID at the given index of the tokens list"
      },
      "tokenOfOwnerByIndex(address,uint256)": {
        "details": "Gets the token ID at a given index of the tokens list of the requested owner.",
        "params": {
          "index": "uint256 representing the index to be accessed of the requested tokens list",
          "owner": "address owning the tokens list to be accessed"
        },
        "return": "uint256 token ID at the given index of the tokens list owned by the requested address"
      },
      "tokenURI(uint256)": {
        "details": "Returns an URI for a given token ID. Throws if the token ID does not exist. May return an empty string.",
        "params": {
          "tokenId": "uint256 ID of the token to query"
        }
      },
      "totalSupply()": {
        "details": "Gets the total amount of tokens stored by the contract.",
        "return": "uint256 representing the total amount of tokens"
      },
      "transferFrom(address,address,uint256)": {
        "details": "Transfers the ownership of a given token ID to another address. Usage of this method is discouraged, use `safeTransferFrom` whenever possible. Requires the msg.sender to be the owner, approved, or operator.",
        "params": {
          "from": "current owner of the token",
          "to": "address to receive the ownership of the given token ID",
          "tokenId": "uint256 ID of the token to be transferred"
        }
      }
    }
  },
  "userdoc": {
    "methods": {}
  }
}