{
  "contractName": "Ticket",
  "abi": [
    {
      "inputs": [],
      "payable": false,
      "stateMutability": "nonpayable",
      "type": "constructor"
    },
    {
      "anonymous": false,
      "inputs": [
        {
          "indexed": true,
          "internalType": "address",
          "name": "owner",
          "type": "address"
        },
        {
          "indexed": true,
          "internalType": "address",
          "name": "approved",
          "type": "address"
        },
        {
          "indexed": true,
          "internalType": "uint256",
          "name": "tokenId",
          "type": "uint256"
        }
      ],
      "name": "Approval",
      "type": "event"
    },
    {
      "anonymous": false,
      "inputs": [
        {
          "indexed": true,
          "internalType": "address",
          "name": "owner",
          "type": "address"
        },
        {
          "indexed": true,
          "internalType": "address",
          "name": "operator",
          "type": "address"
        },
        {
          "indexed": false,
          "internalType": "bool",
          "name": "approved",
          "type": "bool"
        }
      ],
      "name": "ApprovalForAll",
      "type": "event"
    },
    {
      "anonymous": false,
      "inputs": [
        {
          "indexed": true,
          "internalType": "address",
          "name": "from",
          "type": "address"
        },
        {
          "indexed": true,
          "internalType": "address",
          "name": "to",
          "type": "address"
        },
        {
          "indexed": true,
          "internalType": "uint256",
          "name": "tokenId",
          "type": "uint256"
        }
      ],
      "name": "Transfer",
      "type": "event"
    },
    {
      "constant": false,
      "inputs": [
        {
          "internalType": "address",
          "name": "_approve",
          "type": "address"
        }
      ],
      "name": "addApproval",
      "outputs": [],
      "payable": false,
      "stateMutability": "nonpayable",
      "type": "function"
    },
    {
      "constant": false,
      "inputs": [
        {
          "internalType": "address",
          "name": "to",
          "type": "address"
        },
        {
          "internalType": "uint256",
          "name": "tokenId",
          "type": "uint256"
        }
      ],
      "name": "approve",
      "outputs": [],
      "payable": false,
      "stateMutability": "nonpayable",
      "type": "function"
    },
    {
      "constant": true,
      "inputs": [],
      "name": "approveId",
      "outputs": [
        {
          "internalType": "uint256",
          "name": "",
          "type": "uint256"
        }
      ],
      "payable": false,
      "stateMutability": "view",
      "type": "function"
    },
    {
      "constant": true,
      "inputs": [
        {
          "internalType": "address",
          "name": "",
          "type": "address"
        }
      ],
      "name": "approves",
      "outputs": [
        {
          "internalType": "bool",
          "name": "",
          "type": "bool"
        }
      ],
      "payable": false,
      "stateMutability": "view",
      "type": "function"
    },
    {
      "constant": true,
      "inputs": [
        {
          "internalType": "address",
          "name": "owner",
          "type": "address"
        }
      ],
      "name": "balanceOf",
      "outputs": [
        {
          "internalType": "uint256",
          "name": "",
          "type": "uint256"
        }
      ],
      "payable": false,
      "stateMutability": "view",
      "type": "function"
    },
    {
      "constant": false,
      "inputs": [
        {
          "internalType": "address",
          "name": "_owner",
          "type": "address"
        },
        {
          "internalType": "string",
          "name": "_detail",
          "type": "string"
        }
      ],
      "name": "createEvent",
      "outputs": [],
      "payable": false,
      "stateMutability": "nonpayable",
      "type": "function"
    },
    {
      "constant": true,
      "inputs": [],
      "name": "eventId",
      "outputs": [
        {
          "internalType": "uint256",
          "name": "",
          "type": "uint256"
        }
      ],
      "payable": false,
      "stateMutability": "view",
      "type": "function"
    },
    {
      "constant": true,
      "inputs": [
        {
          "internalType": "uint256",
          "name": "",
          "type": "uint256"
        }
      ],
      "name": "eventOwner",
      "outputs": [
        {
          "internalType": "address",
          "name": "",
          "type": "address"
        }
      ],
      "payable": false,
      "stateMutability": "view",
      "type": "function"
    },
    {
      "constant": true,
      "inputs": [
        {
          "internalType": "address",
          "name": "_owner",
          "type": "address"
        }
      ],
      "name": "eventOwnerBalanceOf",
      "outputs": [
        {
          "internalType": "uint256",
          "name": "",
          "type": "uint256"
        }
      ],
      "payable": false,
      "stateMutability": "view",
      "type": "function"
    },
    {
      "constant": true,
      "inputs": [
        {
          "internalType": "uint256",
          "name": "",
          "type": "uint256"
        }
      ],
      "name": "events",
      "outputs": [
        {
          "internalType": "address",
          "name": "owner",
          "type": "address"
        },
        {
          "internalType": "string",
          "name": "detail",
          "type": "string"
        }
      ],
      "payable": false,
      "stateMutability": "view",
      "type": "function"
    },
    {
      "constant": true,
      "inputs": [],
      "name": "getApproveId",
      "outputs": [
        {
          "internalType": "uint256",
          "name": "",
          "type": "uint256"
        }
      ],
      "payable": false,
      "stateMutability": "view",
      "type": "function"
    },
    {
      "constant": true,
      "inputs": [
        {
          "internalType": "uint256",
          "name": "tokenId",
          "type": "uint256"
        }
      ],
      "name": "getApproved",
      "outputs": [
        {
          "internalType": "address",
          "name": "",
          "type": "address"
        }
      ],
      "payable": false,
      "stateMutability": "view",
      "type": "function"
    },
    {
      "constant": true,
      "inputs": [
        {
          "internalType": "uint256",
          "name": "_eventId",
          "type": "uint256"
        }
      ],
      "name": "getEvent",
      "outputs": [
        {
          "internalType": "string",
          "name": "",
          "type": "string"
        }
      ],
      "payable": false,
      "stateMutability": "view",
      "type": "function"
    },
    {
      "constant": true,
      "inputs": [],
      "name": "getEventId",
      "outputs": [
        {
          "internalType": "uint256",
          "name": "",
          "type": "uint256"
        }
      ],
      "payable": false,
      "stateMutability": "view",
      "type": "function"
    },
    {
      "constant": true,
      "inputs": [
        {
          "internalType": "uint256",
          "name": "_eventId",
          "type": "uint256"
        }
      ],
      "name": "getEventOwner",
      "outputs": [
        {
          "internalType": "address",
          "name": "",
          "type": "address"
        }
      ],
      "payable": false,
      "stateMutability": "view",
      "type": "function"
    },
    {
      "constant": true,
      "inputs": [],
      "name": "getOwner",
      "outputs": [
        {
          "internalType": "address",
          "name": "",
          "type": "address"
        }
      ],
      "payable": false,
      "stateMutability": "view",
      "type": "function"
    },
    {
      "constant": true,
      "inputs": [
        {
          "internalType": "address",
          "name": "_approve",
          "type": "address"
        }
      ],
      "name": "isApproval",
      "outputs": [
        {
          "internalType": "bool",
          "name": "",
          "type": "bool"
        }
      ],
      "payable": false,
      "stateMutability": "view",
      "type": "function"
    },
    {
      "constant": true,
      "inputs": [
        {
          "internalType": "address",
          "name": "owner",
          "type": "address"
        },
        {
          "internalType": "address",
          "name": "operator",
          "type": "address"
        }
      ],
      "name": "isApprovedForAll",
      "outputs": [
        {
          "internalType": "bool",
          "name": "",
          "type": "bool"
        }
      ],
      "payable": false,
      "stateMutability": "view",
      "type": "function"
    },
    {
      "constant": true,
      "inputs": [],
      "name": "name",
      "outputs": [
        {
          "internalType": "string",
          "name": "",
          "type": "string"
        }
      ],
      "payable": false,
      "stateMutability": "view",
      "type": "function"
    },
    {
      "constant": true,
      "inputs": [],
      "name": "owner",
      "outputs": [
        {
          "internalType": "address",
          "name": "",
          "type": "address"
        }
      ],
      "payable": false,
      "stateMutability": "view",
      "type": "function"
    },
    {
      "constant": true,
      "inputs": [
        {
          "internalType": "uint256",
          "name": "tokenId",
          "type": "uint256"
        }
      ],
      "name": "ownerOf",
      "outputs": [
        {
          "internalType": "address",
          "name": "",
          "type": "address"
        }
      ],
      "payable": false,
      "stateMutability": "view",
      "type": "function"
    },
    {
      "constant": false,
      "inputs": [
        {
          "internalType": "address",
          "name": "_approve",
          "type": "address"
        }
      ],
      "name": "removeApproval",
      "outputs": [],
      "payable": false,
      "stateMutability": "nonpayable",
      "type": "function"
    },
    {
      "constant": false,
      "inputs": [
        {
          "internalType": "address",
          "name": "from",
          "type": "address"
        },
        {
          "internalType": "address",
          "name": "to",
          "type": "address"
        },
        {
          "internalType": "uint256",
          "name": "tokenId",
          "type": "uint256"
        }
      ],
      "name": "safeTransferFrom",
      "outputs": [],
      "payable": false,
      "stateMutability": "nonpayable",
      "type": "function"
    },
    {
      "constant": false,
      "inputs": [
        {
          "internalType": "address",
          "name": "from",
          "type": "address"
        },
        {
          "internalType": "address",
          "name": "to",
          "type": "address"
        },
        {
          "internalType": "uint256",
          "name": "tokenId",
          "type": "uint256"
        },
        {
          "internalType": "bytes",
          "name": "_data",
          "type": "bytes"
        }
      ],
      "name": "safeTransferFrom",
      "outputs": [],
      "payable": false,
      "stateMutability": "nonpayable",
      "type": "function"
    },
    {
      "constant": false,
      "inputs": [
        {
          "internalType": "address",
          "name": "to",
          "type": "address"
        },
        {
          "internalType": "bool",
          "name": "approved",
          "type": "bool"
        }
      ],
      "name": "setApprovalForAll",
      "outputs": [],
      "payable": false,
      "stateMutability": "nonpayable",
      "type": "function"
    },
    {
      "constant": true,
      "inputs": [
        {
          "internalType": "bytes4",
          "name": "interfaceId",
          "type": "bytes4"
        }
      ],
      "name": "supportsInterface",
      "outputs": [
        {
          "internalType": "bool",
          "name": "",
          "type": "bool"
        }
      ],
      "payable": false,
      "stateMutability": "view",
      "type": "function"
    },
    {
      "constant": true,
      "inputs": [],
      "name": "symbol",
      "outputs": [
        {
          "internalType": "string",
          "name": "",
          "type": "string"
        }
      ],
      "payable": false,
      "stateMutability": "view",
      "type": "function"
    },
    {
      "constant": true,
      "inputs": [],
      "name": "ticketCount",
      "outputs": [
        {
          "internalType": "uint256",
          "name": "",
          "type": "uint256"
        }
      ],
      "payable": false,
      "stateMutability": "view",
      "type": "function"
    },
    {
      "constant": true,
      "inputs": [
        {
          "internalType": "uint256",
          "name": "",
          "type": "uint256"
        }
      ],
      "name": "tickets",
      "outputs": [
        {
          "internalType": "uint256",
          "name": "eventId",
          "type": "uint256"
        },
        {
          "internalType": "string",
          "name": "ticketDetail",
          "type": "string"
        }
      ],
      "payable": false,
      "stateMutability": "view",
      "type": "function"
    },
    {
      "constant": true,
      "inputs": [
        {
          "internalType": "uint256",
          "name": "index",
          "type": "uint256"
        }
      ],
      "name": "tokenByIndex",
      "outputs": [
        {
          "internalType": "uint256",
          "name": "",
          "type": "uint256"
        }
      ],
      "payable": false,
      "stateMutability": "view",
      "type": "function"
    },
    {
      "constant": true,
      "inputs": [
        {
          "internalType": "address",
          "name": "owner",
          "type": "address"
        },
        {
          "internalType": "uint256",
          "name": "index",
          "type": "uint256"
        }
      ],
      "name": "tokenOfOwnerByIndex",
      "outputs": [
        {
          "internalType": "uint256",
          "name": "",
          "type": "uint256"
        }
      ],
      "payable": false,
      "stateMutability": "view",
      "type": "function"
    },
    {
      "constant": true,
      "inputs": [
        {
          "internalType": "uint256",
          "name": "tokenId",
          "type": "uint256"
        }
      ],
      "name": "tokenURI",
      "outputs": [
        {
          "internalType": "string",
          "name": "",
          "type": "string"
        }
      ],
      "payable": false,
      "stateMutability": "view",
      "type": "function"
    },
    {
      "constant": true,
      "inputs": [],
      "name": "totalSupply",
      "outputs": [
        {
          "internalType": "uint256",
          "name": "",
          "type": "uint256"
        }
      ],
      "payable": false,
      "stateMutability": "view",
      "type": "function"
    },
    {
      "constant": false,
      "inputs": [
        {
          "internalType": "address",
          "name": "from",
          "type": "address"
        },
        {
          "internalType": "address",
          "name": "to",
          "type": "address"
        },
        {
          "internalType": "uint256",
          "name": "tokenId",
          "type": "uint256"
        }
      ],
      "name": "transferFrom",
      "outputs": [],
      "payable": false,
      "stateMutability": "nonpayable",
      "type": "function"
    },
    {
      "constant": false,
      "inputs": [
        {
          "internalType": "string[]",
          "name": "_tickets",
          "type": "string[]"
        }
      ],
      "name": "mint",
      "outputs": [],
      "payable": false,
      "stateMutability": "nonpayable",
      "type": "function"
    }
  ],
  "bytecode": "0x60806040526000600e556000600f5560006014553480156200002057600080fd5b506040518060400160405280600681526020017f5469636b657400000000000000000000000000000000000000000000000000008152506040518060400160405280600381526020017f54434b00000000000000000000000000000000000000000000000000000000008152508181620000a76301ffc9a760e01b6200016c60201b60201c565b620000bf6380ac58cd60e01b6200016c60201b60201c565b620000d763780e9d6360e01b6200016c60201b60201c565b8160099080519060200190620000ef92919062000244565b5080600a90805190602001906200010892919062000244565b5062000121635b5e139f60e01b6200016c60201b60201c565b5050505033601060006101000a81548173ffffffffffffffffffffffffffffffffffffffff021916908373ffffffffffffffffffffffffffffffffffffffff16021790555062000368565b63ffffffff60e01b817bffffffffffffffffffffffffffffffffffffffffffffffffffffffff19161415620001d8576040517f08c379a0000000000000000000000000000000000000000000000000000000008152600401620001cf9062000335565b60405180910390fd5b6001600080837bffffffffffffffffffffffffffffffffffffffffffffffffffffffff19167bffffffffffffffffffffffffffffffffffffffffffffffffffffffff1916815260200190815260200160002060006101000a81548160ff02191690831515021790555050565b828054600181600116156101000203166002900490600052602060002090601f016020900481019282601f106200028757805160ff1916838001178555620002b8565b82800160010185558215620002b8579182015b82811115620002b75782518255916020019190600101906200029a565b5b509050620002c79190620002cb565b5090565b620002f091905b80821115620002ec576000816000905550600101620002d2565b5090565b90565b600062000302601c8362000357565b91507f4552433136353a20696e76616c696420696e74657266616365206964000000006000830152602082019050919050565b600060208201905081810360008301526200035081620002f3565b9050919050565b600082825260208201905092915050565b61381180620003786000396000f3fe608060405234801561001057600080fd5b50600436106102115760003560e01c80636352211e11610125578063b4d59d27116100ad578063cfbd900f1161007c578063cfbd900f14610662578063d37f4acf14610680578063e985e9c5146106b0578063f39346f3146106e0578063fe210f691461071057610211565b8063b4d59d27146105ca578063b88d4fde146105fa578063c87b56dd14610616578063cb44211e1461064657610211565b80637cab5e8c116100f45780637cab5e8c14610538578063893d20e8146105545780638da5cb5b1461057257806395d89b4114610590578063a22cb465146105ae57610211565b80636352211e1461048c578063652d4725146104bc5780636d1884e0146104d857806370a082311461050857610211565b806323b872dd116101a857806342842e0e1161017757806342842e0e146103d55780634a17bbde146103f15780634f6ccce71461040f57806350b447121461043f5780635768f2711461047057610211565b806323b872dd1461033b5780632f745c5914610357578063323c635a14610387578063331b2763146103a557610211565b8063095ea7b3116101e4578063095ea7b3146102b25780630b791430146102ce57806318160ddd146102ff57806319717d541461031d57610211565b806301ffc9a71461021657806306fdde0314610246578063081812fc14610264578063089cdd0c14610294575b600080fd5b610230600480360361022b91908101906129a4565b610740565b60405161023d9190613271565b60405180910390f35b61024e6107a7565b60405161025b919061328c565b60405180910390f35b61027e600480360361027991908101906129f6565b610849565b60405161028b91906131da565b60405180910390f35b61029c6108ce565b6040516102a9919061350e565b60405180910390f35b6102cc60048036036102c79190810190612927565b6108d4565b005b6102e860048036036102e391908101906129f6565b610a81565b6040516102f6929190613241565b60405180910390f35b610307610b5d565b604051610314919061350e565b60405180910390f35b610325610b6a565b604051610332919061350e565b60405180910390f35b610355600480360361035091908101906127cd565b610b70565b005b610371600480360361036c9190810190612927565b610bc9565b60405161037e919061350e565b60405180910390f35b61038f610c72565b60405161039c919061350e565b60405180910390f35b6103bf60048036036103ba9190810190612768565b610c7c565b6040516103cc9190613271565b60405180910390f35b6103ef60048036036103ea91908101906127cd565b610cd2565b005b6103f9610cf2565b604051610406919061350e565b60405180910390f35b610429600480360361042491908101906129f6565b610cfc565b604051610436919061350e565b60405180910390f35b610459600480360361045491908101906129f6565b610d66565b604051610467929190613529565b60405180910390f35b61048a60048036036104859190810190612963565b610e22565b005b6104a660048036036104a191908101906129f6565b610ec2565b6040516104b391906131da565b60405180910390f35b6104d660048036036104d191908101906128d3565b610f74565b005b6104f260048036036104ed91908101906129f6565b6110c2565b6040516104ff919061328c565b60405180910390f35b610522600480360361051d9190810190612768565b61117a565b60405161052f919061350e565b60405180910390f35b610552600480360361054d9190810190612768565b611239565b005b61055c611324565b60405161056991906131da565b60405180910390f35b61057a61134e565b60405161058791906131da565b60405180910390f35b610598611374565b6040516105a5919061328c565b60405180910390f35b6105c860048036036105c39190810190612897565b611416565b005b6105e460048036036105df91908101906129f6565b611582565b6040516105f191906131da565b60405180910390f35b610614600480360361060f919081019061281c565b6115b5565b005b610630600480360361062b91908101906129f6565b611611565b60405161063d919061328c565b60405180910390f35b610660600480360361065b9190810190612768565b61170e565b005b61066a611801565b604051610677919061350e565b60405180910390f35b61069a60048036036106959190810190612768565b611807565b6040516106a79190613271565b60405180910390f35b6106ca60048036036106c59190810190612791565b611827565b6040516106d79190613271565b60405180910390f35b6106fa60048036036106f59190810190612768565b6118bb565b604051610707919061350e565b60405180910390f35b61072a600480360361072591908101906129f6565b61199c565b60405161073791906131da565b60405180910390f35b6000806000837bffffffffffffffffffffffffffffffffffffffffffffffffffffffff19167bffffffffffffffffffffffffffffffffffffffffffffffffffffffff1916815260200190815260200160002060009054906101000a900460ff169050919050565b606060098054600181600116156101000203166002900480601f01602080910402602001604051908101604052809291908181526020018280546001816001161561010002031660029004801561083f5780601f106108145761010080835404028352916020019161083f565b820191906000526020600020905b81548152906001019060200180831161082257829003601f168201915b5050505050905090565b6000610854826119d9565b610893576040517f08c379a000000000000000000000000000000000000000000000000000000000815260040161088a9061342e565b60405180910390fd5b6002600083815260200190815260200160002060009054906101000a900473ffffffffffffffffffffffffffffffffffffffff169050919050565b600e5481565b60006108df82610ec2565b90508073ffffffffffffffffffffffffffffffffffffffff168373ffffffffffffffffffffffffffffffffffffffff161415610950576040517f08c379a00000000000000000000000000000000000000000000000000000000081526004016109479061348e565b60405180910390fd5b8073ffffffffffffffffffffffffffffffffffffffff163373ffffffffffffffffffffffffffffffffffffffff161480610990575061098f8133611827565b5b6109cf576040517f08c379a00000000000000000000000000000000000000000000000000000000081526004016109c6906133ae565b60405180910390fd5b826002600084815260200190815260200160002060006101000a81548173ffffffffffffffffffffffffffffffffffffffff021916908373ffffffffffffffffffffffffffffffffffffffff160217905550818373ffffffffffffffffffffffffffffffffffffffff168273ffffffffffffffffffffffffffffffffffffffff167f8c5be1e5ebec7d5bd14f71427d1e84f3dd0314c0f7b2291e5b200ac8c7c3b92560405160405180910390a4505050565b600c6020528060005260406000206000915090508060000160009054906101000a900473ffffffffffffffffffffffffffffffffffffffff1690806001018054600181600116156101000203166002900480601f016020809104026020016040519081016040528092919081815260200182805460018160011615610100020316600290048015610b535780601f10610b2857610100808354040283529160200191610b53565b820191906000526020600020905b815481529060010190602001808311610b3657829003601f168201915b5050505050905082565b6000600780549050905090565b600f5481565b610b7a3382611a4b565b610bb9576040517f08c379a0000000000000000000000000000000000000000000000000000000008152600401610bb0906134ce565b60405180910390fd5b610bc4838383611b29565b505050565b6000610bd48361117a565b8210610c15576040517f08c379a0000000000000000000000000000000000000000000000000000000008152600401610c0c906132ae565b60405180910390fd5b600560008473ffffffffffffffffffffffffffffffffffffffff1673ffffffffffffffffffffffffffffffffffffffff1681526020019081526020016000208281548110610c5f57fe5b9060005260206000200154905092915050565b6000600f54905090565b6000600d60008373ffffffffffffffffffffffffffffffffffffffff1673ffffffffffffffffffffffffffffffffffffffff16815260200190815260200160002060009054906101000a900460ff169050919050565b610ced838383604051806020016040528060008152506115b5565b505050565b6000600e54905090565b6000610d06610b5d565b8210610d47576040517f08c379a0000000000000000000000000000000000000000000000000000000008152600401610d3e906134ee565b60405180910390fd5b60078281548110610d5457fe5b90600052602060002001549050919050565b6013602052806000526040600020600091509050806000015490806001018054600181600116156101000203166002900480601f016020809104026020016040519081016040528092919081815260200182805460018160011615610100020316600290048015610e185780601f10610ded57610100808354040283529160200191610e18565b820191906000526020600020905b815481529060010190602001808311610dfb57829003601f168201915b5050505050905082565b60008090505b8151811015610ebe5760405180604001604052806001600e54038152602001838381518110610e5357fe5b6020026020010151815250601360006014548152602001908152602001600020600082015181600001556020820151816001019080519060200190610e999291906124be565b50905050610ea933601454611b4d565b610eb1611b6e565b8080600101915050610e28565b5050565b6000806001600084815260200190815260200160002060009054906101000a900473ffffffffffffffffffffffffffffffffffffffff169050600073ffffffffffffffffffffffffffffffffffffffff168173ffffffffffffffffffffffffffffffffffffffff161415610f6b576040517f08c379a0000000000000000000000000000000000000000000000000000000008152600401610f62906133ee565b60405180910390fd5b80915050919050565b60405180604001604052808373ffffffffffffffffffffffffffffffffffffffff16815260200182815250600c6000600e54815260200190815260200160002060008201518160000160006101000a81548173ffffffffffffffffffffffffffffffffffffffff021916908373ffffffffffffffffffffffffffffffffffffffff16021790555060208201518160010190805190602001906110179291906124be565b509050508160116000600e54815260200190815260200160002060006101000a81548173ffffffffffffffffffffffffffffffffffffffff021916908373ffffffffffffffffffffffffffffffffffffffff1602179055506110b6601260008473ffffffffffffffffffffffffffffffffffffffff1673ffffffffffffffffffffffffffffffffffffffff168152602001908152602001600020611b81565b6110be611b97565b5050565b6060600c60008381526020019081526020016000206001018054600181600116156101000203166002900480601f01602080910402602001604051908101604052809291908181526020018280546001816001161561010002031660029004801561116e5780601f106111435761010080835404028352916020019161116e565b820191906000526020600020905b81548152906001019060200180831161115157829003601f168201915b50505050509050919050565b60008073ffffffffffffffffffffffffffffffffffffffff168273ffffffffffffffffffffffffffffffffffffffff1614156111eb576040517f08c379a00000000000000000000000000000000000000000000000000000000081526004016111e2906133ce565b60405180910390fd5b611232600360008473ffffffffffffffffffffffffffffffffffffffff1673ffffffffffffffffffffffffffffffffffffffff168152602001908152602001600020611baa565b9050919050565b3373ffffffffffffffffffffffffffffffffffffffff16601060009054906101000a900473ffffffffffffffffffffffffffffffffffffffff1673ffffffffffffffffffffffffffffffffffffffff16146112c9576040517f08c379a00000000000000000000000000000000000000000000000000000000081526004016112c09061338e565b60405180910390fd5b6000600d60008373ffffffffffffffffffffffffffffffffffffffff1673ffffffffffffffffffffffffffffffffffffffff16815260200190815260200160002060006101000a81548160ff02191690831515021790555050565b6000601060009054906101000a900473ffffffffffffffffffffffffffffffffffffffff16905090565b601060009054906101000a900473ffffffffffffffffffffffffffffffffffffffff1681565b6060600a8054600181600116156101000203166002900480601f01602080910402602001604051908101604052809291908181526020018280546001816001161561010002031660029004801561140c5780601f106113e15761010080835404028352916020019161140c565b820191906000526020600020905b8154815290600101906020018083116113ef57829003601f168201915b5050505050905090565b3373ffffffffffffffffffffffffffffffffffffffff168273ffffffffffffffffffffffffffffffffffffffff161415611485576040517f08c379a000000000000000000000000000000000000000000000000000000000815260040161147c9061332e565b60405180910390fd5b80600460003373ffffffffffffffffffffffffffffffffffffffff1673ffffffffffffffffffffffffffffffffffffffff16815260200190815260200160002060008473ffffffffffffffffffffffffffffffffffffffff1673ffffffffffffffffffffffffffffffffffffffff16815260200190815260200160002060006101000a81548160ff0219169083151502179055508173ffffffffffffffffffffffffffffffffffffffff163373ffffffffffffffffffffffffffffffffffffffff167f17307eab39ab6107e8899845ad3d59bd9653f200f220920489ca2b5937696c31836040516115769190613271565b60405180910390a35050565b60116020528060005260406000206000915054906101000a900473ffffffffffffffffffffffffffffffffffffffff1681565b6115c0848484610b70565b6115cc84848484611bb8565b61160b576040517f08c379a0000000000000000000000000000000000000000000000000000000008152600401611602906132ce565b60405180910390fd5b50505050565b606061161c826119d9565b61165b576040517f08c379a00000000000000000000000000000000000000000000000000000000081526004016116529061346e565b60405180910390fd5b600b60008381526020019081526020016000208054600181600116156101000203166002900480601f0160208091040260200160405190810160405280929190818152602001828054600181600116156101000203166002900480156117025780601f106116d757610100808354040283529160200191611702565b820191906000526020600020905b8154815290600101906020018083116116e557829003601f168201915b50505050509050919050565b3373ffffffffffffffffffffffffffffffffffffffff16601060009054906101000a900473ffffffffffffffffffffffffffffffffffffffff1673ffffffffffffffffffffffffffffffffffffffff161461179e576040517f08c379a00000000000000000000000000000000000000000000000000000000081526004016117959061338e565b60405180910390fd5b6001600d60008373ffffffffffffffffffffffffffffffffffffffff1673ffffffffffffffffffffffffffffffffffffffff16815260200190815260200160002060006101000a81548160ff0219169083151502179055506117fe611ccf565b50565b60145481565b600d6020528060005260406000206000915054906101000a900460ff1681565b6000600460008473ffffffffffffffffffffffffffffffffffffffff1673ffffffffffffffffffffffffffffffffffffffff16815260200190815260200160002060008373ffffffffffffffffffffffffffffffffffffffff1673ffffffffffffffffffffffffffffffffffffffff16815260200190815260200160002060009054906101000a900460ff16905092915050565b60008073ffffffffffffffffffffffffffffffffffffffff16601060009054906101000a900473ffffffffffffffffffffffffffffffffffffffff1673ffffffffffffffffffffffffffffffffffffffff16141561194e576040517f08c379a0000000000000000000000000000000000000000000000000000000008152600401611945906134ae565b60405180910390fd5b611995601260008473ffffffffffffffffffffffffffffffffffffffff1673ffffffffffffffffffffffffffffffffffffffff168152602001908152602001600020611baa565b9050919050565b60006011600083815260200190815260200160002060009054906101000a900473ffffffffffffffffffffffffffffffffffffffff169050919050565b6000806001600084815260200190815260200160002060009054906101000a900473ffffffffffffffffffffffffffffffffffffffff169050600073ffffffffffffffffffffffffffffffffffffffff168173ffffffffffffffffffffffffffffffffffffffff161415915050919050565b6000611a56826119d9565b611a95576040517f08c379a0000000000000000000000000000000000000000000000000000000008152600401611a8c9061336e565b60405180910390fd5b6000611aa083610ec2565b90508073ffffffffffffffffffffffffffffffffffffffff168473ffffffffffffffffffffffffffffffffffffffff161480611b0f57508373ffffffffffffffffffffffffffffffffffffffff16611af784610849565b73ffffffffffffffffffffffffffffffffffffffff16145b80611b205750611b1f8185611827565b5b91505092915050565b611b34838383611ce2565b611b3e8382611f11565b611b4882826120af565b505050565b611b578282612176565b611b6182826120af565b611b6a81612328565b5050565b6001601460008282540192505081905550565b6001816000016000828254019250508190555050565b6001600e60008282540192505081905550565b600081600001549050919050565b6000611bd98473ffffffffffffffffffffffffffffffffffffffff16612374565b611be65760019050611cc7565b60008473ffffffffffffffffffffffffffffffffffffffff1663150b7a02338887876040518563ffffffff1660e01b8152600401611c2794939291906131f5565b602060405180830381600087803b158015611c4157600080fd5b505af1158015611c55573d6000803e3d6000fd5b505050506040513d601f19601f82011682018060405250611c7991908101906129cd565b905063150b7a0260e01b7bffffffffffffffffffffffffffffffffffffffffffffffffffffffff1916817bffffffffffffffffffffffffffffffffffffffffffffffffffffffff1916149150505b949350505050565b6001600f60008282540192505081905550565b8273ffffffffffffffffffffffffffffffffffffffff16611d0282610ec2565b73ffffffffffffffffffffffffffffffffffffffff1614611d58576040517f08c379a0000000000000000000000000000000000000000000000000000000008152600401611d4f9061344e565b60405180910390fd5b600073ffffffffffffffffffffffffffffffffffffffff168273ffffffffffffffffffffffffffffffffffffffff161415611dc8576040517f08c379a0000000000000000000000000000000000000000000000000000000008152600401611dbf9061330e565b60405180910390fd5b611dd181612387565b611e18600360008573ffffffffffffffffffffffffffffffffffffffff1673ffffffffffffffffffffffffffffffffffffffff168152602001908152602001600020612445565b611e5f600360008473ffffffffffffffffffffffffffffffffffffffff1673ffffffffffffffffffffffffffffffffffffffff168152602001908152602001600020611b81565b816001600083815260200190815260200160002060006101000a81548173ffffffffffffffffffffffffffffffffffffffff021916908373ffffffffffffffffffffffffffffffffffffffff160217905550808273ffffffffffffffffffffffffffffffffffffffff168473ffffffffffffffffffffffffffffffffffffffff167fddf252ad1be2c89b69c2b068fc378daa952ba7f163c4a11628f55a4df523b3ef60405160405180910390a4505050565b6000611f696001600560008673ffffffffffffffffffffffffffffffffffffffff1673ffffffffffffffffffffffffffffffffffffffff1681526020019081526020016000208054905061246890919063ffffffff16565b9050600060066000848152602001908152602001600020549050818114612056576000600560008673ffffffffffffffffffffffffffffffffffffffff1673ffffffffffffffffffffffffffffffffffffffff1681526020019081526020016000208381548110611fd657fe5b9060005260206000200154905080600560008773ffffffffffffffffffffffffffffffffffffffff1673ffffffffffffffffffffffffffffffffffffffff168152602001908152602001600020838154811061202e57fe5b9060005260206000200181905550816006600083815260200190815260200160002081905550505b600560008573ffffffffffffffffffffffffffffffffffffffff1673ffffffffffffffffffffffffffffffffffffffff1681526020019081526020016000208054809190600190036120a8919061253e565b5050505050565b600560008373ffffffffffffffffffffffffffffffffffffffff1673ffffffffffffffffffffffffffffffffffffffff168152602001908152602001600020805490506006600083815260200190815260200160002081905550600560008373ffffffffffffffffffffffffffffffffffffffff1673ffffffffffffffffffffffffffffffffffffffff1681526020019081526020016000208190806001815401808255809150509060018203906000526020600020016000909192909190915055505050565b600073ffffffffffffffffffffffffffffffffffffffff168273ffffffffffffffffffffffffffffffffffffffff1614156121e6576040517f08c379a00000000000000000000000000000000000000000000000000000000081526004016121dd9061340e565b60405180910390fd5b6121ef816119d9565b1561222f576040517f08c379a0000000000000000000000000000000000000000000000000000000008152600401612226906132ee565b60405180910390fd5b816001600083815260200190815260200160002060006101000a81548173ffffffffffffffffffffffffffffffffffffffff021916908373ffffffffffffffffffffffffffffffffffffffff1602179055506122c8600360008473ffffffffffffffffffffffffffffffffffffffff1673ffffffffffffffffffffffffffffffffffffffff168152602001908152602001600020611b81565b808273ffffffffffffffffffffffffffffffffffffffff16600073ffffffffffffffffffffffffffffffffffffffff167fddf252ad1be2c89b69c2b068fc378daa952ba7f163c4a11628f55a4df523b3ef60405160405180910390a45050565b6007805490506008600083815260200190815260200160002081905550600781908060018154018082558091505090600182039060005260206000200160009091929091909150555050565b600080823b905060008111915050919050565b600073ffffffffffffffffffffffffffffffffffffffff166002600083815260200190815260200160002060009054906101000a900473ffffffffffffffffffffffffffffffffffffffff1673ffffffffffffffffffffffffffffffffffffffff16146124425760006002600083815260200190815260200160002060006101000a81548173ffffffffffffffffffffffffffffffffffffffff021916908373ffffffffffffffffffffffffffffffffffffffff1602179055505b50565b61245d6001826000015461246890919063ffffffff16565b816000018190555050565b6000828211156124ad576040517f08c379a00000000000000000000000000000000000000000000000000000000081526004016124a49061334e565b60405180910390fd5b600082840390508091505092915050565b828054600181600116156101000203166002900490600052602060002090601f016020900481019282601f106124ff57805160ff191683800117855561252d565b8280016001018555821561252d579182015b8281111561252c578251825591602001919060010190612511565b5b50905061253a919061256a565b5090565b81548183558181111561256557818360005260206000209182019101612564919061256a565b5b505050565b61258c91905b80821115612588576000816000905550600101612570565b5090565b90565b60008135905061259e81613772565b92915050565b600082601f8301126125b557600080fd5b81356125c86125c382613586565b613559565b9150818183526020840193506020810190508360005b8381101561260e57813586016125f488826126ab565b8452602084019350602083019250506001810190506125de565b5050505092915050565b60008135905061262781613789565b92915050565b60008135905061263c816137a0565b92915050565b600081519050612651816137a0565b92915050565b600082601f83011261266857600080fd5b813561267b612676826135ae565b613559565b9150808252602083016020830185838301111561269757600080fd5b6126a283828461371f565b50505092915050565b600082601f8301126126bc57600080fd5b81356126cf6126ca826135da565b613559565b915080825260208301602083018583830111156126eb57600080fd5b6126f683828461371f565b50505092915050565b600082601f83011261271057600080fd5b813561272361271e82613606565b613559565b9150808252602083016020830185838301111561273f57600080fd5b61274a83828461371f565b50505092915050565b600081359050612762816137b7565b92915050565b60006020828403121561277a57600080fd5b60006127888482850161258f565b91505092915050565b600080604083850312156127a457600080fd5b60006127b28582860161258f565b92505060206127c38582860161258f565b9150509250929050565b6000806000606084860312156127e257600080fd5b60006127f08682870161258f565b93505060206128018682870161258f565b925050604061281286828701612753565b9150509250925092565b6000806000806080858703121561283257600080fd5b60006128408782880161258f565b94505060206128518782880161258f565b935050604061286287828801612753565b925050606085013567ffffffffffffffff81111561287f57600080fd5b61288b87828801612657565b91505092959194509250565b600080604083850312156128aa57600080fd5b60006128b88582860161258f565b92505060206128c985828601612618565b9150509250929050565b600080604083850312156128e657600080fd5b60006128f48582860161258f565b925050602083013567ffffffffffffffff81111561291157600080fd5b61291d858286016126ff565b9150509250929050565b6000806040838503121561293a57600080fd5b60006129488582860161258f565b925050602061295985828601612753565b9150509250929050565b60006020828403121561297557600080fd5b600082013567ffffffffffffffff81111561298f57600080fd5b61299b848285016125a4565b91505092915050565b6000602082840312156129b657600080fd5b60006129c48482850161262d565b91505092915050565b6000602082840312156129df57600080fd5b60006129ed84828501612642565b91505092915050565b600060208284031215612a0857600080fd5b6000612a1684828501612753565b91505092915050565b612a28816136e9565b82525050565b612a3781613675565b82525050565b612a4681613687565b82525050565b6000612a5782613632565b612a618185613653565b9350612a7181856020860161372e565b612a7a81613761565b840191505092915050565b6000612a9082613648565b612a9a8185613664565b9350612aaa81856020860161372e565b612ab381613761565b840191505092915050565b6000612ac98261363d565b612ad38185613664565b9350612ae381856020860161372e565b612aec81613761565b840191505092915050565b6000612b04602b83613664565b91507f455243373231456e756d657261626c653a206f776e657220696e646578206f7560008301527f74206f6620626f756e64730000000000000000000000000000000000000000006020830152604082019050919050565b6000612b6a603283613664565b91507f4552433732313a207472616e7366657220746f206e6f6e20455243373231526560008301527f63656976657220696d706c656d656e74657200000000000000000000000000006020830152604082019050919050565b6000612bd0601c83613664565b91507f4552433732313a20746f6b656e20616c7265616479206d696e746564000000006000830152602082019050919050565b6000612c10602483613664565b91507f4552433732313a207472616e7366657220746f20746865207a65726f2061646460008301527f72657373000000000000000000000000000000000000000000000000000000006020830152604082019050919050565b6000612c76601983613664565b91507f4552433732313a20617070726f766520746f2063616c6c6572000000000000006000830152602082019050919050565b6000612cb6601e83613664565b91507f536166654d6174683a207375627472616374696f6e206f766572666c6f7700006000830152602082019050919050565b6000612cf6602c83613664565b91507f4552433732313a206f70657261746f7220717565727920666f72206e6f6e657860008301527f697374656e7420746f6b656e00000000000000000000000000000000000000006020830152604082019050919050565b6000612d5c601583613664565b91507f73656e646572206973206e6f742061206f776e657200000000000000000000006000830152602082019050919050565b6000612d9c603883613664565b91507f4552433732313a20617070726f76652063616c6c6572206973206e6f74206f7760008301527f6e6572206e6f7220617070726f76656420666f7220616c6c00000000000000006020830152604082019050919050565b6000612e02602a83613664565b91507f4552433732313a2062616c616e636520717565727920666f7220746865207a6560008301527f726f2061646472657373000000000000000000000000000000000000000000006020830152604082019050919050565b6000612e68602983613664565b91507f4552433732313a206f776e657220717565727920666f72206e6f6e657869737460008301527f656e7420746f6b656e00000000000000000000000000000000000000000000006020830152604082019050919050565b6000612ece602083613664565b91507f4552433732313a206d696e7420746f20746865207a65726f20616464726573736000830152602082019050919050565b6000612f0e602c83613664565b91507f4552433732313a20617070726f76656420717565727920666f72206e6f6e657860008301527f697374656e7420746f6b656e00000000000000000000000000000000000000006020830152604082019050919050565b6000612f74602983613664565b91507f4552433732313a207472616e73666572206f6620746f6b656e2074686174206960008301527f73206e6f74206f776e00000000000000000000000000000000000000000000006020830152604082019050919050565b6000612fda602f83613664565b91507f4552433732314d657461646174613a2055524920717565727920666f72206e6f60008301527f6e6578697374656e7420746f6b656e00000000000000000000000000000000006020830152604082019050919050565b6000613040602183613664565b91507f4552433732313a20617070726f76616c20746f2063757272656e74206f776e6560008301527f72000000000000000000000000000000000000000000000000000000000000006020830152604082019050919050565b60006130a6602983613664565b91507f4576656e743a2062616c616e636520717565727920666f7220746865207a657260008301527f6f206164647265737300000000000000000000000000000000000000000000006020830152604082019050919050565b600061310c603183613664565b91507f4552433732313a207472616e736665722063616c6c6572206973206e6f74206f60008301527f776e6572206e6f7220617070726f7665640000000000000000000000000000006020830152604082019050919050565b6000613172602c83613664565b91507f455243373231456e756d657261626c653a20676c6f62616c20696e646578206f60008301527f7574206f6620626f756e647300000000000000000000000000000000000000006020830152604082019050919050565b6131d4816136df565b82525050565b60006020820190506131ef6000830184612a2e565b92915050565b600060808201905061320a6000830187612a1f565b6132176020830186612a2e565b61322460408301856131cb565b81810360608301526132368184612a4c565b905095945050505050565b60006040820190506132566000830185612a2e565b81810360208301526132688184612abe565b90509392505050565b60006020820190506132866000830184612a3d565b92915050565b600060208201905081810360008301526132a68184612a85565b905092915050565b600060208201905081810360008301526132c781612af7565b9050919050565b600060208201905081810360008301526132e781612b5d565b9050919050565b6000602082019050818103600083015261330781612bc3565b9050919050565b6000602082019050818103600083015261332781612c03565b9050919050565b6000602082019050818103600083015261334781612c69565b9050919050565b6000602082019050818103600083015261336781612ca9565b9050919050565b6000602082019050818103600083015261338781612ce9565b9050919050565b600060208201905081810360008301526133a781612d4f565b9050919050565b600060208201905081810360008301526133c781612d8f565b9050919050565b600060208201905081810360008301526133e781612df5565b9050919050565b6000602082019050818103600083015261340781612e5b565b9050919050565b6000602082019050818103600083015261342781612ec1565b9050919050565b6000602082019050818103600083015261344781612f01565b9050919050565b6000602082019050818103600083015261346781612f67565b9050919050565b6000602082019050818103600083015261348781612fcd565b9050919050565b600060208201905081810360008301526134a781613033565b9050919050565b600060208201905081810360008301526134c781613099565b9050919050565b600060208201905081810360008301526134e7816130ff565b9050919050565b6000602082019050818103600083015261350781613165565b9050919050565b600060208201905061352360008301846131cb565b92915050565b600060408201905061353e60008301856131cb565b81810360208301526135508184612abe565b90509392505050565b6000604051905081810181811067ffffffffffffffff8211171561357c57600080fd5b8060405250919050565b600067ffffffffffffffff82111561359d57600080fd5b602082029050602081019050919050565b600067ffffffffffffffff8211156135c557600080fd5b601f19601f8301169050602081019050919050565b600067ffffffffffffffff8211156135f157600080fd5b601f19601f8301169050602081019050919050565b600067ffffffffffffffff82111561361d57600080fd5b601f19601f8301169050602081019050919050565b600081519050919050565b600081519050919050565b600081519050919050565b600082825260208201905092915050565b600082825260208201905092915050565b6000613680826136bf565b9050919050565b60008115159050919050565b60007fffffffff0000000000000000000000000000000000000000000000000000000082169050919050565b600073ffffffffffffffffffffffffffffffffffffffff82169050919050565b6000819050919050565b60006136f4826136fb565b9050919050565b60006137068261370d565b9050919050565b6000613718826136bf565b9050919050565b82818337600083830152505050565b60005b8381101561374c578082015181840152602081019050613731565b8381111561375b576000848401525b50505050565b6000601f19601f8301169050919050565b61377b81613675565b811461378657600080fd5b50565b61379281613687565b811461379d57600080fd5b50565b6137a981613693565b81146137b457600080fd5b50565b6137c0816136df565b81146137cb57600080fd5b5056fea365627a7a7231582019d31a95e337d1c5b9188700524bd3690c9149db8ac156869618daaf15bf426c6c6578706572696d656e74616cf564736f6c63430005100040",
  "source": "pragma solidity ^0.5.16;\npragma experimental ABIEncoderV2;\n\nimport \"./ERC721Full.sol\";\nimport \"./Event.sol\";\n\ncontract Ticket is ERC721Full, Event {\n  mapping(uint => Ticket) public tickets;\n  // mapping(string => bool) _ticketExists;\n  uint256 public ticketCount = 0;\n\n  constructor() ERC721Full(\"Ticket\", \"TCK\") public {\n  }\n\n  struct Ticket {\n    uint eventId;\n    string ticketDetail;\n  }\n\n  function incrementCount() internal {\n    ticketCount += 1;\n  }\n\n  function mint(string[] memory _tickets) public {\n    for(uint index = 0; index < _tickets.length; index++) {\n      tickets[ticketCount] = Ticket(eventId - 1, _tickets[index]);\n      _mint(msg.sender, ticketCount);\n      incrementCount();\n    }\n    // require(!_ticketExists[_ticket]);\n\n    // _ticketExists[_ticket] = true;\n  }\n\n  // function transferFrom(address _from, address _to, uint256 _tokenId) public {\n  //   _transferFrom(_from, _to, _tokenId);\n  // }\n\n}\n",
  "sourcePath": "/Users/timcheng/personal/nft/src/contracts/Ticket.sol",
  "compiler": {
    "name": "solc",
    "version": "0.5.16+commit.9c3226ce.Emscripten.clang"
  },
  "schemaVersion": "3.3.2",
  "updatedAt": "2020-12-13T15:13:53.965Z",
  "networkType": "ethereum",
  "devdoc": {
    "methods": {
      "approve(address,uint256)": {
        "details": "Approves another address to transfer the given token ID The zero address indicates there is no approved address. There can only be one approved address per token at a given time. Can only be called by the token owner or an approved operator.",
        "params": {
          "to": "address to be approved for the given token ID",
          "tokenId": "uint256 ID of the token to be approved"
        }
      },
      "balanceOf(address)": {
        "details": "Gets the balance of the specified address.",
        "params": {
          "owner": "address to query the balance of"
        },
        "return": "uint256 representing the amount owned by the passed address"
      },
      "getApproved(uint256)": {
        "details": "Gets the approved address for a token ID, or zero if no address set Reverts if the token ID does not exist.",
        "params": {
          "tokenId": "uint256 ID of the token to query the approval of"
        },
        "return": "address currently approved for the given token ID"
      },
      "isApprovedForAll(address,address)": {
        "details": "Tells whether an operator is approved by a given owner.",
        "params": {
          "operator": "operator address which you want to query the approval of",
          "owner": "owner address which you want to query the approval of"
        },
        "return": "bool whether the given operator is approved by the given owner"
      },
      "name()": {
        "details": "Gets the token name.",
        "return": "string representing the token name"
      },
      "ownerOf(uint256)": {
        "details": "Gets the owner of the specified token ID.",
        "params": {
          "tokenId": "uint256 ID of the token to query the owner of"
        },
        "return": "address currently marked as the owner of the given token ID"
      },
      "safeTransferFrom(address,address,uint256)": {
        "details": "Safely transfers the ownership of a given token ID to another address If the target address is a contract, it must implement `onERC721Received`, which is called upon a safe transfer, and return the magic value `bytes4(keccak256(\"onERC721Received(address,address,uint256,bytes)\"))`; otherwise, the transfer is reverted. Requires the msg.sender to be the owner, approved, or operator",
        "params": {
          "from": "current owner of the token",
          "to": "address to receive the ownership of the given token ID",
          "tokenId": "uint256 ID of the token to be transferred"
        }
      },
      "safeTransferFrom(address,address,uint256,bytes)": {
        "details": "Safely transfers the ownership of a given token ID to another address If the target address is a contract, it must implement `onERC721Received`, which is called upon a safe transfer, and return the magic value `bytes4(keccak256(\"onERC721Received(address,address,uint256,bytes)\"))`; otherwise, the transfer is reverted. Requires the msg.sender to be the owner, approved, or operator",
        "params": {
          "_data": "bytes data to send along with a safe transfer check",
          "from": "current owner of the token",
          "to": "address to receive the ownership of the given token ID",
          "tokenId": "uint256 ID of the token to be transferred"
        }
      },
      "setApprovalForAll(address,bool)": {
        "details": "Sets or unsets the approval of a given operator An operator is allowed to transfer all tokens of the sender on their behalf.",
        "params": {
          "approved": "representing the status of the approval to be set",
          "to": "operator address to set the approval"
        }
      },
      "supportsInterface(bytes4)": {
        "details": "See `IERC165.supportsInterface`.     * Time complexity O(1), guaranteed to always use less than 30 000 gas."
      },
      "symbol()": {
        "details": "Gets the token symbol.",
        "return": "string representing the token symbol"
      },
      "tokenByIndex(uint256)": {
        "details": "Gets the token ID at a given index of all the tokens in this contract Reverts if the index is greater or equal to the total number of tokens.",
        "params": {
          "index": "uint256 representing the index to be accessed of the tokens list"
        },
        "return": "uint256 token ID at the given index of the tokens list"
      },
      "tokenOfOwnerByIndex(address,uint256)": {
        "details": "Gets the token ID at a given index of the tokens list of the requested owner.",
        "params": {
          "index": "uint256 representing the index to be accessed of the requested tokens list",
          "owner": "address owning the tokens list to be accessed"
        },
        "return": "uint256 token ID at the given index of the tokens list owned by the requested address"
      },
      "tokenURI(uint256)": {
        "details": "Returns an URI for a given token ID. Throws if the token ID does not exist. May return an empty string.",
        "params": {
          "tokenId": "uint256 ID of the token to query"
        }
      },
      "totalSupply()": {
        "details": "Gets the total amount of tokens stored by the contract.",
        "return": "uint256 representing the total amount of tokens"
      },
      "transferFrom(address,address,uint256)": {
        "details": "Transfers the ownership of a given token ID to another address. Usage of this method is discouraged, use `safeTransferFrom` whenever possible. Requires the msg.sender to be the owner, approved, or operator.",
        "params": {
          "from": "current owner of the token",
          "to": "address to receive the ownership of the given token ID",
          "tokenId": "uint256 ID of the token to be transferred"
        }
      }
    }
  },
  "userdoc": {
    "methods": {}
  }
}