{
  "contractName": "Ticket",
  "abi": [
    {
      "inputs": [],
      "payable": false,
      "stateMutability": "nonpayable",
      "type": "constructor"
    },
    {
      "anonymous": false,
      "inputs": [
        {
          "indexed": true,
          "internalType": "address",
          "name": "owner",
          "type": "address"
        },
        {
          "indexed": true,
          "internalType": "address",
          "name": "approved",
          "type": "address"
        },
        {
          "indexed": true,
          "internalType": "uint256",
          "name": "tokenId",
          "type": "uint256"
        }
      ],
      "name": "Approval",
      "type": "event"
    },
    {
      "anonymous": false,
      "inputs": [
        {
          "indexed": true,
          "internalType": "address",
          "name": "owner",
          "type": "address"
        },
        {
          "indexed": true,
          "internalType": "address",
          "name": "operator",
          "type": "address"
        },
        {
          "indexed": false,
          "internalType": "bool",
          "name": "approved",
          "type": "bool"
        }
      ],
      "name": "ApprovalForAll",
      "type": "event"
    },
    {
      "anonymous": false,
      "inputs": [
        {
          "indexed": false,
          "internalType": "address",
          "name": "_owner",
          "type": "address"
        },
        {
          "indexed": false,
          "internalType": "string",
          "name": "_detail",
          "type": "string"
        }
      ],
      "name": "Create",
      "type": "event"
    },
    {
      "anonymous": false,
      "inputs": [
        {
          "indexed": false,
          "internalType": "string[]",
          "name": "_tickets",
          "type": "string[]"
        }
      ],
      "name": "CreateTickets",
      "type": "event"
    },
    {
      "anonymous": false,
      "inputs": [
        {
          "indexed": false,
          "internalType": "string[]",
          "name": "_tickets",
          "type": "string[]"
        },
        {
          "indexed": false,
          "internalType": "uint256",
          "name": "_eventId",
          "type": "uint256"
        }
      ],
      "name": "CreateTicketsByEvent",
      "type": "event"
    },
    {
      "anonymous": false,
      "inputs": [
        {
          "indexed": false,
          "internalType": "address",
          "name": "target",
          "type": "address"
        },
        {
          "indexed": false,
          "internalType": "uint256",
          "name": "tokenId",
          "type": "uint256"
        }
      ],
      "name": "Trade",
      "type": "event"
    },
    {
      "anonymous": false,
      "inputs": [
        {
          "indexed": false,
          "internalType": "address",
          "name": "from",
          "type": "address"
        },
        {
          "indexed": false,
          "internalType": "address",
          "name": "to",
          "type": "address"
        },
        {
          "indexed": false,
          "internalType": "uint256",
          "name": "tokenId",
          "type": "uint256"
        }
      ],
      "name": "Transfer",
      "type": "event"
    },
    {
      "anonymous": false,
      "inputs": [
        {
          "indexed": false,
          "internalType": "address",
          "name": "from",
          "type": "address"
        },
        {
          "indexed": false,
          "internalType": "address",
          "name": "to",
          "type": "address"
        },
        {
          "indexed": false,
          "internalType": "uint256[]",
          "name": "tokenId",
          "type": "uint256[]"
        }
      ],
      "name": "TransferMulti",
      "type": "event"
    },
    {
      "constant": false,
      "inputs": [
        {
          "internalType": "address",
          "name": "_approve",
          "type": "address"
        }
      ],
      "name": "addApproval",
      "outputs": [],
      "payable": false,
      "stateMutability": "nonpayable",
      "type": "function"
    },
    {
      "constant": false,
      "inputs": [
        {
          "internalType": "address",
          "name": "to",
          "type": "address"
        },
        {
          "internalType": "uint256",
          "name": "tokenId",
          "type": "uint256"
        }
      ],
      "name": "approve",
      "outputs": [],
      "payable": false,
      "stateMutability": "nonpayable",
      "type": "function"
    },
    {
      "constant": true,
      "inputs": [],
      "name": "approveId",
      "outputs": [
        {
          "internalType": "uint256",
          "name": "",
          "type": "uint256"
        }
      ],
      "payable": false,
      "stateMutability": "view",
      "type": "function"
    },
    {
      "constant": true,
      "inputs": [
        {
          "internalType": "address",
          "name": "",
          "type": "address"
        }
      ],
      "name": "approves",
      "outputs": [
        {
          "internalType": "bool",
          "name": "",
          "type": "bool"
        }
      ],
      "payable": false,
      "stateMutability": "view",
      "type": "function"
    },
    {
      "constant": true,
      "inputs": [
        {
          "internalType": "address",
          "name": "owner",
          "type": "address"
        }
      ],
      "name": "balanceOf",
      "outputs": [
        {
          "internalType": "uint256",
          "name": "",
          "type": "uint256"
        }
      ],
      "payable": false,
      "stateMutability": "view",
      "type": "function"
    },
    {
      "constant": false,
      "inputs": [
        {
          "internalType": "address",
          "name": "_owner",
          "type": "address"
        },
        {
          "internalType": "string",
          "name": "_detail",
          "type": "string"
        }
      ],
      "name": "createEvent",
      "outputs": [],
      "payable": false,
      "stateMutability": "nonpayable",
      "type": "function"
    },
    {
      "constant": true,
      "inputs": [],
      "name": "eventContractOwner",
      "outputs": [
        {
          "internalType": "address",
          "name": "",
          "type": "address"
        }
      ],
      "payable": false,
      "stateMutability": "view",
      "type": "function"
    },
    {
      "constant": true,
      "inputs": [],
      "name": "eventId",
      "outputs": [
        {
          "internalType": "uint256",
          "name": "",
          "type": "uint256"
        }
      ],
      "payable": false,
      "stateMutability": "view",
      "type": "function"
    },
    {
      "constant": true,
      "inputs": [
        {
          "internalType": "uint256",
          "name": "",
          "type": "uint256"
        }
      ],
      "name": "eventOwner",
      "outputs": [
        {
          "internalType": "address",
          "name": "",
          "type": "address"
        }
      ],
      "payable": false,
      "stateMutability": "view",
      "type": "function"
    },
    {
      "constant": true,
      "inputs": [
        {
          "internalType": "address",
          "name": "_owner",
          "type": "address"
        }
      ],
      "name": "eventOwnerBalanceOf",
      "outputs": [
        {
          "internalType": "uint256",
          "name": "",
          "type": "uint256"
        }
      ],
      "payable": false,
      "stateMutability": "view",
      "type": "function"
    },
    {
      "constant": true,
      "inputs": [
        {
          "internalType": "uint256",
          "name": "",
          "type": "uint256"
        }
      ],
      "name": "events",
      "outputs": [
        {
          "internalType": "address",
          "name": "owner",
          "type": "address"
        },
        {
          "internalType": "string",
          "name": "detail",
          "type": "string"
        }
      ],
      "payable": false,
      "stateMutability": "view",
      "type": "function"
    },
    {
      "constant": true,
      "inputs": [],
      "name": "getApproveId",
      "outputs": [
        {
          "internalType": "uint256",
          "name": "",
          "type": "uint256"
        }
      ],
      "payable": false,
      "stateMutability": "view",
      "type": "function"
    },
    {
      "constant": true,
      "inputs": [
        {
          "internalType": "uint256",
          "name": "tokenId",
          "type": "uint256"
        }
      ],
      "name": "getApproved",
      "outputs": [
        {
          "internalType": "address",
          "name": "",
          "type": "address"
        }
      ],
      "payable": false,
      "stateMutability": "view",
      "type": "function"
    },
    {
      "constant": true,
      "inputs": [
        {
          "internalType": "uint256",
          "name": "_eventId",
          "type": "uint256"
        }
      ],
      "name": "getEvent",
      "outputs": [
        {
          "internalType": "string",
          "name": "",
          "type": "string"
        }
      ],
      "payable": false,
      "stateMutability": "view",
      "type": "function"
    },
    {
      "constant": true,
      "inputs": [],
      "name": "getEventContractOwner",
      "outputs": [
        {
          "internalType": "address",
          "name": "",
          "type": "address"
        }
      ],
      "payable": false,
      "stateMutability": "view",
      "type": "function"
    },
    {
      "constant": true,
      "inputs": [],
      "name": "getEventId",
      "outputs": [
        {
          "internalType": "uint256",
          "name": "",
          "type": "uint256"
        }
      ],
      "payable": false,
      "stateMutability": "view",
      "type": "function"
    },
    {
      "constant": true,
      "inputs": [
        {
          "internalType": "uint256",
          "name": "_eventId",
          "type": "uint256"
        }
      ],
      "name": "getEventOwner",
      "outputs": [
        {
          "internalType": "address",
          "name": "",
          "type": "address"
        }
      ],
      "payable": false,
      "stateMutability": "view",
      "type": "function"
    },
    {
      "constant": true,
      "inputs": [
        {
          "internalType": "address",
          "name": "_approve",
          "type": "address"
        }
      ],
      "name": "isApproval",
      "outputs": [
        {
          "internalType": "bool",
          "name": "",
          "type": "bool"
        }
      ],
      "payable": false,
      "stateMutability": "view",
      "type": "function"
    },
    {
      "constant": true,
      "inputs": [
        {
          "internalType": "address",
          "name": "owner",
          "type": "address"
        },
        {
          "internalType": "address",
          "name": "operator",
          "type": "address"
        }
      ],
      "name": "isApprovedForAll",
      "outputs": [
        {
          "internalType": "bool",
          "name": "",
          "type": "bool"
        }
      ],
      "payable": false,
      "stateMutability": "view",
      "type": "function"
    },
    {
      "constant": true,
      "inputs": [],
      "name": "marketplaceTicketId",
      "outputs": [
        {
          "internalType": "uint256",
          "name": "",
          "type": "uint256"
        }
      ],
      "payable": false,
      "stateMutability": "view",
      "type": "function"
    },
    {
      "constant": true,
      "inputs": [
        {
          "internalType": "uint256",
          "name": "",
          "type": "uint256"
        }
      ],
      "name": "marketplaceTicketList",
      "outputs": [
        {
          "internalType": "uint256",
          "name": "",
          "type": "uint256"
        }
      ],
      "payable": false,
      "stateMutability": "view",
      "type": "function"
    },
    {
      "constant": true,
      "inputs": [
        {
          "internalType": "uint256",
          "name": "",
          "type": "uint256"
        }
      ],
      "name": "marketplaceTickets",
      "outputs": [
        {
          "internalType": "address",
          "name": "",
          "type": "address"
        }
      ],
      "payable": false,
      "stateMutability": "view",
      "type": "function"
    },
    {
      "constant": true,
      "inputs": [],
      "name": "name",
      "outputs": [
        {
          "internalType": "string",
          "name": "",
          "type": "string"
        }
      ],
      "payable": false,
      "stateMutability": "view",
      "type": "function"
    },
    {
      "constant": true,
      "inputs": [
        {
          "internalType": "uint256",
          "name": "tokenId",
          "type": "uint256"
        }
      ],
      "name": "ownerOf",
      "outputs": [
        {
          "internalType": "address",
          "name": "",
          "type": "address"
        }
      ],
      "payable": false,
      "stateMutability": "view",
      "type": "function"
    },
    {
      "constant": false,
      "inputs": [
        {
          "internalType": "address",
          "name": "_approve",
          "type": "address"
        }
      ],
      "name": "removeApproval",
      "outputs": [],
      "payable": false,
      "stateMutability": "nonpayable",
      "type": "function"
    },
    {
      "constant": false,
      "inputs": [
        {
          "internalType": "address",
          "name": "to",
          "type": "address"
        },
        {
          "internalType": "bool",
          "name": "approved",
          "type": "bool"
        }
      ],
      "name": "setApprovalForAll",
      "outputs": [],
      "payable": false,
      "stateMutability": "nonpayable",
      "type": "function"
    },
    {
      "constant": true,
      "inputs": [
        {
          "internalType": "bytes4",
          "name": "interfaceId",
          "type": "bytes4"
        }
      ],
      "name": "supportsInterface",
      "outputs": [
        {
          "internalType": "bool",
          "name": "",
          "type": "bool"
        }
      ],
      "payable": false,
      "stateMutability": "view",
      "type": "function"
    },
    {
      "constant": true,
      "inputs": [],
      "name": "symbol",
      "outputs": [
        {
          "internalType": "string",
          "name": "",
          "type": "string"
        }
      ],
      "payable": false,
      "stateMutability": "view",
      "type": "function"
    },
    {
      "constant": true,
      "inputs": [],
      "name": "ticketContractOwner",
      "outputs": [
        {
          "internalType": "address",
          "name": "",
          "type": "address"
        }
      ],
      "payable": false,
      "stateMutability": "view",
      "type": "function"
    },
    {
      "constant": true,
      "inputs": [],
      "name": "ticketCount",
      "outputs": [
        {
          "internalType": "uint256",
          "name": "",
          "type": "uint256"
        }
      ],
      "payable": false,
      "stateMutability": "view",
      "type": "function"
    },
    {
      "constant": true,
      "inputs": [
        {
          "internalType": "uint256",
          "name": "",
          "type": "uint256"
        }
      ],
      "name": "tickets",
      "outputs": [
        {
          "internalType": "uint256",
          "name": "eventId",
          "type": "uint256"
        },
        {
          "internalType": "string",
          "name": "ticketDetail",
          "type": "string"
        },
        {
          "internalType": "uint256",
          "name": "ticketId",
          "type": "uint256"
        }
      ],
      "payable": false,
      "stateMutability": "view",
      "type": "function"
    },
    {
      "constant": true,
      "inputs": [
        {
          "internalType": "uint256",
          "name": "index",
          "type": "uint256"
        }
      ],
      "name": "tokenByIndex",
      "outputs": [
        {
          "internalType": "uint256",
          "name": "",
          "type": "uint256"
        }
      ],
      "payable": false,
      "stateMutability": "view",
      "type": "function"
    },
    {
      "constant": true,
      "inputs": [
        {
          "internalType": "address",
          "name": "owner",
          "type": "address"
        },
        {
          "internalType": "uint256",
          "name": "index",
          "type": "uint256"
        }
      ],
      "name": "tokenOfOwnerByIndex",
      "outputs": [
        {
          "internalType": "uint256",
          "name": "",
          "type": "uint256"
        }
      ],
      "payable": false,
      "stateMutability": "view",
      "type": "function"
    },
    {
      "constant": true,
      "inputs": [
        {
          "internalType": "uint256",
          "name": "tokenId",
          "type": "uint256"
        }
      ],
      "name": "tokenURI",
      "outputs": [
        {
          "internalType": "string",
          "name": "",
          "type": "string"
        }
      ],
      "payable": false,
      "stateMutability": "view",
      "type": "function"
    },
    {
      "constant": true,
      "inputs": [],
      "name": "totalSupply",
      "outputs": [
        {
          "internalType": "uint256",
          "name": "",
          "type": "uint256"
        }
      ],
      "payable": false,
      "stateMutability": "view",
      "type": "function"
    },
    {
      "constant": false,
      "inputs": [
        {
          "internalType": "address",
          "name": "from",
          "type": "address"
        },
        {
          "internalType": "address",
          "name": "to",
          "type": "address"
        },
        {
          "internalType": "uint256",
          "name": "tokenId",
          "type": "uint256"
        }
      ],
      "name": "transferFrom",
      "outputs": [],
      "payable": false,
      "stateMutability": "nonpayable",
      "type": "function"
    },
    {
      "constant": true,
      "inputs": [],
      "name": "getTicketCount",
      "outputs": [
        {
          "internalType": "uint256",
          "name": "",
          "type": "uint256"
        }
      ],
      "payable": false,
      "stateMutability": "view",
      "type": "function"
    },
    {
      "constant": true,
      "inputs": [],
      "name": "getMarketplaceTicketId",
      "outputs": [
        {
          "internalType": "uint256",
          "name": "",
          "type": "uint256"
        }
      ],
      "payable": false,
      "stateMutability": "view",
      "type": "function"
    },
    {
      "constant": false,
      "inputs": [
        {
          "internalType": "string[]",
          "name": "_tickets",
          "type": "string[]"
        }
      ],
      "name": "mint",
      "outputs": [],
      "payable": false,
      "stateMutability": "nonpayable",
      "type": "function"
    },
    {
      "constant": false,
      "inputs": [
        {
          "internalType": "string[]",
          "name": "_tickets",
          "type": "string[]"
        },
        {
          "internalType": "uint256",
          "name": "_eventId",
          "type": "uint256"
        }
      ],
      "name": "mintByEvent",
      "outputs": [],
      "payable": false,
      "stateMutability": "nonpayable",
      "type": "function"
    },
    {
      "constant": false,
      "inputs": [
        {
          "internalType": "address",
          "name": "_from",
          "type": "address"
        },
        {
          "internalType": "address",
          "name": "_to",
          "type": "address"
        },
        {
          "internalType": "uint256[]",
          "name": "_tokenIds",
          "type": "uint256[]"
        }
      ],
      "name": "multiTransferFrom",
      "outputs": [],
      "payable": false,
      "stateMutability": "nonpayable",
      "type": "function"
    },
    {
      "constant": false,
      "inputs": [
        {
          "internalType": "address",
          "name": "_from",
          "type": "address"
        },
        {
          "internalType": "address",
          "name": "_to",
          "type": "address"
        },
        {
          "internalType": "uint256",
          "name": "_tokenId",
          "type": "uint256"
        }
      ],
      "name": "safeTransferFrom",
      "outputs": [],
      "payable": false,
      "stateMutability": "nonpayable",
      "type": "function"
    },
    {
      "constant": false,
      "inputs": [
        {
          "internalType": "address",
          "name": "from",
          "type": "address"
        },
        {
          "internalType": "address",
          "name": "to",
          "type": "address"
        },
        {
          "internalType": "uint256",
          "name": "tokenId",
          "type": "uint256"
        },
        {
          "internalType": "bytes",
          "name": "_data",
          "type": "bytes"
        }
      ],
      "name": "safeTransferFrom",
      "outputs": [],
      "payable": false,
      "stateMutability": "nonpayable",
      "type": "function"
    },
    {
      "constant": false,
      "inputs": [
        {
          "internalType": "address",
          "name": "seller",
          "type": "address"
        },
        {
          "internalType": "uint256",
          "name": "ticketId",
          "type": "uint256"
        }
      ],
      "name": "sellTicketsOnMarketplace",
      "outputs": [],
      "payable": false,
      "stateMutability": "nonpayable",
      "type": "function"
    },
    {
      "constant": false,
      "inputs": [
        {
          "internalType": "address",
          "name": "buyer",
          "type": "address"
        },
        {
          "internalType": "uint256",
          "name": "ticketId",
          "type": "uint256"
        }
      ],
      "name": "buyTicketOnMarketplace",
      "outputs": [],
      "payable": false,
      "stateMutability": "nonpayable",
      "type": "function"
    },
    {
      "constant": false,
      "inputs": [
        {
          "internalType": "address",
          "name": "from",
          "type": "address"
        },
        {
          "internalType": "address",
          "name": "to",
          "type": "address"
        },
        {
          "internalType": "uint256",
          "name": "tokenId",
          "type": "uint256"
        }
      ],
      "name": "transferFromByContractOwner",
      "outputs": [],
      "payable": false,
      "stateMutability": "nonpayable",
      "type": "function"
    },
    {
      "constant": true,
      "inputs": [
        {
          "internalType": "uint256",
          "name": "ticketId",
          "type": "uint256"
        }
      ],
      "name": "getTicketOnMarketplace",
      "outputs": [
        {
          "internalType": "address",
          "name": "",
          "type": "address"
        }
      ],
      "payable": false,
      "stateMutability": "view",
      "type": "function"
    }
  ],
  "bytecode": "0x60806040526000600e556000600f5560006014553480156200002057600080fd5b506040518060400160405280600681526020017f5469636b657400000000000000000000000000000000000000000000000000008152506040518060400160405280600381526020017f54434b00000000000000000000000000000000000000000000000000000000008152508181620000a76301ffc9a760e01b620001ad60201b60201c565b620000bf6380ac58cd60e01b620001ad60201b60201c565b620000d763780e9d6360e01b620001ad60201b60201c565b8160099080519060200190620000ef92919062000285565b5080600a90805190602001906200010892919062000285565b5062000121635b5e139f60e01b620001ad60201b60201c565b5050505033601060006101000a81548173ffffffffffffffffffffffffffffffffffffffff021916908373ffffffffffffffffffffffffffffffffffffffff16021790555033601560006101000a81548173ffffffffffffffffffffffffffffffffffffffff021916908373ffffffffffffffffffffffffffffffffffffffff160217905550620003a9565b63ffffffff60e01b817bffffffffffffffffffffffffffffffffffffffffffffffffffffffff1916141562000219576040517f08c379a0000000000000000000000000000000000000000000000000000000008152600401620002109062000376565b60405180910390fd5b6001600080837bffffffffffffffffffffffffffffffffffffffffffffffffffffffff19167bffffffffffffffffffffffffffffffffffffffffffffffffffffffff1916815260200190815260200160002060006101000a81548160ff02191690831515021790555050565b828054600181600116156101000203166002900490600052602060002090601f016020900481019282601f10620002c857805160ff1916838001178555620002f9565b82800160010185558215620002f9579182015b82811115620002f8578251825591602001919060010190620002db565b5b5090506200030891906200030c565b5090565b6200033191905b808211156200032d57600081600090555060010162000313565b5090565b90565b600062000343601c8362000398565b91507f4552433136353a20696e76616c696420696e74657266616365206964000000006000830152602082019050919050565b60006020820190508181036000830152620003918162000334565b9050919050565b600082825260208201905092915050565b61487380620003b96000396000f3fe608060405234801561001057600080fd5b50600436106102955760003560e01c80636d1884e011610167578063b4d59d27116100ce578063d37f4acf11610087578063d37f4acf1461084d578063dc8636d51461087d578063e985e9c5146108ad578063f39346f3146108dd578063f487c6021461090d578063fe210f691461092957610295565b8063b4d59d2714610779578063b88d4fde146107a9578063c13cf59a146107c5578063c87b56dd146107e3578063cb44211e14610813578063cfbd900f1461082f57610295565b80638a62462e116101205780638a62462e146106b95780638b01b3e7146106d757806395d89b41146106f3578063a22cb46514610711578063ae242ac31461072d578063b4af93ad1461075d57610295565b80636d1884e0146105e55780636fa3b20b1461061557806370a082311461063157806379a9e8eb146106615780637a844d651461067f5780637cab5e8c1461069d57610295565b8063323c635a1161020b5780634f6ccce7116101c45780634f6ccce7146104eb57806350b447121461051b57806354f7a0e61461054d5780635768f2711461057d5780636352211e14610599578063652d4725146105c957610295565b8063323c635a14610429578063331b27631461044757806333e0a5ac1461047757806342842e0e1461049557806349f80c00146104b15780634a17bbde146104cd57610295565b80630b7914301161025d5780630b7914301461035257806318160ddd1461038357806319717d54146103a157806321c63a47146103bf57806323b872dd146103dd5780632f745c59146103f957610295565b806301ffc9a71461029a57806306fdde03146102ca578063081812fc146102e8578063089cdd0c14610318578063095ea7b314610336575b600080fd5b6102b460048036036102af91908101906134ce565b610959565b6040516102c1919061419a565b60405180910390f35b6102d26109c0565b6040516102df91906141b5565b60405180910390f35b61030260048036036102fd9190810190613520565b610a62565b60405161030f9190613fe3565b60405180910390f35b610320610ae7565b60405161032d91906144b7565b60405180910390f35b610350600480360361034b91908101906133fd565b610aed565b005b61036c60048036036103679190810190613520565b610c9a565b60405161037a9291906140bf565b60405180910390f35b61038b610d76565b60405161039891906144b7565b60405180910390f35b6103a9610d83565b6040516103b691906144b7565b60405180910390f35b6103c7610d89565b6040516103d491906144b7565b60405180910390f35b6103f760048036036103f291908101906132a3565b610d93565b005b610413600480360361040e91908101906133fd565b610dec565b60405161042091906144b7565b60405180910390f35b610431610e95565b60405161043e91906144b7565b60405180910390f35b610461600480360361045c91908101906131d7565b610e9f565b60405161046e919061419a565b60405180910390f35b61047f610ef5565b60405161048c91906144b7565b60405180910390f35b6104af60048036036104aa91908101906132a3565b610efb565b005b6104cb60048036036104c691908101906133fd565b610f46565b005b6104d56110a6565b6040516104e291906144b7565b60405180910390f35b61050560048036036105009190810190613520565b6110b0565b60405161051291906144b7565b60405180910390f35b61053560048036036105309190810190613520565b61111a565b604051610544939291906144d2565b60405180910390f35b61056760048036036105629190810190613520565b6111dc565b6040516105749190613fe3565b60405180910390f35b61059760048036036105929190810190613439565b61120f565b005b6105b360048036036105ae9190810190613520565b6112f8565b6040516105c09190613fe3565b60405180910390f35b6105e360048036036105de91908101906133a9565b6113aa565b005b6105ff60048036036105fa9190810190613520565b611531565b60405161060c91906141b5565b60405180910390f35b61062f600480360361062a91908101906133fd565b6115e9565b005b61064b600480360361064691908101906131d7565b6117d3565b60405161065891906144b7565b60405180910390f35b610669611892565b6040516106769190613fe3565b60405180910390f35b6106876118b8565b60405161069491906144b7565b60405180910390f35b6106b760048036036106b291908101906131d7565b6118c2565b005b6106c16119ad565b6040516106ce9190613fe3565b60405180910390f35b6106f160048036036106ec91908101906132a3565b6119d7565b005b6106fb611ae8565b60405161070891906141b5565b60405180910390f35b61072b6004803603610726919081019061336d565b611b8a565b005b61074760048036036107429190810190613520565b611cf6565b60405161075491906144b7565b60405180910390f35b6107776004803603610772919081019061347a565b611d17565b005b610793600480360361078e9190810190613520565b611dfe565b6040516107a09190613fe3565b60405180910390f35b6107c360048036036107be91908101906132f2565b611e31565b005b6107cd611e8d565b6040516107da9190613fe3565b60405180910390f35b6107fd60048036036107f89190810190613520565b611eb3565b60405161080a91906141b5565b60405180910390f35b61082d600480360361082891908101906131d7565b611fb0565b005b6108376120a3565b60405161084491906144b7565b60405180910390f35b610867600480360361086291908101906131d7565b6120a9565b604051610874919061419a565b60405180910390f35b61089760048036036108929190810190613520565b6120c9565b6040516108a49190613fe3565b60405180910390f35b6108c760048036036108c29190810190613200565b612106565b6040516108d4919061419a565b60405180910390f35b6108f760048036036108f291908101906131d7565b61219a565b60405161090491906144b7565b60405180910390f35b6109276004803603610922919081019061323c565b61227b565b005b610943600480360361093e9190810190613520565b6122f6565b6040516109509190613fe3565b60405180910390f35b6000806000837bffffffffffffffffffffffffffffffffffffffffffffffffffffffff19167bffffffffffffffffffffffffffffffffffffffffffffffffffffffff1916815260200190815260200160002060009054906101000a900460ff169050919050565b606060098054600181600116156101000203166002900480601f016020809104026020016040519081016040528092919081815260200182805460018160011615610100020316600290048015610a585780601f10610a2d57610100808354040283529160200191610a58565b820191906000526020600020905b815481529060010190602001808311610a3b57829003601f168201915b5050505050905090565b6000610a6d82612333565b610aac576040517f08c379a0000000000000000000000000000000000000000000000000000000008152600401610aa3906143b7565b60405180910390fd5b6002600083815260200190815260200160002060009054906101000a900473ffffffffffffffffffffffffffffffffffffffff169050919050565b600e5481565b6000610af8826112f8565b90508073ffffffffffffffffffffffffffffffffffffffff168373ffffffffffffffffffffffffffffffffffffffff161415610b69576040517f08c379a0000000000000000000000000000000000000000000000000000000008152600401610b6090614417565b60405180910390fd5b8073ffffffffffffffffffffffffffffffffffffffff163373ffffffffffffffffffffffffffffffffffffffff161480610ba95750610ba88133612106565b5b610be8576040517f08c379a0000000000000000000000000000000000000000000000000000000008152600401610bdf90614337565b60405180910390fd5b826002600084815260200190815260200160002060006101000a81548173ffffffffffffffffffffffffffffffffffffffff021916908373ffffffffffffffffffffffffffffffffffffffff160217905550818373ffffffffffffffffffffffffffffffffffffffff168273ffffffffffffffffffffffffffffffffffffffff167f8c5be1e5ebec7d5bd14f71427d1e84f3dd0314c0f7b2291e5b200ac8c7c3b92560405160405180910390a4505050565b600c6020528060005260406000206000915090508060000160009054906101000a900473ffffffffffffffffffffffffffffffffffffffff1690806001018054600181600116156101000203166002900480601f016020809104026020016040519081016040528092919081815260200182805460018160011615610100020316600290048015610d6c5780601f10610d4157610100808354040283529160200191610d6c565b820191906000526020600020905b815481529060010190602001808311610d4f57829003601f168201915b5050505050905082565b6000600780549050905090565b600f5481565b6000601454905090565b610d9d33826123a5565b610ddc576040517f08c379a0000000000000000000000000000000000000000000000000000000008152600401610dd390614457565b60405180910390fd5b610de7838383612483565b505050565b6000610df7836117d3565b8210610e38576040517f08c379a0000000000000000000000000000000000000000000000000000000008152600401610e2f906141d7565b60405180910390fd5b600560008473ffffffffffffffffffffffffffffffffffffffff1673ffffffffffffffffffffffffffffffffffffffff1681526020019081526020016000208281548110610e8257fe5b9060005260206000200154905092915050565b6000600f54905090565b6000600d60008373ffffffffffffffffffffffffffffffffffffffff1673ffffffffffffffffffffffffffffffffffffffff16815260200190815260200160002060009054906101000a900460ff169050919050565b60185481565b610f068383836124a7565b7fddf252ad1be2c89b69c2b068fc378daa952ba7f163c4a11628f55a4df523b3ef838383604051610f3993929190614088565b60405180910390a1505050565b6000610f51826112f8565b90508073ffffffffffffffffffffffffffffffffffffffff168373ffffffffffffffffffffffffffffffffffffffff161415610fc2576040517f08c379a0000000000000000000000000000000000000000000000000000000008152600401610fb9906142b7565b60405180910390fd5b610fcb826124c7565b61100a576040517f08c379a000000000000000000000000000000000000000000000000000000000815260040161100190614237565b60405180910390fd5b6110158184846119d7565b60006016600084815260200190815260200160002060006101000a81548173ffffffffffffffffffffffffffffffffffffffff021916908373ffffffffffffffffffffffffffffffffffffffff1602179055507f473143fbc5eac9f496272408e704b4ab0136ed56a4b525e3f3919ffe96ffc935838360405161109992919061411f565b60405180910390a1505050565b6000600e54905090565b60006110ba610d76565b82106110fb576040517f08c379a00000000000000000000000000000000000000000000000000000000081526004016110f290614477565b60405180910390fd5b6007828154811061110857fe5b90600052602060002001549050919050565b6013602052806000526040600020600091509050806000015490806001018054600181600116156101000203166002900480601f0160208091040260200160405190810160405280929190818152602001828054600181600116156101000203166002900480156111cc5780601f106111a1576101008083540402835291602001916111cc565b820191906000526020600020905b8154815290600101906020018083116111af57829003601f168201915b5050505050908060020154905083565b60166020528060005260406000206000915054906101000a900473ffffffffffffffffffffffffffffffffffffffff1681565b60008090505b81518110156112bd5761122a33601454612539565b60405180606001604052806001600e5403815260200183838151811061124c57fe5b6020026020010151815260200160145481525060136000601454815260200190815260200160002060008201518160000155602082015181600101908051906020019061129a929190612eaa565b50604082015181600201559050506112b061255a565b8080600101915050611215565b507f8b1bf817d0a0395e08feb778f1aa43c226716e1edbcceaee95de20e16b629a66816040516112ed9190614148565b60405180910390a150565b6000806001600084815260200190815260200160002060009054906101000a900473ffffffffffffffffffffffffffffffffffffffff169050600073ffffffffffffffffffffffffffffffffffffffff168173ffffffffffffffffffffffffffffffffffffffff1614156113a1576040517f08c379a000000000000000000000000000000000000000000000000000000000815260040161139890614377565b60405180910390fd5b80915050919050565b60405180604001604052808373ffffffffffffffffffffffffffffffffffffffff16815260200182815250600c6000600e54815260200190815260200160002060008201518160000160006101000a81548173ffffffffffffffffffffffffffffffffffffffff021916908373ffffffffffffffffffffffffffffffffffffffff160217905550602082015181600101908051906020019061144d929190612eaa565b509050508160116000600e54815260200190815260200160002060006101000a81548173ffffffffffffffffffffffffffffffffffffffff021916908373ffffffffffffffffffffffffffffffffffffffff1602179055506114ec601260008473ffffffffffffffffffffffffffffffffffffffff1673ffffffffffffffffffffffffffffffffffffffff16815260200190815260200160002061256d565b6114f4612583565b7f8a75407835e6c523aab71fd01762bc15e009f6b559ad388e51908800aee1d43b82826040516115259291906140ef565b60405180910390a15050565b6060600c60008381526020019081526020016000206001018054600181600116156101000203166002900480601f0160208091040260200160405190810160405280929190818152602001828054600181600116156101000203166002900480156115dd5780601f106115b2576101008083540402835291602001916115dd565b820191906000526020600020905b8154815290600101906020018083116115c057829003601f168201915b50505050509050919050565b60006115f4826112f8565b90508273ffffffffffffffffffffffffffffffffffffffff166016600084815260200190815260200160002060009054906101000a900473ffffffffffffffffffffffffffffffffffffffff1673ffffffffffffffffffffffffffffffffffffffff161415611698576040517f08c379a000000000000000000000000000000000000000000000000000000000815260040161168f90614257565b60405180910390fd5b8073ffffffffffffffffffffffffffffffffffffffff168373ffffffffffffffffffffffffffffffffffffffff1614611706576040517f08c379a00000000000000000000000000000000000000000000000000000000081526004016116fd90614497565b60405180910390fd5b826016600084815260200190815260200160002060006101000a81548173ffffffffffffffffffffffffffffffffffffffff021916908373ffffffffffffffffffffffffffffffffffffffff160217905550601782908060018154018082558091505090600182039060005260206000200160009091929091909150555060016018600082825401925050819055507f473143fbc5eac9f496272408e704b4ab0136ed56a4b525e3f3919ffe96ffc93583836040516117c692919061411f565b60405180910390a1505050565b60008073ffffffffffffffffffffffffffffffffffffffff168273ffffffffffffffffffffffffffffffffffffffff161415611844576040517f08c379a000000000000000000000000000000000000000000000000000000000815260040161183b90614357565b60405180910390fd5b61188b600360008473ffffffffffffffffffffffffffffffffffffffff1673ffffffffffffffffffffffffffffffffffffffff168152602001908152602001600020612596565b9050919050565b601560009054906101000a900473ffffffffffffffffffffffffffffffffffffffff1681565b6000601854905090565b3373ffffffffffffffffffffffffffffffffffffffff16601060009054906101000a900473ffffffffffffffffffffffffffffffffffffffff1673ffffffffffffffffffffffffffffffffffffffff1614611952576040517f08c379a000000000000000000000000000000000000000000000000000000000815260040161194990614317565b60405180910390fd5b6000600d60008373ffffffffffffffffffffffffffffffffffffffff1673ffffffffffffffffffffffffffffffffffffffff16815260200190815260200160002060006101000a81548160ff02191690831515021790555050565b6000601060009054906101000a900473ffffffffffffffffffffffffffffffffffffffff16905090565b8273ffffffffffffffffffffffffffffffffffffffff163373ffffffffffffffffffffffffffffffffffffffff161480611a5e5750601560009054906101000a900473ffffffffffffffffffffffffffffffffffffffff1673ffffffffffffffffffffffffffffffffffffffff163373ffffffffffffffffffffffffffffffffffffffff16145b611a9d576040517f08c379a0000000000000000000000000000000000000000000000000000000008152600401611a9490614457565b60405180910390fd5b611aa8838383612483565b7fddf252ad1be2c89b69c2b068fc378daa952ba7f163c4a11628f55a4df523b3ef838383604051611adb93929190614088565b60405180910390a1505050565b6060600a8054600181600116156101000203166002900480601f016020809104026020016040519081016040528092919081815260200182805460018160011615610100020316600290048015611b805780601f10611b5557610100808354040283529160200191611b80565b820191906000526020600020905b815481529060010190602001808311611b6357829003601f168201915b5050505050905090565b3373ffffffffffffffffffffffffffffffffffffffff168273ffffffffffffffffffffffffffffffffffffffff161415611bf9576040517f08c379a0000000000000000000000000000000000000000000000000000000008152600401611bf090614297565b60405180910390fd5b80600460003373ffffffffffffffffffffffffffffffffffffffff1673ffffffffffffffffffffffffffffffffffffffff16815260200190815260200160002060008473ffffffffffffffffffffffffffffffffffffffff1673ffffffffffffffffffffffffffffffffffffffff16815260200190815260200160002060006101000a81548160ff0219169083151502179055508173ffffffffffffffffffffffffffffffffffffffff163373ffffffffffffffffffffffffffffffffffffffff167f17307eab39ab6107e8899845ad3d59bd9653f200f220920489ca2b5937696c3183604051611cea919061419a565b60405180910390a35050565b60178181548110611d0357fe5b906000526020600020016000915090505481565b60008090505b8251811015611dc057611d3233601454612539565b6040518060600160405280838152602001848381518110611d4f57fe5b60200260200101518152602001601454815250601360006014548152602001908152602001600020600082015181600001556020820151816001019080519060200190611d9d929190612eaa565b5060408201518160020155905050611db361255a565b8080600101915050611d1d565b507f3812fb3dcfb9c40976068020df279cd83c1455285c51961e648c3ea3228b114f8282604051611df292919061416a565b60405180910390a15050565b60116020528060005260406000206000915054906101000a900473ffffffffffffffffffffffffffffffffffffffff1681565b611e3c848484610d93565b611e48848484846125a4565b611e87576040517f08c379a0000000000000000000000000000000000000000000000000000000008152600401611e7e906141f7565b60405180910390fd5b50505050565b601060009054906101000a900473ffffffffffffffffffffffffffffffffffffffff1681565b6060611ebe82612333565b611efd576040517f08c379a0000000000000000000000000000000000000000000000000000000008152600401611ef4906143f7565b60405180910390fd5b600b60008381526020019081526020016000208054600181600116156101000203166002900480601f016020809104026020016040519081016040528092919081815260200182805460018160011615610100020316600290048015611fa45780601f10611f7957610100808354040283529160200191611fa4565b820191906000526020600020905b815481529060010190602001808311611f8757829003601f168201915b50505050509050919050565b3373ffffffffffffffffffffffffffffffffffffffff16601060009054906101000a900473ffffffffffffffffffffffffffffffffffffffff1673ffffffffffffffffffffffffffffffffffffffff1614612040576040517f08c379a000000000000000000000000000000000000000000000000000000000815260040161203790614317565b60405180910390fd5b6001600d60008373ffffffffffffffffffffffffffffffffffffffff1673ffffffffffffffffffffffffffffffffffffffff16815260200190815260200160002060006101000a81548160ff0219169083151502179055506120a06126bb565b50565b60145481565b600d6020528060005260406000206000915054906101000a900460ff1681565b60006016600083815260200190815260200160002060009054906101000a900473ffffffffffffffffffffffffffffffffffffffff169050919050565b6000600460008473ffffffffffffffffffffffffffffffffffffffff1673ffffffffffffffffffffffffffffffffffffffff16815260200190815260200160002060008373ffffffffffffffffffffffffffffffffffffffff1673ffffffffffffffffffffffffffffffffffffffff16815260200190815260200160002060009054906101000a900460ff16905092915050565b60008073ffffffffffffffffffffffffffffffffffffffff16601060009054906101000a900473ffffffffffffffffffffffffffffffffffffffff1673ffffffffffffffffffffffffffffffffffffffff16141561222d576040517f08c379a000000000000000000000000000000000000000000000000000000000815260040161222490614437565b60405180910390fd5b612274601260008473ffffffffffffffffffffffffffffffffffffffff1673ffffffffffffffffffffffffffffffffffffffff168152602001908152602001600020612596565b9050919050565b60008090505b81518110156122b5576122a8848484848151811061229b57fe5b60200260200101516124a7565b8080600101915050612281565b507f944ff1e3859e71e7e76a8e77f2f9871b1ea12bc168118ebd27618c7095b31d738383836040516122e99392919061404a565b60405180910390a1505050565b60006011600083815260200190815260200160002060009054906101000a900473ffffffffffffffffffffffffffffffffffffffff169050919050565b6000806001600084815260200190815260200160002060009054906101000a900473ffffffffffffffffffffffffffffffffffffffff169050600073ffffffffffffffffffffffffffffffffffffffff168173ffffffffffffffffffffffffffffffffffffffff161415915050919050565b60006123b082612333565b6123ef576040517f08c379a00000000000000000000000000000000000000000000000000000000081526004016123e6906142f7565b60405180910390fd5b60006123fa836112f8565b90508073ffffffffffffffffffffffffffffffffffffffff168473ffffffffffffffffffffffffffffffffffffffff16148061246957508373ffffffffffffffffffffffffffffffffffffffff1661245184610a62565b73ffffffffffffffffffffffffffffffffffffffff16145b8061247a57506124798185612106565b5b91505092915050565b61248e8383836126ce565b61249883826128fd565b6124a28282612a9b565b505050565b6124c283838360405180602001604052806000815250611e31565b505050565b6000806016600084815260200190815260200160002060009054906101000a900473ffffffffffffffffffffffffffffffffffffffff169050600073ffffffffffffffffffffffffffffffffffffffff168173ffffffffffffffffffffffffffffffffffffffff161415915050919050565b6125438282612b62565b61254d8282612a9b565b61255681612d14565b5050565b6001601460008282540192505081905550565b6001816000016000828254019250508190555050565b6001600e60008282540192505081905550565b600081600001549050919050565b60006125c58473ffffffffffffffffffffffffffffffffffffffff16612d60565b6125d257600190506126b3565b60008473ffffffffffffffffffffffffffffffffffffffff1663150b7a02338887876040518563ffffffff1660e01b81526004016126139493929190613ffe565b602060405180830381600087803b15801561262d57600080fd5b505af1158015612641573d6000803e3d6000fd5b505050506040513d601f19601f8201168201806040525061266591908101906134f7565b905063150b7a0260e01b7bffffffffffffffffffffffffffffffffffffffffffffffffffffffff1916817bffffffffffffffffffffffffffffffffffffffffffffffffffffffff1916149150505b949350505050565b6001600f60008282540192505081905550565b8273ffffffffffffffffffffffffffffffffffffffff166126ee826112f8565b73ffffffffffffffffffffffffffffffffffffffff1614612744576040517f08c379a000000000000000000000000000000000000000000000000000000000815260040161273b906143d7565b60405180910390fd5b600073ffffffffffffffffffffffffffffffffffffffff168273ffffffffffffffffffffffffffffffffffffffff1614156127b4576040517f08c379a00000000000000000000000000000000000000000000000000000000081526004016127ab90614277565b60405180910390fd5b6127bd81612d73565b612804600360008573ffffffffffffffffffffffffffffffffffffffff1673ffffffffffffffffffffffffffffffffffffffff168152602001908152602001600020612e31565b61284b600360008473ffffffffffffffffffffffffffffffffffffffff1673ffffffffffffffffffffffffffffffffffffffff16815260200190815260200160002061256d565b816001600083815260200190815260200160002060006101000a81548173ffffffffffffffffffffffffffffffffffffffff021916908373ffffffffffffffffffffffffffffffffffffffff160217905550808273ffffffffffffffffffffffffffffffffffffffff168473ffffffffffffffffffffffffffffffffffffffff167fddf252ad1be2c89b69c2b068fc378daa952ba7f163c4a11628f55a4df523b3ef60405160405180910390a4505050565b60006129556001600560008673ffffffffffffffffffffffffffffffffffffffff1673ffffffffffffffffffffffffffffffffffffffff16815260200190815260200160002080549050612e5490919063ffffffff16565b9050600060066000848152602001908152602001600020549050818114612a42576000600560008673ffffffffffffffffffffffffffffffffffffffff1673ffffffffffffffffffffffffffffffffffffffff16815260200190815260200160002083815481106129c257fe5b9060005260206000200154905080600560008773ffffffffffffffffffffffffffffffffffffffff1673ffffffffffffffffffffffffffffffffffffffff1681526020019081526020016000208381548110612a1a57fe5b9060005260206000200181905550816006600083815260200190815260200160002081905550505b600560008573ffffffffffffffffffffffffffffffffffffffff1673ffffffffffffffffffffffffffffffffffffffff168152602001908152602001600020805480919060019003612a949190612f2a565b5050505050565b600560008373ffffffffffffffffffffffffffffffffffffffff1673ffffffffffffffffffffffffffffffffffffffff168152602001908152602001600020805490506006600083815260200190815260200160002081905550600560008373ffffffffffffffffffffffffffffffffffffffff1673ffffffffffffffffffffffffffffffffffffffff1681526020019081526020016000208190806001815401808255809150509060018203906000526020600020016000909192909190915055505050565b600073ffffffffffffffffffffffffffffffffffffffff168273ffffffffffffffffffffffffffffffffffffffff161415612bd2576040517f08c379a0000000000000000000000000000000000000000000000000000000008152600401612bc990614397565b60405180910390fd5b612bdb81612333565b15612c1b576040517f08c379a0000000000000000000000000000000000000000000000000000000008152600401612c1290614217565b60405180910390fd5b816001600083815260200190815260200160002060006101000a81548173ffffffffffffffffffffffffffffffffffffffff021916908373ffffffffffffffffffffffffffffffffffffffff160217905550612cb4600360008473ffffffffffffffffffffffffffffffffffffffff1673ffffffffffffffffffffffffffffffffffffffff16815260200190815260200160002061256d565b808273ffffffffffffffffffffffffffffffffffffffff16600073ffffffffffffffffffffffffffffffffffffffff167fddf252ad1be2c89b69c2b068fc378daa952ba7f163c4a11628f55a4df523b3ef60405160405180910390a45050565b6007805490506008600083815260200190815260200160002081905550600781908060018154018082558091505090600182039060005260206000200160009091929091909150555050565b600080823b905060008111915050919050565b600073ffffffffffffffffffffffffffffffffffffffff166002600083815260200190815260200160002060009054906101000a900473ffffffffffffffffffffffffffffffffffffffff1673ffffffffffffffffffffffffffffffffffffffff1614612e2e5760006002600083815260200190815260200160002060006101000a81548173ffffffffffffffffffffffffffffffffffffffff021916908373ffffffffffffffffffffffffffffffffffffffff1602179055505b50565b612e4960018260000154612e5490919063ffffffff16565b816000018190555050565b600082821115612e99576040517f08c379a0000000000000000000000000000000000000000000000000000000008152600401612e90906142d7565b60405180910390fd5b600082840390508091505092915050565b828054600181600116156101000203166002900490600052602060002090601f016020900481019282601f10612eeb57805160ff1916838001178555612f19565b82800160010185558215612f19579182015b82811115612f18578251825591602001919060010190612efd565b5b509050612f269190612f56565b5090565b815481835581811115612f5157818360005260206000209182019101612f509190612f56565b5b505050565b612f7891905b80821115612f74576000816000905550600101612f5c565b5090565b90565b600081359050612f8a816147d4565b92915050565b600082601f830112612fa157600080fd5b8135612fb4612faf8261453d565b614510565b9150818183526020840193506020810190508360005b83811015612ffa5781358601612fe0888261311a565b845260208401935060208301925050600181019050612fca565b5050505092915050565b600082601f83011261301557600080fd5b813561302861302382614565565b614510565b9150818183526020840193506020810190508385602084028201111561304d57600080fd5b60005b8381101561307d578161306388826131c2565b845260208401935060208301925050600181019050613050565b5050505092915050565b600081359050613096816147eb565b92915050565b6000813590506130ab81614802565b92915050565b6000815190506130c081614802565b92915050565b600082601f8301126130d757600080fd5b81356130ea6130e58261458d565b614510565b9150808252602083016020830185838301111561310657600080fd5b613111838284614781565b50505092915050565b600082601f83011261312b57600080fd5b813561313e613139826145b9565b614510565b9150808252602083016020830185838301111561315a57600080fd5b613165838284614781565b50505092915050565b600082601f83011261317f57600080fd5b813561319261318d826145e5565b614510565b915080825260208301602083018583830111156131ae57600080fd5b6131b9838284614781565b50505092915050565b6000813590506131d181614819565b92915050565b6000602082840312156131e957600080fd5b60006131f784828501612f7b565b91505092915050565b6000806040838503121561321357600080fd5b600061322185828601612f7b565b925050602061323285828601612f7b565b9150509250929050565b60008060006060848603121561325157600080fd5b600061325f86828701612f7b565b935050602061327086828701612f7b565b925050604084013567ffffffffffffffff81111561328d57600080fd5b61329986828701613004565b9150509250925092565b6000806000606084860312156132b857600080fd5b60006132c686828701612f7b565b93505060206132d786828701612f7b565b92505060406132e8868287016131c2565b9150509250925092565b6000806000806080858703121561330857600080fd5b600061331687828801612f7b565b945050602061332787828801612f7b565b9350506040613338878288016131c2565b925050606085013567ffffffffffffffff81111561335557600080fd5b613361878288016130c6565b91505092959194509250565b6000806040838503121561338057600080fd5b600061338e85828601612f7b565b925050602061339f85828601613087565b9150509250929050565b600080604083850312156133bc57600080fd5b60006133ca85828601612f7b565b925050602083013567ffffffffffffffff8111156133e757600080fd5b6133f38582860161316e565b9150509250929050565b6000806040838503121561341057600080fd5b600061341e85828601612f7b565b925050602061342f858286016131c2565b9150509250929050565b60006020828403121561344b57600080fd5b600082013567ffffffffffffffff81111561346557600080fd5b61347184828501612f90565b91505092915050565b6000806040838503121561348d57600080fd5b600083013567ffffffffffffffff8111156134a757600080fd5b6134b385828601612f90565b92505060206134c4858286016131c2565b9150509250929050565b6000602082840312156134e057600080fd5b60006134ee8482850161309c565b91505092915050565b60006020828403121561350957600080fd5b6000613517848285016130b1565b91505092915050565b60006020828403121561353257600080fd5b6000613540848285016131c2565b91505092915050565b600061355583836136e7565b905092915050565b60006135698383613fc5565b60208301905092915050565b61357e8161474b565b82525050565b61358d816146d7565b82525050565b600061359e82614631565b6135a88185614682565b9350836020820285016135ba85614611565b8060005b858110156135f657848403895281516135d78582613549565b94506135e283614668565b925060208a019950506001810190506135be565b50829750879550505050505092915050565b60006136138261463c565b61361d8185614693565b935061362883614621565b8060005b83811015613659578151613640888261355d565b975061364b83614675565b92505060018101905061362c565b5085935050505092915050565b61366f816146e9565b82525050565b600061368082614647565b61368a81856146a4565b935061369a818560208601614790565b6136a3816147c3565b840191505092915050565b60006136b98261465d565b6136c381856146c6565b93506136d3818560208601614790565b6136dc816147c3565b840191505092915050565b60006136f282614652565b6136fc81856146b5565b935061370c818560208601614790565b613715816147c3565b840191505092915050565b600061372b82614652565b61373581856146c6565b9350613745818560208601614790565b61374e816147c3565b840191505092915050565b6000613766602b836146c6565b91507f455243373231456e756d657261626c653a206f776e657220696e646578206f7560008301527f74206f6620626f756e64730000000000000000000000000000000000000000006020830152604082019050919050565b60006137cc6032836146c6565b91507f4552433732313a207472616e7366657220746f206e6f6e20455243373231526560008301527f63656976657220696d706c656d656e74657200000000000000000000000000006020830152604082019050919050565b6000613832601c836146c6565b91507f4552433732313a20746f6b656e20616c7265616479206d696e746564000000006000830152602082019050919050565b60006138726026836146c6565b91507f5469636b6574206973206e6f742073656c6c206f6e20746865206d6172656b6560008301527f74706c61636500000000000000000000000000000000000000000000000000006020830152604082019050919050565b60006138d86021836146c6565b91507f5469636b657420616c7265616479206f6e20746865206d61726b6574706c616360008301527f65000000000000000000000000000000000000000000000000000000000000006020830152604082019050919050565b600061393e6024836146c6565b91507f4552433732313a207472616e7366657220746f20746865207a65726f2061646460008301527f72657373000000000000000000000000000000000000000000000000000000006020830152604082019050919050565b60006139a46019836146c6565b91507f4552433732313a20617070726f766520746f2063616c6c6572000000000000006000830152602082019050919050565b60006139e46025836146c6565b91507f4552433732313a206275796572206973206e6f7420746865207469636b65742060008301527f6f776e65720000000000000000000000000000000000000000000000000000006020830152604082019050919050565b6000613a4a601e836146c6565b91507f536166654d6174683a207375627472616374696f6e206f766572666c6f7700006000830152602082019050919050565b6000613a8a602c836146c6565b91507f4552433732313a206f70657261746f7220717565727920666f72206e6f6e657860008301527f697374656e7420746f6b656e00000000000000000000000000000000000000006020830152604082019050919050565b6000613af06015836146c6565b91507f73656e646572206973206e6f742061206f776e657200000000000000000000006000830152602082019050919050565b6000613b306038836146c6565b91507f4552433732313a20617070726f76652063616c6c6572206973206e6f74206f7760008301527f6e6572206e6f7220617070726f76656420666f7220616c6c00000000000000006020830152604082019050919050565b6000613b96602a836146c6565b91507f4552433732313a2062616c616e636520717565727920666f7220746865207a6560008301527f726f2061646472657373000000000000000000000000000000000000000000006020830152604082019050919050565b6000613bfc6029836146c6565b91507f4552433732313a206f776e657220717565727920666f72206e6f6e657869737460008301527f656e7420746f6b656e00000000000000000000000000000000000000000000006020830152604082019050919050565b6000613c626020836146c6565b91507f4552433732313a206d696e7420746f20746865207a65726f20616464726573736000830152602082019050919050565b6000613ca2602c836146c6565b91507f4552433732313a20617070726f76656420717565727920666f72206e6f6e657860008301527f697374656e7420746f6b656e00000000000000000000000000000000000000006020830152604082019050919050565b6000613d086029836146c6565b91507f4552433732313a207472616e73666572206f6620746f6b656e2074686174206960008301527f73206e6f74206f776e00000000000000000000000000000000000000000000006020830152604082019050919050565b6000613d6e602f836146c6565b91507f4552433732314d657461646174613a2055524920717565727920666f72206e6f60008301527f6e6578697374656e7420746f6b656e00000000000000000000000000000000006020830152604082019050919050565b6000613dd46021836146c6565b91507f4552433732313a20617070726f76616c20746f2063757272656e74206f776e6560008301527f72000000000000000000000000000000000000000000000000000000000000006020830152604082019050919050565b6000613e3a6029836146c6565b91507f4576656e743a2062616c616e636520717565727920666f7220746865207a657260008301527f6f206164647265737300000000000000000000000000000000000000000000006020830152604082019050919050565b6000613ea06031836146c6565b91507f4552433732313a207472616e736665722063616c6c6572206973206e6f74206f60008301527f776e6572206e6f7220617070726f7665640000000000000000000000000000006020830152604082019050919050565b6000613f06602c836146c6565b91507f455243373231456e756d657261626c653a20676c6f62616c20696e646578206f60008301527f7574206f6620626f756e647300000000000000000000000000000000000000006020830152604082019050919050565b6000613f6c6026836146c6565b91507f4552433732313a2073656c6c6572206973206e6f7420746865207469636b657460008301527f206f776e657200000000000000000000000000000000000000000000000000006020830152604082019050919050565b613fce81614741565b82525050565b613fdd81614741565b82525050565b6000602082019050613ff86000830184613584565b92915050565b60006080820190506140136000830187613575565b6140206020830186613584565b61402d6040830185613fd4565b818103606083015261403f8184613675565b905095945050505050565b600060608201905061405f6000830186613584565b61406c6020830185613584565b818103604083015261407e8184613608565b9050949350505050565b600060608201905061409d6000830186613584565b6140aa6020830185613584565b6140b76040830184613fd4565b949350505050565b60006040820190506140d46000830185613584565b81810360208301526140e68184613720565b90509392505050565b60006040820190506141046000830185613584565b818103602083015261411681846136ae565b90509392505050565b60006040820190506141346000830185613584565b6141416020830184613fd4565b9392505050565b600060208201905081810360008301526141628184613593565b905092915050565b600060408201905081810360008301526141848185613593565b90506141936020830184613fd4565b9392505050565b60006020820190506141af6000830184613666565b92915050565b600060208201905081810360008301526141cf81846136ae565b905092915050565b600060208201905081810360008301526141f081613759565b9050919050565b60006020820190508181036000830152614210816137bf565b9050919050565b6000602082019050818103600083015261423081613825565b9050919050565b6000602082019050818103600083015261425081613865565b9050919050565b60006020820190508181036000830152614270816138cb565b9050919050565b6000602082019050818103600083015261429081613931565b9050919050565b600060208201905081810360008301526142b081613997565b9050919050565b600060208201905081810360008301526142d0816139d7565b9050919050565b600060208201905081810360008301526142f081613a3d565b9050919050565b6000602082019050818103600083015261431081613a7d565b9050919050565b6000602082019050818103600083015261433081613ae3565b9050919050565b6000602082019050818103600083015261435081613b23565b9050919050565b6000602082019050818103600083015261437081613b89565b9050919050565b6000602082019050818103600083015261439081613bef565b9050919050565b600060208201905081810360008301526143b081613c55565b9050919050565b600060208201905081810360008301526143d081613c95565b9050919050565b600060208201905081810360008301526143f081613cfb565b9050919050565b6000602082019050818103600083015261441081613d61565b9050919050565b6000602082019050818103600083015261443081613dc7565b9050919050565b6000602082019050818103600083015261445081613e2d565b9050919050565b6000602082019050818103600083015261447081613e93565b9050919050565b6000602082019050818103600083015261449081613ef9565b9050919050565b600060208201905081810360008301526144b081613f5f565b9050919050565b60006020820190506144cc6000830184613fd4565b92915050565b60006060820190506144e76000830186613fd4565b81810360208301526144f98185613720565b90506145086040830184613fd4565b949350505050565b6000604051905081810181811067ffffffffffffffff8211171561453357600080fd5b8060405250919050565b600067ffffffffffffffff82111561455457600080fd5b602082029050602081019050919050565b600067ffffffffffffffff82111561457c57600080fd5b602082029050602081019050919050565b600067ffffffffffffffff8211156145a457600080fd5b601f19601f8301169050602081019050919050565b600067ffffffffffffffff8211156145d057600080fd5b601f19601f8301169050602081019050919050565b600067ffffffffffffffff8211156145fc57600080fd5b601f19601f8301169050602081019050919050565b6000819050602082019050919050565b6000819050602082019050919050565b600081519050919050565b600081519050919050565b600081519050919050565b600081519050919050565b600081519050919050565b6000602082019050919050565b6000602082019050919050565b600082825260208201905092915050565b600082825260208201905092915050565b600082825260208201905092915050565b600082825260208201905092915050565b600082825260208201905092915050565b60006146e282614721565b9050919050565b60008115159050919050565b60007fffffffff0000000000000000000000000000000000000000000000000000000082169050919050565b600073ffffffffffffffffffffffffffffffffffffffff82169050919050565b6000819050919050565b60006147568261475d565b9050919050565b60006147688261476f565b9050919050565b600061477a82614721565b9050919050565b82818337600083830152505050565b60005b838110156147ae578082015181840152602081019050614793565b838111156147bd576000848401525b50505050565b6000601f19601f8301169050919050565b6147dd816146d7565b81146147e857600080fd5b50565b6147f4816146e9565b81146147ff57600080fd5b50565b61480b816146f5565b811461481657600080fd5b50565b61482281614741565b811461482d57600080fd5b5056fea365627a7a723158204bcea1e5e17adc39589b7d22a098e78cfcdb1405bec9fd352d6bc5bbae276ff06c6578706572696d656e74616cf564736f6c63430005100040",
  "source": "pragma solidity ^0.5.16;\npragma experimental ABIEncoderV2;\n\nimport \"./ERC721Full.sol\";\nimport \"./Event.sol\";\n\ncontract Ticket is ERC721Full, Event {\n    mapping(uint256 => Ticket) public tickets;\n    // mapping(string => bool) _ticketExists;\n    uint256 public ticketCount = 0;\n    address public ticketContractOwner;\n\n    // mapping(uint256 => address) public ticketApprovals;\n    mapping(uint256 => address) public marketplaceTickets;\n    uint256[] public marketplaceTicketList;\n    uint256 public marketplaceTicketId;\n\n    constructor() public ERC721Full(\"Ticket\", \"TCK\") {\n        ticketContractOwner = msg.sender;\n    }\n\n    event CreateTicketsByEvent(string[] _tickets, uint256 _eventId);\n    event CreateTickets(string[] _tickets);\n    event Transfer(address from, address to, uint256 tokenId);\n    event TransferMulti(address from, address to, uint256[] tokenId);\n    event Trade(address target, uint256 tokenId);\n\n    struct Ticket {\n        uint256 eventId;\n        string ticketDetail;\n        uint256 ticketId;\n    }\n\n    function incrementCount() internal {\n        ticketCount += 1;\n    }\n\n    function getTicketCount() public view returns (uint256) {\n        return ticketCount;\n    }\n\n    function getMarketplaceTicketId() public view returns (uint256) {\n        return marketplaceTicketId;\n    }\n\n    function mint(string[] memory _tickets) public {\n        for (uint256 index = 0; index < _tickets.length; index++) {\n            _mint(msg.sender, ticketCount);\n            tickets[ticketCount] = Ticket(\n                eventId - 1,\n                _tickets[index],\n                ticketCount\n            );\n            incrementCount();\n        }\n        // require(!_ticketExists[_ticket]);\n        emit CreateTickets(_tickets);\n        // _ticketExists[_ticket] = true;\n    }\n\n    function mintByEvent(string[] memory _tickets, uint256 _eventId) public {\n        for (uint256 index = 0; index < _tickets.length; index++) {\n            _mint(msg.sender, ticketCount);\n            tickets[ticketCount] = Ticket(\n                _eventId,\n                _tickets[index],\n                ticketCount\n            );\n            incrementCount();\n        }\n\n        emit CreateTicketsByEvent(_tickets, _eventId);\n    }\n\n    function multiTransferFrom(\n        address _from,\n        address _to,\n        uint256[] memory _tokenIds\n    ) public {\n        for (uint256 index = 0; index < _tokenIds.length; index++) {\n            super.safeTransferFrom(_from, _to, _tokenIds[index]);\n        }\n\n        emit TransferMulti(_from, _to, _tokenIds);\n    }\n\n    function safeTransferFrom(\n        address _from,\n        address _to,\n        uint256 _tokenId\n    ) public {\n        super.safeTransferFrom(_from, _to, _tokenId);\n\n        emit Transfer(_from, _to, _tokenId);\n    }\n    function sellTicketsOnMarketplace(address seller, uint256 ticketId) public {\n        address owner = super.ownerOf(ticketId);\n        require(marketplaceTickets[ticketId] != seller, \"Ticket already on the marketplace\");\n        require(seller == owner, \"ERC721: seller is not the ticket owner\");\n        marketplaceTickets[ticketId] = seller;\n        marketplaceTicketList.push(ticketId);\n        marketplaceTicketId += 1;\n        emit Trade(seller, ticketId);\n    }\n\n    function buyTicketOnMarketplace(address buyer, uint256 ticketId) public {\n        address owner = ownerOf(ticketId);\n        require(buyer != owner, \"ERC721: buyer is not the ticket owner\");\n        require(_existMarketplaceTicket(ticketId), \"Ticket is not sell on the mareketplace\");\n        transferFromByContractOwner(owner, buyer, ticketId);\n        marketplaceTickets[ticketId] = address(0);\n        emit Trade(buyer, ticketId);\n    }\n\n    function _existMarketplaceTicket(uint256 ticketId) internal view returns (bool) {\n        address owner = marketplaceTickets[ticketId];\n        return owner != address(0);\n    }\n\n    function transferFromByContractOwner(address from, address to, uint256 tokenId) public {\n        require(msg.sender == from || msg.sender == ticketContractOwner, \"ERC721: transfer caller is not owner nor approved\");\n\n        super._transferFrom(from, to, tokenId);\n        emit Transfer(from, to, tokenId);\n    }\n\n    \n\n    function getTicketOnMarketplace(uint256 ticketId) public view returns (address) {\n        return marketplaceTickets[ticketId];\n    }\n\n    // function approveByOwner(address to, uint256 ticketId) public {\n    //     // address owner = ownerOf(ticketId);\n    //     // require(to != owner, \"ERC721: approval to current owner\");\n    //     // require(\n    //     //     to == ticketContractOwner,\n    //     //     \"ERC721: approve caller is not contract owner\"\n    //     // );\n    //     require(\n    //       ticketApprovals[ticketId] == to, \"exist\"\n    //     );\n    //     ticketApprovals[ticketId] = to;\n    //     // emit Approval(owner, ticketContractOwner, ticketId);\n    // }\n\n    // function getTicketApproved(uint256 ticketId) public view returns (address) {\n    //     // require(\n    //     //     _exists(ticketId),\n    //     //     \"ERC721: approved query for nonexistent token\"\n    //     // );\n\n    //     return ticketApprovals[ticketId];\n    // }\n}\n",
  "sourcePath": "/Users/timcheng/personal/fyp/smart-ticket-api/src/admin/client/src/smart-contract/contracts/Ticket.sol",
  "compiler": {
    "name": "solc",
    "version": "0.5.16+commit.9c3226ce.Emscripten.clang"
  },
  "schemaVersion": "3.3.2",
  "updatedAt": "2021-04-08T16:59:36.122Z",
  "networkType": "ethereum",
  "devdoc": {
    "methods": {
      "approve(address,uint256)": {
        "details": "Approves another address to transfer the given token ID The zero address indicates there is no approved address. There can only be one approved address per token at a given time. Can only be called by the token owner or an approved operator.",
        "params": {
          "to": "address to be approved for the given token ID",
          "tokenId": "uint256 ID of the token to be approved"
        }
      },
      "balanceOf(address)": {
        "details": "Gets the balance of the specified address.",
        "params": {
          "owner": "address to query the balance of"
        },
        "return": "uint256 representing the amount owned by the passed address"
      },
      "getApproved(uint256)": {
        "details": "Gets the approved address for a token ID, or zero if no address set Reverts if the token ID does not exist.",
        "params": {
          "tokenId": "uint256 ID of the token to query the approval of"
        },
        "return": "address currently approved for the given token ID"
      },
      "isApprovedForAll(address,address)": {
        "details": "Tells whether an operator is approved by a given owner.",
        "params": {
          "operator": "operator address which you want to query the approval of",
          "owner": "owner address which you want to query the approval of"
        },
        "return": "bool whether the given operator is approved by the given owner"
      },
      "name()": {
        "details": "Gets the token name.",
        "return": "string representing the token name"
      },
      "ownerOf(uint256)": {
        "details": "Gets the owner of the specified token ID.",
        "params": {
          "tokenId": "uint256 ID of the token to query the owner of"
        },
        "return": "address currently marked as the owner of the given token ID"
      },
      "safeTransferFrom(address,address,uint256,bytes)": {
        "details": "Safely transfers the ownership of a given token ID to another address If the target address is a contract, it must implement `onERC721Received`, which is called upon a safe transfer, and return the magic value `bytes4(keccak256(\"onERC721Received(address,address,uint256,bytes)\"))`; otherwise, the transfer is reverted. Requires the msg.sender to be the owner, approved, or operator",
        "params": {
          "_data": "bytes data to send along with a safe transfer check",
          "from": "current owner of the token",
          "to": "address to receive the ownership of the given token ID",
          "tokenId": "uint256 ID of the token to be transferred"
        }
      },
      "setApprovalForAll(address,bool)": {
        "details": "Sets or unsets the approval of a given operator An operator is allowed to transfer all tokens of the sender on their behalf.",
        "params": {
          "approved": "representing the status of the approval to be set",
          "to": "operator address to set the approval"
        }
      },
      "supportsInterface(bytes4)": {
        "details": "See `IERC165.supportsInterface`.     * Time complexity O(1), guaranteed to always use less than 30 000 gas."
      },
      "symbol()": {
        "details": "Gets the token symbol.",
        "return": "string representing the token symbol"
      },
      "tokenByIndex(uint256)": {
        "details": "Gets the token ID at a given index of all the tokens in this contract Reverts if the index is greater or equal to the total number of tokens.",
        "params": {
          "index": "uint256 representing the index to be accessed of the tokens list"
        },
        "return": "uint256 token ID at the given index of the tokens list"
      },
      "tokenOfOwnerByIndex(address,uint256)": {
        "details": "Gets the token ID at a given index of the tokens list of the requested owner.",
        "params": {
          "index": "uint256 representing the index to be accessed of the requested tokens list",
          "owner": "address owning the tokens list to be accessed"
        },
        "return": "uint256 token ID at the given index of the tokens list owned by the requested address"
      },
      "tokenURI(uint256)": {
        "details": "Returns an URI for a given token ID. Throws if the token ID does not exist. May return an empty string.",
        "params": {
          "tokenId": "uint256 ID of the token to query"
        }
      },
      "totalSupply()": {
        "details": "Gets the total amount of tokens stored by the contract.",
        "return": "uint256 representing the total amount of tokens"
      },
      "transferFrom(address,address,uint256)": {
        "details": "Transfers the ownership of a given token ID to another address. Usage of this method is discouraged, use `safeTransferFrom` whenever possible. Requires the msg.sender to be the owner, approved, or operator.",
        "params": {
          "from": "current owner of the token",
          "to": "address to receive the ownership of the given token ID",
          "tokenId": "uint256 ID of the token to be transferred"
        }
      }
    }
  },
  "userdoc": {
    "methods": {}
  }
}